:060000000A128A11EA2F2A
:10000C000800F71B0A280B280C2817287609F8007B
:10001C007709F900F80A0319F90A7808F600790843
:10002C00F7000800831203132D08B7008030B705C2
:10003C002D08AE002E07BE00AC1F25282628272829
:10004C003E143E0803192B282C283C283E0A031D7D
:10005C003028312839280030AD000030AC00003099
:10006C00AB000030AA00AC17AD0144280030AD0045
:10007C000030AC000030AB000030AA0029088039F9
:10008C00B7062908AE002E07BF00A81F4E284F2820
:10009C0050283F143F0803195428552865283F0A57
:1000AC00031D59285A2862280030A9000030A800E6
:1000BC000030A7000030A600A817A9016D28003059
:1000CC00A9000030A8000030A7000030A6002908C5
:1000DC00280427042604031D742875288C28003056
:1000EC00AD000030AC000030AB000030AA00803016
:1000FC00AC047F30AD043708AD042D08A9002C08E2
:10010C00A8002B08A7002A08A600E1293E08031D19
:10011C00902891289A280030A9000030A8000030BF
:10012C00A7000030A600E1293E08AE00AF012F0861
:10013C00B1003F082E02B000031CB10330087F3E13
:10014C00B80031080318013E003EB9002D08B60076
:10015C002C08B5002B08B4002A08B3000030AD0001
:10016C000030AC000030AB000030AA000030BD0005
:10017C000030BC000030BB000030BA00BF010E29BB
:10018C003F080319CA28CB28EB280130AE00031016
:10019C00B30DB40DB50DB60DAE0BCD280130AE00C0
:1001AC000310AA0DAB0DAC0DAD0DAE0BD628BD1FBB
:1001BC00E028E128E2282A140130AE000310BA0D21
:1001CC00BB0DBC0DBD0DAE0BE42829083602031D7A
:1001DC00F92828083502031DF92827083402031DC5
:1001EC00F92826083302031CFC28FD280C293D178E
:1001FC002608B3022708031C270FB4022808031C87
:10020C00280FB5022908031C290FB6020130BF07BD
:10021C001A303F02031C13291429C628360835044A
:10022C003404330403191B291C293B293A143B2998
:10023C000130AE000310AA0DAB0DAC0DAD0DAE0B25
:10024C002029BD1F2A292B292C292A140130AE0064
:10025C000310BA0DBB0DBC0DBD0DAE0B2E29FF301E
:10026C00B8070318B90AFF30B907AC1F3E293F295C
:10027C001E29BF01BD1F432944296029FF303A05BF
:10028C00AE00FF303B05AF00FF303C05B0007F30C7
:10029C003D05B100310830042F042E0403195729F1
:1002AC0058295B290130BF0060292A1C5E295F296F
:1002BC00602958293F0803196429652996290130BA
:1002CC00AA07003003180130AB07003003180130C7
:1002DC00AC07003003180130AD072D1C76297729A7
:1002EC0096292A08AE002B08AF002C08B0002D0868
:1002FC00B1000130B200310DB10CB00CAF0CAE0C32
:10030C00B20B81293108AD003008AC002F08AB00CE
:10031C002E08AA000130B8070318B90A0030B90733
:10032C003908803AFF0080307F02031D9F29FF307F
:10033C003802031CA229A329B129FF30831203130D
:10034C00B8000030B9000030AD000030AC00003017
:10035C00AB000030AA00831203133908803AFF0067
:10036C0080307F02031DBC29013038020318BF29DD
:10037C00C029CD2983120313B801B9010030AD0097
:10038C000030AC000030AB000030AA00B701831283
:10039C0003133808BE003E1CD429D529D729AC1725
:1003AC00D9297F30AC053E08AE0003102E0CAD00F1
:1003BC003708AD048328080083160313B6010030F8
:1003CC00BB000030BA000030B9000030B80000307B
:1003DC00B5000030B4000030B3000030B200B701FB
:1003EC00831603178801890183120313880183166E
:1003FC000313880180300A168A1573270A128A1192
:10040C00033083120313EF008A30EE005530ED00F9
:10041C00ED0B0E2AEE0B0E2AEF0B0E2A0A168A1182
:10042C0045210A128A11023083120313EF00453062
:10043C00EE00A930ED00ED0B212AEE0B212AEF0B7B
:10044C00212A0A168A1517270A128A11F501F50AAC
:10045C0001300A168A11A2200A128A112130F500E5
:10046C008030F6000A168A11C8200A128A1102304E
:10047C00F50001300A168A11A2200A128A113D30A9
:10048C00F5008030F6000A168A11C8200A128A116B
:10049C00333083120313EF00BB30EE00DF30ED007E
:1004AC00ED0B562AEE0B562AEF0B562AC030831250
:1004BC000313DA00BC30DB000A128A1551220A122F
:1004CC008A11003A03196B2A6C2A562C83160313D3
:1004DC00B6010130CD070318CE0A0030CE0700302C
:1004EC004E020A3003194D02031C7D2A7E2AD12AA2
:1004FC003F08A3003E08A2003D08A1003C08A00054
:10050C004308A7004208A6004108A5004008A40023
:10051C000A168A1178250A128A1183160313CD0143
:10052C00CE010A128A15BC230A128A1183120313F4
:10053C00650883160313BB00831203136408831628
:10054C000313BA0083120313630883160313B90051
:10055C0083120313620883160313B8000A128A1558
:10056C0001200A128A11831203136C0883160313D9
:10057C00B500831203136B0883160313B4008312A4
:10058C0003136A0883160313B30083120313690859
:10059C0083160313B2003F08A3003E08A2003D08D7
:1005AC00A1003C08A000D430A4000030A5000A1221
:1005BC008A1523210A128A11831603134308A300F8
:1005CC004208A2004108A1004008A000B030A400DD
:1005DC000130A5000A128A1523210A128A118316EA
:1005EC0003133F0883120313A300831603133E085F
:1005FC0083120313A200831603133D088312031303
:10060C00A100831603133C0883120313A000831666
:10061C000313430883120313A70083160313420822
:10062C0083120313A60083160313410883120313CA
:10063C00A50083160313400883120313A40083162A
:10064C0003133B0883120313AB00831603133A08FE
:10065C0083120313AA00831603133908831203139E
:10066C00A90083160313380883120313A8000A1277
:10067C008A152B200A128A110A168A1192200A1244
:10068C008A110D3083120313EE00FB30ED00ED0BDD
:10069C004D2BEE0B4D2B831603133708031D572BD5
:1006AC00582BFE2BF501F50A01300A168A11A220EF
:1006BC000A128A117530F5008030F6000A168A117C
:1006CC00C8200A128A11D430F5000030F6000A1640
:1006DC008A11C8200A128A117030F5008030F60099
:1006EC000A168A11C8200A128A11B030F50001309E
:1006FC00F6000A168A11C8200A128A1125300A1629
:10070C008A11BB210A128A110230F50001300A1637
:10071C008A11A2200A128A11D43083120313B10059
:10072C000030B2002F30B30083160313520883122B
:10073C000313ED00EE016D08B4006E08B5000A1647
:10074C008A1115210A128A11D430F5000030F600F6
:10075C000A168A11C8200A128A113F30F3000030A1
:10076C00F2000030F1000030F000831603133B0858
:10077C00F7003A08F6003908F5003808F4000A16B4
:10078C008A1120240A128A110318CD2BCE2BD52BBB
:10079C005E300A168A11BB210A128A11422C83166A
:1007AC0003133B08F3003A08F2003908F10038084B
:1007BC00F000BF30F7000030F6000030F5000030DC
:1007CC00F4000A168A1120240A128A110318EF2B3E
:1007DC00F02BF72B76300A168A11BB210A128A11DC
:1007EC00422C2D300A168A11BB210A128A11422C76
:1007FC00F501F50A01300A168A11A2200A128A1193
:10080C005730F5008030F6000A168A11C8200A12FB
:10081C008A110230F50001300A168A11A2200A1240
:10082C008A11831603133508A3003408A200330879
:10083C00A1003208A000D430A4000030A5000A1298
:10084C008A1523210A128A116A30F5008030F600CD
:10085C000A168A11C8200A128A11D430F500003009
:10086C00F6000A168A11C8200A128A1143300A1699
:10087C008A11BB210A128A11013083160313D10786
:10088C0003305102031C4B2C4C2C962C37080319AB
:10089C00502C522C0130532C0030B700D101962C27
:1008AC00013083160313B6070A168A1192200A1216
:1008BC008A11F501F50A01300A168A11A2200A12D2
:1008CC008A114A30F5008030F6000A168A11C820C9
:1008DC000A128A110230F50002300A168A11A2207F
:1008EC000A128A11033083160313360203187F2C65
:1008FC00802C8A2C0130F5008030F6000A168A1103
:10090C00C8200A128A11932C1130F5008030F600A1
:10091C000A168A11C8200A128A118312031388013D
:10092C00403083120313EF006A30EE009730ED0075
:10093C00ED0B9E2CEE0B9E2CEF0B9E2C5C2A0A12C0
:10094C008A110028831203134308CD008030CD0593
:10095C004308C8004807D300C21FB52CB62CB72CCF
:10096C00531453080319BB2CBC2CCB2C530A031D5A
:10097C00C02CC12CC92C0030C3000030C200003088
:10098C00C1000030C000C217D32C0030C3000030AF
:10099C00C2000030C1000030C00047088039CD06CD
:1009AC004708C8004807D200C61FDD2CDE2CDF2C00
:1009BC00521452080319E32CE42CF32C520A031D95
:1009CC00E82CE92CF12C0030C7000030C6000030B8
:1009DC00C5000030C400C617FB2C0030C700003027
:1009EC00C6000030C5000030C40052080319FF2CAB
:1009FC00002D052D5308031D042D052D0E2D003043
:100A0C00C3000030C2000030C1000030C000E92F2C
:100A1C004008F00046080A168A11EE200A128A11C4
:100A2C00710883120313D9007008D8005808C80045
:100A3C00C901CA01CB014B08D1004A08D0004908B2
:100A4C00CF004808CE005908C800C901CA01CB0123
:100A5C004B08D7004A08D6004908D5004808D400EE
:100A6C004108F00045080A168A11EE200A128A1174
:100A7C00710883120313D9007008D8005808C800F5
:100A8C00C901CA01CB014808CE0749080311031854
:100A9C00013E0319522DCF074A0803110318013EDA
:100AAC000319592DD0074B0803110318013E0319E4
:100ABC00602DD1075908C800C901CA01CB014808EB
:100ACC00D407490803110318013E03196E2DD507ED
:100ADC004A0803110318013E0319752DD6074B085C
:100AEC0003110318013E03197C2DD7074208F000AF
:100AFC0044080A168A11EE200A128A117108831210
:100B0C000313D9007008D8005808C800C901CA01DD
:100B1C00CB014808CE07490803110318013E0319FD
:100B2C00982DCF074A0803110318013E03199F2D76
:100B3C00D0074B0803110318013E0319A62DD1074A
:100B4C005908C800C901CA01CB014808D407490893
:100B5C0003110318013E0319B42DD5074A080311DC
:100B6C000318013E0319BB2DD6074B0803110318BC
:100B7C00013E0319C22DD7070830C8000310CE0D53
:100B8C00CF0DD00DD10DC80BC42D4108F000440879
:100B9C000A168A11EE200A128A11710883120313A5
:100BAC00D9007008D8005808C8005908C900CA01F3
:100BBC00CB014808CE07490803110318013E03195D
:100BCC00E82DCF074A0803110318013E0319EF2D36
:100BDC00D0074B0803110318013E0319F62DD1075A
:100BEC004008F00045080A168A11EE200A128A11F4
:100BFC00710883120313D9007008D8005808C80074
:100C0C005908C900CA01CB014808CE07490803118D
:100C1C000318013E0319132ECF074A0803110318BA
:100C2C00013E03191A2ED0074B0803110318013E7D
:100C3C000319212ED1070830C8000310CE0DCF0D9B
:100C4C00D00DD10DC80B232E4008F00044080A1615
:100C5C008A11EE200A128A11710883120313D9002B
:100C6C007008D8005808C8005908C900CA01CB013F
:100C7C004808CE07490803110318013E0319472EF3
:100C8C00CF074A0803110318013E03194E2ED00753
:100C9C004B0803110318013E0319552ED1074108C7
:100CAC00F00046080A168A11EE200A128A11710801
:100CBC0083120313D9007008D8005808C8005908CB
:100CCC00C900CA01CB014808D4074908031103180D
:100CDC00013E0319722ED5074A0803110318013E71
:100CEC000319792ED6074B0803110318013E03197B
:100CFC00802ED7074208F00045080A168A11EE200C
:100D0C000A128A11710883120313D9007008D800D3
:100D1C005808C8005908C900CA01CB014808D407B3
:100D2C00490803110318013E03199D2ED5074A08E3
:100D3C0003110318013E0319A42ED6074B08031107
:100D4C000318013E0319AB2ED7074208F0004608E2
:100D5C000A168A11EE200A128A11710883120313E3
:100D6C00D9007008D8005808C8005908C900CA0131
:100D7C00CB0108300310C80DC90DCA0DCB0DFF3EB9
:100D8C00031DC02E4808D407490803110318013E5F
:100D9C000319D12ED5074A0803110318013E031974
:100DAC00D82ED6074B0803110318013E0319DF2E6A
:100DBC00D7074E08C8004F08C9005008CA00510890
:100DCC00CB0018300310CB0CCA0CC90CC80CFF3E5E
:100DDC00031DE82E4808D407490803110318013EE7
:100DEC000319F92ED5074A0803110318013E0319FC
:100DFC00002FD6074B0803110318013E0319072FC8
:100E0C00D7070830C8000310CE0DCF0DD00DD10D73
:100E1C00C80B092F53085207C800C901C90D48084F
:100E2C00823ED80049080318013EFF3ED9003B2FF3
:100E3C000130C8000310D40DD50DD60DD70DC80B3D
:100E4C00202FD11F2A2F2B2F2C2F54140130C800E8
:100E5C000310CE0DCF0DD00DD10DC80B2E2FFF30A2
:100E6C00D8070318D90AFF30D907D61F3E2F3F2FBA
:100E7C001E2FD201D11F432F442F602FFF304E0560
:100E8C00C800FF304F05C900FF305005CA007F3045
:100E9C005105CB004B084A04490448040319572F49
:100EAC00582F5B2F0130D200602F541C5E2F5F2F08
:100EBC00602F582F52080319642F652F962F01307D
:100ECC00D407003003180130D50700300318013067
:100EDC00D607003003180130D707571C762F772F11
:100EEC00962F5408C8005508C9005608CA00570860
:100EFC00CB000130CC004B0DCB0CCA0CC90CC80C70
:100F0C00CC0B812F4B08D7004A08D6004908D500D6
:100F1C004808D4000130D8070318D90A0030D90783
:100F2C005908803AFF0080307F02031D9F2FFF304D
:100F3C005802031CA22FA32FAE2F7F308312031352
:100F4C00D7008030D6000030D5000030D400DF2F21
:100F5C00831203135908803AFF0080307F02031D6F
:100F6C00B92F013058020318BC2FBD2FC92F0030E8
:100F7C0083120313D7000030D6000030D5000030A8
:100F8C00D400CD01DF2F831203135808D300FF3098
:100F9C00D405FF30D5057F30D6050030D705531C5E
:100FAC00D82FD92FDA2FD6175308C8000310480CA6
:100FBC00D7004D08D7045708C3005608C20055087F
:100FCC00C1005408C00008008313C4308400E4300E
:100FDC000A168A151E270A128A118317903084006C
:100FEC00C0300A168A151E270A128A1183010A12AA
:040FFC008A11E2294B
:1010020005308316031352020318082809281A28E8
:1010120052080A168A1142260A128A1583120313EB
:101022005708EC005608EB005508EA005408E9009E
:101032002A2805300A168A1142260A128A158312B4
:1010420003135708EC005608EB005508EA00540851
:10105200E9000800831203132308F3002208F200B8
:101062002108F1002008F0004130F700A030F6001E
:101072000030F5000030F4000A168A1120240A120A
:101082008A15031C452849288312031308144C2887
:10109200831203130810FC012308F3002208F20054
:1010A2002108F1002008F0004130F700A030F600DE
:1010B2000030F5000030F4000A168A1120240A12CA
:1010C2008A15031C6528662883284130F300E03026
:1010D200F2000030F1000030F00083120313230805
:1010E200F7002208F6002108F5002008F4000A168D
:1010F2008A1120240A128A15031C80288128832839
:101102000130FC007C0C83120313031C88100318AB
:1011120088144130F300E030F2000030F10000307A
:10112200F0002308F7002208F6002108F500200845
:10113200F4000A168A1120240A128A15031CA22816
:10114200A628831203130815A92883120313081172
:101152002708F3002608F2002508F1002408F00011
:101162004230F7002030F6000030F5000030F40085
:101172000A168A1120240A128A15031CC128C528BE
:10118200831203138815C82883120313881142306F
:10119200F3008C30F2000030F1000030F00027083C
:1011A200F7002608F6002508F5002408F4000A16C0
:1011B2008A1120240A128A15031CE028E4288312CB
:1011C20003130816E7288312031308123F30F300B3
:1011D2008030F2000030F1000030F0002B08F70000
:1011E2002A08F6002908F5002808F4000A168A11D0
:1011F20020240A128A15031CFF2800291B298312A6
:1012020003132B08F3002A08F2002908F10028082A
:10121200F000BF30F7008030F6000030F5000030FB
:10122200F4000A168A1120240A128A1503181A29B0
:101232001B291F29831203138816222983120313E1
:101242008812080083160313A6012308F30022085C
:10125200F2002108F1002008F0000030F700003011
:10126200F6000030F5000030F4000A168A1120243E
:101272000A128A1503183E293F295A29013083167A
:101282000313A6002308F3002208F2002108F1004C
:101292002008F0000A168A1187200A128A1573089C
:1012A20083160313A3007208A2007108A10070083C
:1012B200A00083160313230883120313E500831689
:1012C2000313220883120313E40083160313210875
:1012D20083120313E30083160313200883120313FC
:1012E200E2000A168A1110230A128A1583120313C6
:1012F200630883160313AA0083120313620883167A
:101302000313A900230883120313C70083160313D0
:10131200220883120313C6008316031321088312C3
:101322000313C50083160313200883120313C4009A
:101332004130C3002030C2000030C1000030C00084
:101342000A128A11A8240A128A1583120313430867
:10135200E1004208E0004108DF004008DE000A30F8
:10136200F2000030F300831603132A08F100290863
:10137200F0000A168A15B6270A128A157008F600B6
:101382007108F7000030F71BFF30F800F900013058
:101392000A168A11C2240A128A15790883120313C3
:1013A200DD007808DC007708DB007608DA000A1630
:1013B2008A1592270A128A15831203135D08E50023
:1013C2005C08E4005B08E3005A08E2000A168A118E
:1013D20010230A128A158312031363088316031358
:1013E200A80083120313620883160313A7002608BA
:1013F2000319FC29FD29272A240883120313B100AB
:1014020083160313250883120313B2006330B3005B
:10141200831603132A0883120313B50083160313DA
:10142200290883120313B4008316031328088312B6
:101432000313B70083160313270883120313B6009E
:101442000A168A1115210A128A15502A24088312B3
:101452000313B10083160313250883120313B2008A
:101462006430B300831603132A0883120313B500F2
:1014720083160313290883120313B400831603137C
:10148200280883120313B700831603132708831255
:101492000313B6000A168A1115210A128A150800CA
:1014A200831203130510753083120313DD00E0303D
:1014B200DC00DC0B5A2ADD0B5A2A000083120313CC
:1014C2000514413083120313DC00DC0B662A692AFF
:1014D20083160313051483120313051C712A722A3F
:1014E2007A2A83160313051083120313051400309E
:1014F200BB2B843083120313DC00DC0B7E2A00003A
:10150200831203130518862A872A8E2A8316031349
:101512000510831203130514782A843083120313EF
:10152200DC00DC0B922A000083120313EB01E201C0
:10153200EA01051C9D2A9E2A9A2A39308312031336
:10154200DC00DC0BA22A000083120313051CAA2A6A
:10155200AB2AB82A0130DC006A08073C013EB32AF4
:101562000310DC0DFF3E031DB12A5C08E2040518DE
:10157200BB2ABC2AB82A0130EA0708306A02031CD7
:10158200C32AC42A9A2A6B08633E84006208831322
:1015920080000130EB0705306B02031CD12AD22AEE
:1015A200982A831603130510831203130514650882
:1015B2006407DC0066085C07DD0063085D076706F8
:1015C200031DE42AE52A782A6408DC00DD016308A9
:1015D200DE00DF015E08DF00DE015C085E04E00081
:1015E2005D085F04E1006608DC00DD016508DE00DD
:1015F200DF015E08DF00DE015C085E04E8005D08D2
:101602005F04E900E91F062B072B542BBF30C300F0
:101612008030C2000030C1000030C0004130A9005B
:101622002030A8000030A7000030A600FF30680577
:10163200F6007F306905F700F801F90100300A165B
:101642008A11C2240A128A15790883120313AD0083
:101652007808AC007708AB007608AA000A128A1153
:1016620018200A128A15831203132908C7002808B2
:10167200C6002708C5002608C4000A128A11A82439
:101682000A128A15831203135A088400400883132E
:101692008000840A41088000840A42088000840A8B
:1016A20043088000872B4130A9002030A800003079
:1016B200A7000030A6006808F6006908F700F801E4
:1016C200F90100300A168A11C2240A128A15790811
:1016D20083120313AD007808AC007708AB007608DC
:1016E200AA000A128A1118200A128A1583120313F9
:1016F2005A088400260883138000840A2708800081
:10170200840A28088000840A290880004130A90040
:101712002030A8000030A7000030A6006008F600C4
:101722006108F700F801F90100300A168A11C22493
:101732000A128A15790883120313AD007808AC00E7
:101742007708AB007608AA000A128A1118200A123A
:101752008A15831203135B08840026088313800012
:10176200840A27088000840A28088000840A29083D
:10177200800001300800033083160313520203185D
:10178200C32BC42BCF2B003083120313E500003090
:10179200E4000030E3000030E200AF2D0030AB0087
:1017A2000030AA000030A9000030A8000030AF00CD
:1017B2000030AE000030AD000030AC00B001582C5B
:1017C20030080A168A1151220A128A1574088316E1
:1017D2000313A3007308A2007208A1007108A000FD
:1017E2002008F6002108F7000030F71BFF30F80050
:1017F200F90001300A168A11C2240A128A157908E0
:1018020083120313AD007808AC007708AB007608AA
:10181200AA004130A9002030A8000030A700003003
:10182200A6000A128A1118200A128A1583120313BB
:101832002908C3002808C2002708C1002608C000E2
:10184200831603132B0883120313C7008316031393
:101852002A0883120313C60083160313290883126E
:101862000313C50083160313280883120313C4004D
:101872000A128A15B0250A128A1583120313430825
:1018820083160313AB008312031342088316031358
:10189200AA0083120313410883160313A9008312BB
:1018A2000313400883160313A8000130B007033066
:1018B200300203185D2C5E2C642C52083002031C8B
:1018C200632C642CE12B403083120313A9004030B7
:1018D200A8000030A7000030A600831603132B08CF
:1018E20083120313AD00831603132A088312031312
:1018F200AC0083160313290883120313AB0083166B
:101902000313280883120313AA000A128A1118204B
:101912000A128A1583120313290883160313AB00D4
:1019220083120313280883160313AA0083120313D6
:10193200270883160313A9008312031326088316AC
:101942000313A80006305202031CA82CA92CA52DB3
:101952000330B10031080A168A1151220A128A157F
:10196200740883160313A7007308A6007208A50063
:101972007108A4002408F6002508F7000030F71BC0
:10198200FF30F800F90001300A168A11C2240A1247
:101992008A15790883120313AD007808AC00770822
:1019A200AB007608AA004130A9002030A800003020
:1019B200A7000030A6000A128A1118200A128A15FE
:1019C200831203132908C3002808C2002708C10094
:1019D2002608C000831603132F0883120313C700BF
:1019E200831603132E0883120313C60083160313F0
:1019F2002D0883120313C500831603132C088312C8
:101A02000313C4000A128A15B0250A128A1583121A
:101A12000313430883160313AF0083120313420810
:101A220083160313AE0083120313410883160313B4
:101A3200AD0083120313400883160313AC00013078
:101A4200B10706303102031C272D282DAB2C403064
:101A520083120313A9004030A8000030A700003011
:101A6200A600831603132F0883120313AD008316F7
:101A720003132E0883120313AC00831603132D08DD
:101A820083120313AB00831603132C088312031370
:101A9200AA000A128A1118200A128A158312031345
:101AA200290883160313AF00831203132808831631
:101AB2000313AE0083120313270883160313AD002A
:101AC20083120313260883160313AC002F08831214
:101AD2000313DD00831603132E0883120313DC00A5
:101AE200831603132D0883120313DB0083160313DB
:101AF2002C0883120313DA00831603132B088312B4
:101B02000313E100831603132A0883120313E00070
:101B120083160313290883120313DF0083160313AA
:101B2200280883120313DE000A168A1592270A1266
:101B32008A15831203135D08E5005C08E4005B0864
:101B4200E3005A08E200AF2D003083120313E500D0
:101B52000030E4000030E3000030E20008008312AD
:101B620003134308D0008030D0054308C80048075B
:101B7200D200C21FBD2DBE2DBF2D52145208031913
:101B8200C32DC42DD42D520A031DC82DC92DD12D0C
:101B92000030C3000030C2000030C1000030C0007D
:101BA200C217C301DC2D0030C3000030C200003078
:101BB200C1000030C0004708D1008030D105510873
:101BC20050060319E52DE62DE72D50174708C800EA
:101BD2004807D100C61FEE2DEF2DF02D51145108EC
:101BE2000319F42DF52D052E510A031DF92DFA2D99
:101BF200022E0030C7000030C6000030C5000030A1
:101C0200C400C617C7010D2E0030C7000030C60041
:101C12000030C5000030C400520851020318122ED1
:101C2200132E372E501F162E172E192E8030D00647
:101C32005208D3005108D2005308D1004008D30003
:101C42004408C0005308C4004108D3004508C1003D
:101C52005308C5004208D3004608C2005308C60014
:101C62004308D3004708C3005308C700D3015108F3
:101C7200C800C9014908CB0052084802CA00031C27
:101C8200CB034B08803AFF0080307F02031D4B2EAE
:101C92001A304A02031C4E2E4F2E842E8312031337
:101CA2004308420441044004031D582E5A2E0130B9
:101CB2005B2E0030D3000030C3000030C200003081
:101CC200C1000030C0005108D2008C2E531C6A2E75
:101CD2006B2E722E5308C8000310480C0138D30033
:101CE200742E0310D30C401C772E782E792ED31726
:101CF2000130C800430DC30CC20CC10CC00CC80B90
:101D02007B2E0130D2078312031351085202031CA7
:101D12008B2E8C2E672E501B8F2E902ED72E520874
:101D2200031D942E952E9E2E0030C3000030C2005B
:101D32000030C1000030C000FF2F4408C007450832
:101D420003110318013E0319A72EC1074608031108
:101D52000318013E0319AE2EC207470803110318E8
:101D6200013E0319B52EC307431CB82EB92E8B2F83
:101D7200531CBC2EBD2EC42E5308C8000310480CA1
:101D82000138D300C62E0310D30C401CC92ECA2E14
:101D9200CB2ED3170130C800430DC30CC20CC10CAB
:101DA200C00CC80BCD2E0130D2078B2F4308803ACE
:101DB200FF004708803A7F02031DE92E46084202CF
:101DC200031DE92E45084102031DE92E4408400285
:101DD2000318EC2EED2E442FFF30C800FF30C9004F
:101DE200FF30CA00FF30CB004408CC004508CD00CC
:101DF2004608CE004708CF004008CC024108031C29
:101E0200410F042F052FCD024208031C420F0A2F57
:101E12000B2FCE024308031C430F102F112FCF02AA
:101E22004C08C8074D0803184D0F182F192FC90762
:101E32004E0803184E0F1E2F1F2FCA074F080318F4
:101E42004F0ACB074B08C3004A08C2004908C10029
:101E52004808C0008030D0065303FF3AD30053082D
:101E6200031D342F352F522F0130C00700300318C5
:101E72000130C107003003180130C20700300318D7
:101E82000130C307522F4408C0024508031C450F06
:101E9200C1024608031C460FC2024708031C470F33
:101EA200C3024308420441044004031D592F5A2F20
:101EB200872F5308031D5E2F5F2F872F0030C3002B
:101EC2000030C2000030C1000030C000FF2F0130DE
:101ED200C8000310C00DC10DC20DC30DC80B6A2F7F
:101EE200D31F742F752F762F4014531C792F7A2FFE
:101EF2007E2F0314530DD300802F0310D30D5208ED
:101F02000319842F852F872F0130D202C21F8A2FF7
:101F12008B2F682FD101D31F8F2F902F9E2F530805
:101F22007F390319952F962F992F0130D1009E2FBB
:101F3200401C9C2F9D2F9E2F962F51080319A22FD4
:101F4200A32FD52F0130C007003003180130C1077D
:101F5200003003180130C207003003180130C307F4
:101F6200431CB42FB52FD52F4008C8004108C90023
:101F72004208CA004308CB000130CC004B0DCB0C09
:101F8200CA0CC90CC80CCC0BBF2F4B08C3004A08A3
:101F9200C2004908C1004808C000520A0319D22FE2
:101FA200D32FD52F0130D207520A0319D92FDA2F96
:101FB200DF2F5208031DDE2FDF2FED2F0030C3006D
:101FC2000030C2000030C1000030C0005208031DC2
:101FD200EB2FEC2FED2FD001521CF02FF12FF32F0E
:101FE200C217F52F7F30C2055208C8000310480CF3
:101FF200C300D01FFD2FFE2FFF2FC3170800FF1BAA
:102002000A2883137F1883170008840A0319FF0A1A
:10201200080010308A000408840A82070034203441
:102022005234653469346E34743465346E347434C5
:1020320061346E3464346F342E342E3400342034E0
:1020420043346834653463346B34203463346F341E
:102052006E346534783469346F346E3400345334FA
:1020620069347334743465346D34613420344434E7
:10207200483454343234323400344834693473349A
:1020820074343A34253464342034543465346E3430
:1020920064343A34003449346E3469346334693414
:1020A20061346E3464346F342E342E342E34003462
:1020B20020344534723472346F34723420344434F0
:1020C20048345434323432340034503452344F347D
:1020D2004E344F3453345434493443344F343A3405
:1020E20000342D34253464342E34253464340034E1
:1020F200543465346D3470343A340034433420340B
:1021020048343A34003454343A3400347308720494
:102112007104700403198E288F2891288030F306E9
:10212200080001300A168A117C210A168A110D3024
:10213200F600FB30F500F50B9C28F60B9C28A12835
:102142000800F600AF28F701BD284030F700BD288F
:102152001430F700BD285430F700BD287508013A45
:102162000319A428033A0319A628013A0319A92836
:10217200073A0319AC28A4287608FF3EF707770828
:1021820080380A168A117C210A168A110800DD2875
:102192007608FF00750884000A168A1100200A16C4
:1021A2008A110A168A11BB210A168A110130F50713
:1021B2000318F60A0030F607760883120313FF00AD
:1021C200750884000A168A1100200A168A11003A3C
:1021D200031DEC28ED28C9280800F800F401F501D8
:1021E2007008F200F3017208F6007308F700781C19
:1021F200FB28FC2802297608F4070318F50A770859
:10220200F50701300310F60DF70DFF3E031D0329FC
:102212000310F80C7808031D0F291029F8287508F7
:10222200F1007408F0000800343083120313BB007D
:102232003108BC003208BD00BE01BF01C501C601A4
:102242003C30AD000030AE003308AF003B30B00090
:102252000A168A15DB270A168A11831203133E080F
:102262003107B9003208B8000318B80ABE1F3A296C
:10227200B803831203133808BA003908840083179D
:102282003A1C8313800108008230F600DD30F5002D
:10229200F50B4929F60B49294E2933300A168A11C2
:1022A2007C210A168A1132300A168A117C210A16FA
:1022B2008A1128300A168A117C210A168A110C30DA
:1022C2000A168A117C210A168A1106300A168A1108
:1022D2007C210A168A1101300A168A117C210A16FB
:1022E2008A111430F6007930F500F50B7629F60BD9
:1022F20076297B290800F2007208F300F030F3051A
:102302007208F10003300310F10DFF3E031D842912
:102312000310710DF400F030F4050A168A15262711
:102322000A168A114E300A168A1547270A168A118A
:1023320073080C380A168A1547270A168A11730879
:1023420008380A168A1547270A168A1174080C38A3
:102352000A168A1547270A168A11740808380A16B7
:102362008A1547270A168A110A168A1530270A166D
:102372008A110800F2007208F300F030F3057208C7
:10238200F10003300310F10DFF3E031DC3290310BA
:10239200710DF400F030F4050A168A1526270A1684
:1023A2008A114E300A168A1547270A168A117308AF
:1023B2000D380A168A1547270A168A117308093832
:1023C2000A168A1547270A168A1174080D380A1642
:1023D2008A1547270A168A11740809380A168A15B7
:1023E20047270A168A110A168A1530270A168A11F1
:1023F2000800F501F31FFE29FF29062AF209F30955
:10240200F20A0319F30A0130F500F11F092A0A2A18
:102412000F2AF009F109F00A0319F10A7008710490
:102422000319142A152A422A0130F400212A013004
:102432000310F00DF10DFF3E031D192A0130F407C0
:10244200F11F242A252A182A71087302031D2B2A38
:1024520070087202031C2E2A2F2A352A7008F202F3
:102462007108031CF303F30201300310F10CF00CAA
:10247200FF3E031D362A0130F402031D412A422A7F
:10248200252A75080319462A472A4C2AF209F30914
:10249200F20A0319F30A7308F1007208F000080047
:1024A20083120313A4002408F50001300310F50D74
:1024B200FF3E031D572A0310750DA9002908013E8E
:1024C2000A168A153A270A168A11F500F6018312AE
:1024D200031329080A168A153A270A168A11F700E1
:1024E200F8017708F800F7017508770483120313DF
:1024F200A00076087804A1002908033E0A168A156E
:102502003A270A168A11F500F601831203132908E5
:10251200023E0A168A153A270A168A11F700F801AE
:102522007708F800F7017508770483120313A200F5
:1025320076087804A3002108A6002008A500230835
:10254200A8002208A7002808F4002708F30026089C
:10255200F2002508F1000800F501F11FB12AB22AA4
:10256200B92AF009F109F00A0319F10A0130F5005C
:10257200F31FBC2ABD2AC42AF209F309F20A03197D
:10258200F30A0130F506F601F70170087104031928
:10259200CB2ACC2A012B0130F400D82A01300310B7
:1025A200F00DF10DFF3E031DD02A0130F407F11F9B
:1025B200DB2ADC2ACF2A01300310F60DF70DFF3E8D
:1025C200031DDD2A71087302031DE92A70087202D5
:1025D200031CEC2AED2AF42A7008F2027108031C8B
:1025E200F303F302761401300310F10CF00CFF3EFA
:1025F200031DF52A0130F402031D002B012BDC2AF6
:1026020075080319052B062B0B2BF609F709F60A99
:102612000319F70A7708F1007608F00008000310A2
:1026220083120313640D650DEB006B08031D1A2B57
:102632001B2B242B0030E5000030E4000030E300C7
:102642000030E200852B6208E6006308E7006408B8
:10265200E8006508E9001F300310E90CE80CE70CFC
:10266200E60CFF3E031D2D2B6608EA00E417FF303F
:10267200E205FF30E305FF30E4050030E505963062
:10268200EB02EB1F452B462B5E2B6B08803A973EE5
:1026920003184C2B4D2B4E2B1B2B01300310E50C3A
:1026A200E40CE30CE20CFF3E031D4F2B0130EB0761
:1026B200031D5C2B5D2B4E2B752B20306B02031CF4
:1026C200632B642B702B1B2B0130E6000310E20DF1
:1026D200E30DE40DE50DE60B672B0130EB026B0811
:1026E200031D742B752B652B6A080319792B7A2B22
:1026F200852BE209E309E409E509E20A0319E30A81
:102702000319E40A0319E50A08007208730403199D
:102712008B2B8C2B922B72087304031D912B922B03
:10272200992B70080A128A1106200A168A111F2C88
:102732007208093EF40073080318013E003EF500DA
:10274200740884008317751C83130008F600840A3A
:102752000008F700760877040319B02BB12BE32B9E
:102762007208093EF40073080318013E003EF500AA
:10277200740884008317751C83130008F600840A0A
:102782000008F7007208023EF80073080318013EC1
:10279200003EF900780884008317791C831300082F
:1027A200FA00840A0008FB007B08803AFC007708E4
:1027B200803A7C02031DDF2B76087A020318E22B93
:1027C200E32B1F2C720884008317731C83130008E9
:1027D200F400840A0008F5007208023EF60073084D
:1027E2000318013E003EF700760884008317771C29
:1027F200831300087407F9007508F8000318F80A33
:10280200801F042CF8037808FA00790884008317E3
:102812007A1C8313700880007208023EF400730869
:102822000318013E003EF500740884008317751CEE
:10283200831301308007840A0318800A08000030DD
:102842007005F80000307105F90080307205FA0059
:102852007F307305FB007B087A0479047804031D3A
:10286200332C342C3C2C0030F3000030F2000030CA
:10287200F1000030F00000307405F80000307505FA
:10288200F90080307605FA007F307705FB007B087F
:102892007A0479047804031D4F2C502C582C0030F4
:1028A200F7000030F6000030F5000030F400F31FAE
:1028B2005B2C5C2C802C0030F8000030F9000030DA
:1028C200FA008030FB007008F8027108031C710FD7
:1028D2006B2C6C2CF9027208031C720F712C722C77
:1028E200FA027308031C730F772C782CFB027B0807
:1028F200F3007A08F2007908F1007808F000F71F77
:10290200832C842CA82C0030F8000030F900003011
:10291200FA008030FB007408F8027508031C750F7A
:10292200932C942CF9027608031C760F992C9A2C7E
:10293200FA027708031C770F9F2CA02CFB027B085E
:10294200F7007A08F6007908F5007808F40080307C
:10295200F3068030F70677087302031DBA2C760857
:102962007202031DBA2C75087102031DBA2C740879
:1029720070020318BD2CBE2CC02C0310C12C0314F2
:10298200080083120313A00020080319C92CCA2CC3
:10299200DE2CF91FCD2CCE2CDE2C7609A200770975
:1029A200A3007809A4007909A500A20A0319A30AC1
:1029B2000319A40A0319A50AE62C7908A5007808C8
:1029C200A4007708A3007608A200790878047704A7
:1029D2007604031DED2CEE2CF72C0030F9000030AC
:1029E200F8000030F7000030F600772D9630A10095
:1029F200052D0130A10701300310A50CA40CA30C76
:102A0200A20CFF3E031DFD2CFE302505031D0A2DE1
:102A12000B2DFA2C252D0130A1070130A207003021
:102A220003180130A307003003180130A407003057
:102A320003180130A50701300310A50CA40CA30C48
:102A4200A20CFF3E031D1D2DFF302505031D2A2D5F
:102A52002B2D0C2D372D0130A1020130FA0003106D
:102A6200A20DA30DA40DA50DFA0B302DA41B3A2D1A
:102A72003B2D412D023021020318402D412D2C2DDA
:102A82002118442D452D4D2DFF30A205FF30A30501
:102A92007F30A405FF30A5050310A10C2108FA0020
:102AA200FB01FC01FD0118300310FA0DFB0DFC0DBA
:102AB200FD0DFF3E031D552D7A08A2047B08A304D9
:102AC2007C08A4047D08A50420080319692D6A2D39
:102AD2006F2DF91F6D2D6E2D6F2DA5172508F9008D
:102AE2002408F8002308F7002208F60008008316DD
:102AF2000313530883120313EC0001300310EC0D8F
:102B0200FF3E031D7F2D03106C0D83160313AC00D3
:102B1200230883120313C7008316031322088312A8
:102B22000313C60083160313210883120313C5007F
:102B320083160313200883120313C4004130C30019
:102B42002030C2000030C1000030C0000A128A11D9
:102B5200A8240A168A11831203134308E5004208C7
:102B6200E4004108E3004008E2000A168A1110233B
:102B72000A168A1183120313630883160313A9002A
:102B820083120313620883160313A8002708831213
:102B92000313C70083160313260883120313C60008
:102BA20083160313250883120313C5008316031328
:102BB200240883120313C4004130C3002030C20032
:102BC2000030C1000030C0000A128A11A8240A167F
:102BD2008A11831203134308E5004208E400410806
:102BE200E3004008E2000A168A1110230A168A112D
:102BF20083120313630883160313AB0083120313B8
:102C0200620883160313AA002908F0002C080A168A
:102C12008A1555270A168A11831603132808F0000D
:102C22002C08013E0A168A1555270A168A118316A0
:102C320003132B08F0002C08023E0A168A155527AA
:102C42000A168A11831603132A08F0002C08033E81
:102C52000A168A1555270A168A110130831603139C
:102C6200D30714305302031C372E382E392ED301CA
:102C72001430520203183E2E3F2E412E0130D2074D
:102C8200080083120313E200831603135208031D84
:102C92004B2E4C2E572E003083120313D7000030D8
:102CA200D6000030D5000030D400152F003083123A
:102CB2000313E6000030E5000030E4000030E300DA
:102CC200831603135208831203136202031C6A2E33
:102CD2006B2E772E83160313520883120313D80028
:102CE200D9015808E0005908E1007E2E6208D80098
:102CF200D9015808E0005908E1006008E700E8013E
:102D0200DB2E68080A168A1151220A168A117408E3
:102D120083120313DF007308DE007208DD007108FE
:102D2200DC005C08F6005D08F7000030F71BFF309E
:102D3200F800F90001300A168A11C2240A168A1113
:102D4200790883120313AD007808AC007708AB0052
:102D52007608AA004130A9002030A8000030A70060
:102D62000030A6000A128A1118200A168A1183124C
:102D720003132908C3002808C2002708C100260837
:102D8200C0006608C7006508C6006408C50063087D
:102D9200C4000A128A15B0250A168A118312031377
:102DA2004308E6004208E5004108E4004008E30069
:102DB2000130E80767086802031CE02EE12E822E2C
:102DC2006708D800D901DA01DB015B08F9005A086B
:102DD200F8005908F7005808F60001300A168A115F
:102DE200C2240A168A11790883120313A9007808EB
:102DF200A8007708A7007608A6006608AD00650857
:102E0200AC006408AB006308AA000A128A111820F9
:102E12000A168A11831203132908D7002808D6003C
:102E22002708D5002608D4000800831203132208BD
:102E32008400000884000A168A110A200A168A11E0
:102E4200253A031D252F262FE62F22088400013064
:102E5200800783160313C901CA010030CF00FF3077
:102E6200CB00FF30CC008312031322088400000839
:102E7200A700270884000A168A110A200A168A1156
:102E8200643A0319452F462F522F270884000A1649
:102E92008A110A200A168A11693A031D512F522FEC
:102EA200DF2F2308840083130008A4000230800768
:102EB200240884000008A800840A0008A900220847
:102EC20084002708013E80002030AC00A91B6A2F35
:102ED2006C2F01306D2F0030A6000130AC022C089F
:102EE200903E84000A30F0000030F1002908F3001F
:102EF2002808F2000A168A11FA210A168A117108A4
:102F0200F7007008F6000A128A1107200A168A11C1
:102F12007608303E831780000A30F0000030F1005E
:102F2200831203132908F3002808F2000A168A11F3
:102F3200AD220A168A11710883120313A9007008C0
:102F4200A800280829040319A72FA82FAD2F2C08A1
:102F5200031DAC2FAD2F6E2F2C080319B12FB22FEA
:102F6200D82F26080319B62FB72FD82F0130AC025D
:102F72002C08903E84002D3083178000D82F2C0817
:102F8200903E840083170008A400A5012408F000E5
:102F92002508F1002008F2002108F3000A168A1120
:102FA20086230A168A11013083120313AC072030DC
:102FB2002C06031DDD2FDE2FC02FFF2F83120313DC
:102FC2002208840001308007FF2F220884000008B5
:102FD20084000A168A110A200A168A11A400A50181
:102FE2002408F0002508F1002008F2002108F3006F
:0E2FF2000A168A1186230A168A11DF2F08009C
:103E2E008316031305108312031305140800640090
:103E3E008001840A04060319003404061F2F83161A
:103E4E000313111483128C1D2D2F2E2F292F8C113D
:103E5E00080083160313111583128C1D372F382F6C
:103E6E00332F8C110800F0007008831203178D0099
:103E7E00831603178C130C14831203170C080800F7
:103E8E00F00070088312031393008C1D4F2F502FD8
:103E9E004C2F8C118316031311080800F1008316A2
:103EAE0003178C185B2F5C2F562F71088312031784
:103EBE008D0070088C00831603178C130C158B1352
:103ECE0055308D00AA308D008C148B178C18702FE6
:103EDE00712F6D2F0C110800F00083160313871538
:103EEE00071670089400283083120313940083166B
:103EFE000313910180307006031D862F872F8A2FA2
:103F0E0031309300912F7008031D8E2F8F2F912F1C
:103F1E000C3093000800803083120313DD06610815
:103F2E00C3006008C2005F08C1005E08C0005D08E3
:103F3E00C7005C08C6005B08C5005A08C4000A1218
:103F4E008A15B0250A168A15831203134308DD005D
:103F5E004208DC004108DB004008DA000800F401EA
:103F6E00F501701CBB2FBC2FC22F7208F40703186B
:103F7E00F50A7308F50701300310F20DF30DFF3E3D
:103F8E00031DC32F01300310F10CF00CFF3E031D77
:103F9E00CA2F70087104031DD52FD62FB82F7508A0
:103FAE00F1007408F0000800831203132F08FD00BF
:103FBE00EF2F831203132D08A0002E08A1007D30D1
:103FCE00A2003008A3000A168A1116270A168A15AF
:103FDE007D0884000A168A110A200A168A15003AEC
:103FEE00031DFA2FFB2FE02F83120313AD01AE0139
:023FFE000800B9
:02400E00E223AB
:00000001FF
