:060000000A128A11E72F2D
:100010000800031083120313640D650DEB006B08D9
:10002000031D132814281D280030E5000030E400CB
:100030000030E3000030E2007E286208E60063083A
:10004000E7006408E8006508E9001F300310E90CC8
:10005000E80CE70CE60CFF3E031D26286608EA00C4
:10006000E417FF30E205FF30E305FF30E405003020
:10007000E5059630EB02EB1F3E283F2857286B081A
:10008000803A973E0318452846284728142801300F
:100090000310E50CE40CE30CE20CFF3E031D4828C2
:1000A0000130EB07031D5528562847286E282030BD
:1000B0006B02031C5C285D28692814280130E600C7
:1000C0000310E20DE30DE40DE50DE60B60280130B1
:1000D000EB026B08031D6D286E285E286A08031961
:1000E000722873287E28E209E309E409E509E20A97
:1000F0000319E30A0319E40A0319E50A0800831245
:1001000003132D08B7008030B7052D08AE002E0769
:10011000BE00AC1F8C288D288E283E143E08031983
:1001200092289328A3283E0A031D97289828A028E0
:100130000030AD000030AC000030AB000030AA0051
:10014000AC17AD01AB280030AD000030AC00003082
:10015000AB000030AA0029088039B7062908AE0094
:100160002E07BF00A81FB528B628B7283F143F08A0
:100170000319BB28BC28CC283F0A031DC028C1286E
:10018000C9280030A9000030A8000030A7000030C6
:10019000A600A817A901D4280030A9000030A800A3
:1001A0000030A7000030A6002908280427042604F0
:1001B000031DDB28DC28F3280030AD000030AC0044
:1001C0000030AB000030AA008030AC047F30AD04BA
:1001D0003708AD042D08A9002C08A8002B08A7009B
:1001E0002A08A600482A3E08031DF728F8280129F6
:1001F0000030A9000030A8000030A7000030A600A1
:10020000482A3E08AE00AF012F08B1003F082E0279
:10021000B000031CB10330087F3EB800310803185A
:10022000013E003EB9002D08B6002C08B5002B0891
:10023000B4002A08B3000030AD000030AC0000303C
:10024000AB000030AA000030BD000030BC00003020
:10025000BB000030BA00BF0175293F0803193129DE
:10026000322952290130AE000310B30DB40DB50D83
:10027000B60DAE0B34290130AE000310AA0DAB0D44
:10028000AC0DAD0DAE0B3D29BD1F472948294929AD
:100290002A140130AE000310BA0DBB0DBC0DBD0D0C
:1002A000AE0B4B2929083602031D602928083502A8
:1002B000031D602927083402031D60292608330224
:1002C000031C6329642973293D172608B3022708F4
:1002D000031C270FB4022808031C280FB5022908A5
:1002E000031C290FB6020130BF071A303F02031C5E
:1002F0007A297B292D29360835043404330403195F
:1003000082298329A2293A14A2290130AE000310C0
:10031000AA0DAB0DAC0DAD0DAE0B8729BD1F9129FC
:10032000922993292A140130AE000310BA0DBB0D97
:10033000BC0DBD0DAE0B9529FF30B8070318B90AE7
:10034000FF30B907AC1FA529A6298529BF01BD1F0C
:10035000AA29AB29C729FF303A05AE00FF303B057B
:10036000AF00FF303C05B0007F303D05B1003108E3
:1003700030042F042E040319BE29BF29C2290130DD
:10038000BF00C7292A1CC529C629C729BF293F087C
:100390000319CB29CC29FD290130AA070030031805
:1003A0000130AB07003003180130AC0700300318F0
:1003B0000130AD072D1CDD29DE29FD292A08AE00FC
:1003C0002B08AF002C08B0002D08B1000130B2009E
:1003D000310DB10CB00CAF0CAE0CB20BE8293108EA
:1003E000AD003008AC002F08AB002E08AA00013089
:1003F000B8070318B90A0030B9073908803AFF0076
:1004000080307F02031D062AFF303802031C092AB0
:100410000A2A182AFF3083120313B8000030B900EB
:100420000030AD000030AC000030AB000030AA005E
:10043000831203133908803AFF0080307F02031DC6
:10044000232A013038020318262A272A342A831245
:100450000313B801B9010030AD000030AC0000302A
:10046000AB000030AA00B701831203133808BE00A6
:100470003E1C3B2A3C2A3E2AAC17402A7F30AC0562
:100480003E08AE0003102E0CAD003708AD04EA287C
:1004900008007308F8008030F8057308831203130E
:1004A000A0002007FA00F21F562A572A582A7A1469
:1004B0007A0803195C2A5D2A6D2A7A0A031D612ACB
:1004C000622A6A2A0030F3000030F2000030F100A6
:1004D0000030F000F217F301752A0030F30000300D
:1004E000F2000030F1000030F0007708F9008030B1
:1004F000F9057908780603197E2A7F2A802A781759
:100500007708A0002007F900F61F872A882A892A81
:100510007914790803198D2A8E2A9E2A790A031DD7
:10052000922A932A9B2A0030F7000030F600003010
:10053000F5000030F400F617F701A62A0030F700A6
:100540000030F6000030F5000030F4007A0879023F
:100550000318AB2AAC2AD02A781FAF2AB02AB22AB5
:100560008030F8067A08FB007908FA007B08F90069
:100570007008FB007408F0007B08F4007108FB00B1
:100580007508F1007B08F5007208FB007608F200A0
:100590007B08F6007308FB007708F3007B08F70080
:1005A000FB017908A000A1012108A3007A0820021C
:1005B000A200031CA3032308803AFF0080307F02BF
:1005C000031DE42A1A302202031CE72AE82A1F2B03
:1005D0007308720471047004031DEF2AF12A0130BC
:1005E000F22A0030FB000030F3000030F20000304F
:1005F000F1000030F0007908FA00252B7B1C012B5C
:10060000022B0B2B7B0883120313A0000310200C7A
:100610000138FB000D2B0310FB0C701C102B112B51
:10062000122BFB17013083120313A000730DF30C80
:10063000F20CF10CF00CA00B162B0130FA07790824
:100640007A02031C242B252BFE2A781B282B292B0E
:10065000742B7A08031D2D2B2E2B372B0030F30023
:100660000030F2000030F1000030F000A42C7408DB
:10067000F007750803110318013E0319402BF10719
:10068000760803110318013E0319472BF207770878
:1006900003110318013E03194E2BF307731C512B52
:1006A000522B2C2C7B1C552B562B5F2B7B0883123B
:1006B0000313A0000310200C0138FB00612B031072
:1006C000FB0C701C642B652B662BFB17013083120F
:1006D0000313A000730DF30CF20CF10CF00CA00B43
:1006E0006A2B0130FA072C2C7308803AFF00770838
:1006F000803A7F02031D862B76087202031D862B2B
:1007000075087102031D862B740870020318892B6B
:100710008A2BE32BFF3083120313A000FF30A100CC
:10072000FF30A200FF30A3007408A4007508A500E4
:100730007608A6007708A7007008A4027108031CB9
:10074000710FA32BA42BA5027208031C720FA92BF7
:10075000AA2BA6027308031C730FAF2BB02BA702A2
:100760002408A00725080318250FB72BB82BA107CD
:1007700026080318260FBD2BBE2BA2072708031837
:10078000270AA3072308F3002208F2002108F1003A
:100790002008F0008030F8067B03FF3AFB007B085E
:1007A000031DD32BD42BF12B0130F007003003189D
:1007B0000130F107003003180130F2070030031850
:1007C0000130F307F12B7408F0027508031C750F54
:1007D000F1027608031C760FF2027708031C770FEC
:1007E000F3027308720471047004031DF82BF92BD3
:1007F000282C7B08031DFD2BFE2B282C0030F3003A
:100800000030F2000030F1000030F000A42C013084
:1008100083120313A0000310F00DF10DF20DF30D80
:10082000A00B0B2CFB1F152C162C172C70147B1CEB
:100830001A2C1B2C1F2C03147B0DFB00212C0310E6
:10084000FB0D7A080319252C262C282C0130FA02DE
:10085000F21F2B2C2C2C072CF901FB1F302C312CD8
:100860003F2C7B087F390319362C372C3A2C01306A
:10087000F9003F2C701C3D2C3E2C3F2C372C790866
:100880000319432C442C782C0130F0070030031856
:100890000130F107003003180130F207003003186F
:1008A0000130F307731C552C562C782C70088312DA
:1008B0000313A0007108A1007208A2007308A3002E
:1008C0000130A400230DA30CA20CA10CA00CA40BBE
:1008D000622C2308F3002208F2002108F10020080E
:1008E000F0007A0A0319752C762C782C0130FA075F
:1008F0007A0A03197C2C7D2C822C7A08031D812C0A
:10090000822C902C0030F3000030F2000030F10017
:100910000030F0007A08031D8E2C8F2C902CF801EB
:100920007A1C932C942C962CF217982C7F30F2057D
:100930007A0883120313A0000310200CF300F81FA1
:10094000A22CA32CA42CF317080083120313430832
:10095000CD008030CD054308C8004807D300C21F32
:10096000B22CB32CB42C531453080319B82CB92C43
:10097000C82C530A031DBD2CBE2CC62C0030C3004E
:100980000030C2000030C1000030C000C217D02CBF
:100990000030C3000030C2000030C1000030C00091
:1009A00047088039CD064708C8004807D200C61F4F
:1009B000DA2CDB2CDC2C521452080319E02CE12C2D
:1009C000F02C520A031DE52CE62CEE2C0030C7005B
:1009D0000030C6000030C5000030C400C617F82C37
:1009E0000030C7000030C6000030C5000030C40031
:1009F00052080319FC2CFD2C022D5308031D012D58
:100A0000022D0B2D0030C3000030C2000030C100A9
:100A10000030C000E62F4008F00046080A168A1190
:100A200063270A128A11710883120313D900700810
:100A3000D8005808C800C901CA01CB014B08D10031
:100A40004A08D0004908CF004808CE005908C8001D
:100A5000C901CA01CB014B08D7004A08D600490892
:100A6000D5004808D4004108F00045080A168A114C
:100A700063270A128A11710883120313D9007008C0
:100A8000D8005808C800C901CA01CB014808CE07E0
:100A9000490803110318013E03194F2DCF074A08D7
:100AA00003110318013E0319562DD0074B080311FB
:100AB0000318013E03195D2DD1075908C800C9016B
:100AC000CA01CB014808D407490803110318013EA5
:100AD00003196B2DD5074A0803110318013E0319AA
:100AE000722DD6074B0803110318013E0319792D07
:100AF000D7074208F00044080A168A1163270A1231
:100B00008A11710883120313D9007008D80058089D
:100B1000C800C901CA01CB014808CE074908031122
:100B20000318013E0319952DCF074A080311031836
:100B3000013E03199C2DD0074B0803110318013EF9
:100B40000319A32DD1075908C800C901CA01CB0157
:100B50004808D407490803110318013E0319B12DB1
:100B6000D5074A0803110318013E0319B82DD6070B
:100B70004B0803110318013E0319BF2DD707083096
:100B8000C8000310CE0DCF0DD00DD10DC80BC12D57
:100B90004108F00044080A168A1163270A128A11D4
:100BA000710883120313D9007008D8005808C800D0
:100BB0005908C900CA01CB014808CE0749080311EA
:100BC0000318013E0319E52DCF074A080311031846
:100BD000013E0319EC2DD0074B0803110318013E09
:100BE0000319F32DD1074008F00045080A168A11B1
:100BF00063270A128A11710883120313D90070083F
:100C0000D8005808C8005908C900CA01CB014808D3
:100C1000CE07490803110318013E0319102ECF0710
:100C20004A0803110318013E0319172ED0074B0879
:100C300003110318013E03191E2ED1070830C80006
:100C40000310CE0DCF0DD00DD10DC80B202E4008B6
:100C5000F00044080A168A1163270A128A117108E3
:100C600083120313D9007008D8005808C800590827
:100C7000C900CA01CB014808CE074908031103186F
:100C8000013E0319442ECF074A0803110318013E01
:100C900003194B2ED0074B0803110318013E03190B
:100CA000522ED1074108F00046080A168A11632720
:100CB0000A128A11710883120313D9007008D80030
:100CC0005808C8005908C900CA01CB014808D40710
:100CD000490803110318013E03196F2ED5074A086E
:100CE00003110318013E0319762ED6074B08031192
:100CF0000318013E03197D2ED7074208F00045086E
:100D00000A168A1163270A128A11710883120313C3
:100D1000D9007008D8005808C8005908C900CA018D
:100D2000CB014808D407490803110318013E0319F1
:100D30009A2ED5074A0803110318013E0319A12E64
:100D4000D6074B0803110318013E0319A82ED70735
:100D50004208F00046080A168A1163270A128A110F
:100D6000710883120313D9007008D8005808C8000E
:100D70005908C900CA01CB0108300310C80DC90DBC
:100D8000CA0DCB0DFF3E031DBD2E4808D4074908F0
:100D900003110318013E0319CE2ED5074A0803118B
:100DA0000318013E0319D52ED6074B08031103186B
:100DB000013E0319DC2ED7074E08C8004F08C900B2
:100DC0005008CA005108CB0018300310CB0CCA0CD5
:100DD000C90CC80CFF3E031DE52E4808D40749087E
:100DE00003110318013E0319F62ED5074A08031113
:100DF0000318013E0319FD2ED6074B0803110318F3
:100E0000013E0319042FD7070830C8000310CE0D88
:100E1000CF0DD00DD10DC80B062F53085207C800B7
:100E2000C901C90D4808823ED80049080318013E8F
:100E3000FF3ED900382F0130C8000310D40DD50D66
:100E4000D60DD70DC80B1D2FD11F272F282F292FC7
:100E500054140130C8000310CE0DCF0DD00DD10DAC
:100E6000C80B2B2FFF30D8070318D90AFF30D9073A
:100E7000D61F3B2F3C2F1B2FD201D11F402F412FBC
:100E80005D2FFF304E05C800FF304F05C900FF3011
:100E90005005CA007F305105CB004B084A04490475
:100EA00048040319542F552F582F0130D2005D2FBD
:100EB000541C5B2F5C2F5D2F552F52080319612F97
:100EC000622F932F0130D407003003180130D5076B
:100ED000003003180130D607003003180130D7075F
:100EE000571C732F742F932F5408C8005508C9003E
:100EF0005608CA005708CB000130CC004B0DCB0C74
:100F0000CA0CC90CC80CCC0B7E2F4B08D7004A0862
:100F1000D6004908D5004808D4000130D807031886
:100F2000D90A0030D9075908803AFF0080307F0283
:100F3000031D9C2FFF305802031C9F2FA02FAB2FA7
:100F40007F3083120313D7008030D6000030D500E5
:100F50000030D400DC2F831203135908803AFF00BD
:100F600080307F02031DB62F013058020318B92FBD
:100F7000BA2FC62F003083120313D7000030D600DB
:100F80000030D5000030D400CD01DC2F83120313D4
:100F90005808D300FF30D405FF30D5057F30D60583
:100FA0000030D705531CD52FD62FD72FD61753086F
:100FB000C8000310480CD7004D08D7045708C300D9
:100FC0005608C2005508C1005408C000080083122A
:100FD0000313EF018313A0308400CA300A168A116C
:100FE0000D260A128A11831790308400B0300A1639
:100FF0008A110D260A128A1183010A128A15572DA9
:10100000FF1B0A2883137F1883170008840A03191B
:10101000FF0A080008308A000408840A82070034A6
:1010200020345234653469346E34743465346E342B
:10103000743461346E3464346F342E342E3400349E
:10104000203443346834653463346B34203463347F
:101050006F346E346534783469346F346E340034F0
:1010600020344534723472346F3472342034443452
:1010700048345434323432340034203448346F34F9
:101080006C34643420346F346E342E342E342E3469
:101090000034483475346D3420343A34203400340C
:1010A000543465346D3470343A34203400342D3483
:0C10B000253464342E34253464340034BC
:1010C000F3007308F400F030F4057308F200033005
:1010D0000310F20DFF3E031D68280310720DF5008A
:1010E000F030F5050A168A1115260A128A154E30B7
:1010F0000A168A1155260A128A1574080D380A161E
:101100008A1155260A128A15740809380A168A1196
:1011100055260A128A1575080D380A168A115526A1
:101120000A128A15750809380A168A1155260A12F4
:101130008A150A168A111F260A128A150800F50157
:10114000F31FA328A428AB28F209F309F20A031914
:10115000F30A0130F500F11FAE28AF28B428F009DA
:10116000F109F00A0319F10A700871040319B9288A
:10117000BA28E7280130F400C62801300310F00D2A
:10118000F10DFF3E031DBE280130F407F11FC928F1
:10119000CA28BD2871087302031DD0287008720286
:1011A000031CD328D428DA287008F2027108031C23
:1011B000F303F30201300310F10CF00CFF3E031DAA
:1011C000DB280130F402031DE628E728CA28750849
:1011D0000319EB28EC28F128F209F309F20A0319A4
:1011E000F30A7308F1007208F0000800F501F11F1E
:1011F000FA28FB280229F009F109F00A0319F10A7B
:101200000130F500F31F052906290D29F209F3091C
:10121000F20A0319F30A0130F506F601F701700826
:1012200071040319142915294A290130F4002129D0
:1012300001300310F00DF10DFF3E031D192901309F
:10124000F407F11F24292529182901300310F60D70
:10125000F70DFF3E031D262971087302031D322975
:1012600070087202031C352936293D297008F202E4
:101270007108031CF303F302761401300310F10C20
:10128000F00CFF3E031D3E290130F402031D4929E5
:101290004A292529750803194E294F295429F60989
:1012A000F709F60A0319F70A7708F1007608F00043
:1012B00008007208730403195E295F296529720802
:1012C0007304031D642965296C2970080A128A11A8
:1012D00008200A128A15F2297208093EF4007308E0
:1012E0000318013E003EF500740884008317751C46
:1012F00083130008F600840A0008F70076087704D4
:10130000031983298429B6297208093EF400730859
:101310000318013E003EF500740884008317751C15
:1013200083130008F600840A0008F7007208023EE2
:10133000F80073080318013E003EF90078088400A5
:101340008317791C83130008FA00840A0008FB0045
:101350007B08803AFC007708803A7C02031DB229A2
:1013600076087A020318B529B629F2297208840092
:101370008317731C83130008F400840A0008F50027
:101380007208023EF60073080318013E003EF700A3
:10139000760884008317771C831300087407F9000C
:1013A0007508F8000318F80A801FD729F803780891
:1013B000FA007908840083177A1C83137008800070
:1013C0007208023EF40073080318013E003EF50067
:1013D000740884008317751C831301308007840A06
:1013E0000318800A080000307005F800003071050D
:1013F000F90080307205FA007F307305FB007B082E
:101400007A0479047804031D062A072A0F2A00307B
:10141000F3000030F2000030F1000030F000003046
:101420007405F80000307505F90080307605FA0083
:101430007F307705FB007B087A0479047804031D6C
:10144000222A232A2B2A0030F7000030F600003031
:10145000F5000030F400F31F2E2A2F2A532A003003
:10146000F8000030F9000030FA008030FB0070080E
:10147000F8027108031C710F3E2A3F2AF902720814
:10148000031C720F442A452AFA027308031C730FC7
:101490004A2A4B2AFB027B08F3007A08F2007908FB
:1014A000F1007808F000F71F562A572A7B2A0030EF
:1014B000F8000030F9000030FA008030FB007408BA
:1014C000F8027508031C750F662A672AF902760868
:1014D000031C760F6C2A6D2AFA027708031C770F1B
:1014E000722A732AFB027B08F7007A08F600790853
:1014F000F5007808F4008030F3068030F7067708AE
:101500007302031D8D2A76087202031D8D2A750849
:101510007102031D8D2A740870020318902A912A03
:10152000932A0310942A0314080083120313A000C3
:10153000200803199C2A9D2AB12AF91FA02AA12A52
:10154000B12A7609A2007709A3007809A4007909D5
:10155000A500A20A0319A30A0319A40A0319A50ADC
:10156000B92A7908A5007808A4007708A3007608AE
:10157000A2007908780477047604031DC02AC12AE2
:10158000CA2A0030F9000030F8000030F7000030BF
:10159000F6004A2B9630A100D82A0130A10701306D
:1015A0000310A50CA40CA30CA20CFF3E031DD02A13
:1015B000FE302505031DDD2ADE2ACD2AF82A01305A
:1015C000A1070130A207003003180130A307003043
:1015D00003180130A407003003180130A5070130BB
:1015E0000310A50CA40CA30CA20CFF3E031DF02AB3
:1015F000FF302505031DFD2AFE2ADF2A0A2B0130B4
:10160000A1020130FA000310A20DA30DA40DA50D37
:10161000FA0B032BA41B0D2B0E2B142B02302102D3
:101620000318132B142BFF2A2118172B182B202BF0
:10163000FF30A205FF30A3057F30A405FF30A505CC
:101640000310A10C2108FA00FB01FC01FD01183078
:101650000310FA0DFB0DFC0DFD0DFF3E031D282BA5
:101660007A08A2047B08A3047C08A4047D08A504CE
:10167000200803193C2B3D2B422BF91F402B412BFB
:10168000422BA5172508F9002408F8002308F700C5
:101690002208F600080083120313220884000008C1
:1016A00084000A128A150A200A128A15253A031D97
:1016B0005A2B5B2B1B2C22088400013080078316D9
:1016C0000313A501A6010030A900FF30A700FF30D9
:1016D000A80083120313220884000008A70027082B
:1016E00084000A128A150A200A128A15643A03191C
:1016F0007A2B7B2B872B270884000A128A150A2055
:101700000A128A15693A031D862B872B142C23088D
:10171000840083130008FF00023080077F088400E4
:101720000008A800840A0008A900220884002708ED
:10173000013E80002030AC00A91B9F2BA12B013063
:10174000A22B0030A6000130AC022C08903E840091
:101750000A30F0000030F1002908F3002808F200F8
:101760000A128A159F200A128A157108F70070085C
:10177000F6000A168A1144260A128A157608303EA7
:10178000831780000A30F0000030F1008312031349
:101790002908F3002808F2000A128A15F6200A1216
:1017A0008A15710883120313A9007008A80028087D
:1017B00029040319DC2BDD2BE22B2C08031DE12B64
:1017C000E22BA32B2C080319E62BE72B0D2C260864
:1017D0000319EB2BEC2B0D2C0130AC022C08903EA6
:1017E00084002D30831780000D2C2C08903E84003F
:1017F00083170008A400A5012408F0002508F100C3
:101800002008F2002108F3000A128A1559210A1251
:101810008A15013083120313AC0720302C06031DF8
:10182000122C132CF52B342C831203132208840062
:1018300001308007342C22088400000884000A123A
:101840008A150A200A128A15A400A5012408F000AE
:101850002508F1002008F2002108F3000A128A1579
:1018600059210A128A15142C080083160313CF017C
:101870004D08F3004C08F2004B08F1004A08F00054
:101880000030F7000030F6000030F5000030F400C2
:101890000A128A15F3210A128A150318502C512CAA
:1018A0006C2C013083160313CF004D08F3004C0855
:1018B000F2004B08F1004A08F0000A168A112926A6
:1018C0000A128A15730883160313CD007208CC0020
:1018D0007108CB007008CA00831603134D088312E9
:1018E0000313E500831603134C0883120313E4006B
:1018F000831603134B0883120313E30083160313A9
:101900004A0883120313E2000A128A1109200A12FC
:101910008A1583120313630883160313D3008312FB
:101920000313620883160313D2004D0883120313B6
:10193000C700831603134C0883120313C6008316D3
:1019400003134B0883120313C500831603134A08BD
:1019500083120313C4004130C3002030C2000030A2
:10196000C1000030C0000A128A11A5240A128A158B
:10197000831203134308E1004208E0004108DF003E
:101980004008DE000A30F2000030F3008316031333
:101990005308F1005208F0000A168A11CD260A12E7
:1019A0008A157008F6007108F7000030F71BFF3049
:1019B000F800F90001300A128A1595220A128A15D8
:1019C000790883120313DD007808DC007708DB0058
:1019D0007608DA000A168A11A9260A128A158312D5
:1019E00003135D08E5005C08E4005B08E3005A08A7
:1019F000E2000A128A1109200A128A1583120313BF
:101A0000630883160313D10083120313620883163D
:101A10000313D0004F0803190E2D0F2D332D4E0840
:101A200083120313B1004830B20083160313530826
:101A300083120313B4008316031352088312031393
:101A4000B30083160313510883120313B6008316E1
:101A50000313500883120313B5000A168A11862651
:101A60000A128A15562D4E0883120313B10049300D
:101A7000B20083160313530883120313B4008316B2
:101A80000313520883120313B30083160313510880
:101A900083120313B6008316031350088312031333
:101AA000B5000A168A1186260A128A1508008316BE
:101AB0000313D401831603178801890180300A16A5
:101AC0008A1167260A128A15033083120313EE0067
:101AD0008A30ED005530EC00EC0B6C2DED0B6C2DCD
:101AE000EE0B6C2D0A168A118A270A128A1502300B
:101AF00083120313EE004530ED00A930EC00EC0B2F
:101B00007F2DED0B7F2DEE0B7F2D0A168A110626F9
:101B10000A128A15F601F60A02300A168A111727E8
:101B20000A128A152E30F6008030F7000A168A1144
:101B30003D270A128A15333083120313EE00BB309F
:101B4000ED00DF30EC00EC0BA32DED0BA32DEE0B25
:101B5000A32DD93083120313DA00D530DB000A122B
:101B60008A1595260A128A15003A0319B82DB92D3F
:101B7000462E83160313D4015808CD005708CC0015
:101B80005608CB005508CA00BA30CE000A128A1592
:101B900035240A128A15831603135C08CD005B08EE
:101BA000CC005A08CB005908CA00AA30CE000A124D
:101BB0008A1535240A128A150A168A1134260A1241
:101BC0008A150D3083120313ED00FB30EC00EC0B93
:101BD000E72DED0BE72DF601F60A01300A168A1102
:101BE00017270A128A15523083120313EC00EC0BEC
:101BF000F72D00004130F6008030F7000A168A11F8
:101C00003D270A128A15BA30F6000030F7000A168E
:101C10008A113D270A128A1520300A128A1560207F
:101C20000A128A1543300A128A1560200A128A1590
:101C30000230F60001300A168A1117270A128A1597
:101C4000523083120313EC00EC0B242E00003A30C8
:101C5000F6008030F7000A168A113D270A128A150D
:101C6000AA30F6000030F7000A168A113D270A1242
:101C70008A1520300A128A1560200A128A1525302A
:101C80000A128A1560200A128A15832E01308316E3
:101C90000313D4070A168A1134260A128A15F6018C
:101CA000F60A01300A168A1117270A128A152130FE
:101CB000F6008030F7000A168A113D270A128A15AD
:101CC0000230F60002300A168A1117270A128A1506
:101CD000033083160313540203186F2E702E7A2ECE
:101CE0000130F6008030F7000A168A113D270A12EB
:101CF0008A15832E1130F6008030F7000A168A11FB
:101D00003D270A128A15403083120313EE006A3011
:101D1000ED009730EC00EC0B8B2EED0B8B2EEE0BC9
:101D20008B2EA92D0A128A11002883120313051085
:101D3000753083120313DD00E030DC00DC0B9E2ED7
:101D4000DD0B9E2E00008312031305144130831215
:101D50000313DC00DC0BAA2EAD2E8316031305142F
:101D600083120313051CB52EB62EBE2E8316031345
:101D700005108312031305140030FF2F84308312E3
:101D80000313DC00DC0BC22E0000831203130518C2
:101D9000CA2ECB2ED22E83160313051083120313E3
:101DA0000514BC2E843083120313DC00DC0BD62E0A
:101DB000000083120313EB01E201EA01051CE12E8E
:101DC000E22EDE2E393083120313DC00DC0BE62E0C
:101DD000000083120313051CEE2EEF2EFC2E0130A3
:101DE000DC006A08073C013EF72E0310DC0DFF3EC5
:101DF000031DF52E5C08E2040518FF2E002FFC2EB3
:101E00000130EA0708306A02031C072F082FDE2E74
:101E10006B08633E84006208831380000130EB0787
:101E200005306B02031C152F162FDC2E83160313AF
:101E3000051083120313051465086407DC006608A7
:101E40005C07DD0063085D076706031D282F292F47
:101E5000BC2E6408DC00DD016308DE00DF015E08E3
:101E6000DF00DE015C085E04E0005D085F04E10065
:101E70006608DC00DD016508DE00DF015E08DF00CA
:101E8000DE015C085E04E8005D085F04E900E91F0C
:101E90004A2F4B2F982FBF30C3008030C200003034
:101EA000C1000030C0004130A9002030A80000303F
:101EB000A7000030A600FF306805F6007F306905F6
:101EC000F700F801F90100300A128A1595220A126A
:101ED0008A15790883120313AD007808AC007708DF
:101EE000AB007608AA000A128A117F200A128A150E
:101EF000831203132908C7002808C6002708C50055
:101F00002608C4000A128A11A5240A128A1583120F
:101F100003135A088400400883138000840A410890
:101F20008000840A42088000840A43088000CB2F86
:101F30004130A9002030A8000030A7000030A600E2
:101F40006808F6006908F700F801F90100300A1284
:101F50008A1595220A128A15790883120313AD0097
:101F60007808AC007708AB007608AA000A128A113C
:101F70007F200A128A15831203135A088400260848
:101F800083138000840A27088000840A28088000C0
:101F9000840A290880004130A9002030A8000030C0
:101FA000A7000030A6006008F6006108F700F801FD
:101FB000F90100300A128A1595220A128A15790849
:101FC00083120313AD007808AC007708AB007608E5
:101FD000AA000A128A117F200A128A15831203139B
:101FE0005B088400260883138000840A2708800089
:101FF000840A28088000840A29088000013008002B
:102C0C0083160313051083120313051408006400C4
:102C1C008001840A04060319003404060E2E831660
:102C2C000313111483128C1D1C2E1D2E182E8C11A7
:102C3C00080083160313111583128C1D262E272EC4
:102C4C00222E8C110800730872047104700403198D
:102C5C00302E312E332E8030F306080001300A1648
:102C6C008A11C1270A168A110D30F700FB30F600C5
:102C7C00F60B3E2EF70B3E2E432E0800F71B472E6D
:102C8C00482E492E542E7609F8007709F900F80AD7
:102C9C000319F90A7808F6007908F7000800F10022
:102CAC0071088312031393008C1D5D2E5E2E5A2E19
:102CBC008C1183160313110EF000F00C700C0139FB
:102CCC000800F0008316031387150716700894008C
:102CDC002830831203139400831603139101803060
:102CEC007006031D7A2E7B2E7E2E31309300852E9E
:102CFC007008031D822E832E852E0C309300080045
:102D0C00333083120313B8003108B9000030BA0015
:102D1C00BB01BC01C201C3013930AD000030AE00B3
:102D2C003208AF003830B0000A168A11F2260A16A3
:102D3C008A11831203133B083107B700370884004C
:102D4C00831380010800803083120313DD066108B1
:102D5C00F3006008F2005F08F1005E08F0005D0807
:102D6C00F7005C08F6005B08F5005A08F4000A123C
:102D7C008A1149220A168A11730883120313DD0083
:102D8C007208DC007108DB007008DA000800F4013E
:102D9C00F501701CD22ED32ED92E7208F40703180D
:102DAC00F50A7308F50701300310F20DF30DFF3E21
:102DBC00031DDA2E01300310F10CF00CFF3E031D45
:102DCC00E12E70087104031DEC2EED2ECF2E75082C
:102DDC00F1007408F0000800831203132F08FD00A3
:102DEC00062F831203132D08A0002E08A1007D309E
:102DFC00A2003008A3000A128A154B230A168A1166
:102E0C007D0884000A128A150A200A168A11003AD3
:102E1C00031D112F122FF72E83120313AD01AE01D8
:102E2C000800F700242FF801322F4030F800322F21
:102E3C001430F800322F5430F800322F7608013A53
:102E4C000319192F033A03191B2F013A03191E2FCB
:102E5C00073A0319212F192F7708FF3EF807780836
:102E6C0080380A168A11C1270A168A110800522FB7
:102E7C007708FF00760884000A128A1500200A16CB
:102E8C008A110A128A1560200A168A110130F60777
:102E9C000318F70A0030F707770883120313FF00B3
:102EAC00760884000A128A1500200A168A11003A44
:102EBC00031D612F622F3E2F0800F800F401F5016D
:102ECC007008F200F3017208F6007308F700781C22
:102EDC00702F712F772F7608F4070318F50A7708EF
:102EEC00F50701300310F60DF70DFF3E031D782F8B
:102EFC000310F80C7808031D842F852F6D2F75088F
:102F0C00F1007408F00008008230F700DD30F600A4
:102F1C00F60B8E2FF70B8E2F932F33300A168A1148
:102F2C00C1270A168A1132300A168A11C1270A16CD
:102F3C008A1128300A168A11C1270A168A110C30F8
:102F4C000A168A11C1270A168A1106300A168A1126
:102F5C00C1270A168A1101300A168A11C1270A16CE
:102F6C008A111430F7007930F600F60BBB2FF70BF3
:102F7C00BB2FC02F0800F3007308F400F030F405E9
:102F8C007308F20003300310F20DFF3E031DC92F2E
:102F9C000310720DF500F030F5050A168A1115268E
:102FAC000A168A114E300A168A1155260A168A11EB
:102FBC0074080C380A168A1155260A168A117408D8
:102FCC0008380A168A1155260A168A1175080C3803
:102FDC000A168A1155260A168A11750808380A1617
:102FEC008A1155260A168A110A168A111F260A16E4
:042FFC008A1108002E
:02400E00E223AB
:00000001FF
