:100000000A128A11EB2FFF1B0D2883137F18831709
:100010000008840A0319FF0A080000308A00040857
:10002000840A8207003446346534633468346134AA
:100030003A3425343034323464342F342534303477
:10004000323464342F342534303432346434003460
:1000500048346F34723461343A34203425343034C7
:10006000323464343A3425343034323464343A34FB
:10007000253430343234643400342034203449346C
:100080006E3469346334693461346E3464346F348B
:0C0090002E342E342E3420342034003462
:1000A4000800F200F101721C582859285B287008D6
:1000B400F1070310F00D0310F20C7208031D6328FE
:1000C40064285528710808007D282508FF002408A5
:1000D40084000A128A1103200A128A110A128A1150
:1000E40027220A128A11013083120313A40703186A
:1000F400A50A0030A507831203132508FF0024086E
:1001040084000A128A1103200A128A11003A031D7C
:100114008C288D286728080083120313A601A701E1
:10012400AB282508A300A4012308F0002408F1004B
:100134002108F2002208F3000A128A1198240A12F4
:100144008A11013083120313A6070318A70A00308B
:10015400A70726082007A3002308840083130008A8
:10016400A5002508031DB728B82893280800FC001B
:100174000A30F0000030F1007C08F800F90178083A
:10018400F2007908F3000A128A11CE230A128A11A6
:100194007008FA000A30F0000030F1007C08F80022
:1001A400F9017808F2007908F3000A128A1116237B
:1001B4000A128A117008FB007A08F8000330031051
:1001C400F80DFF3E031DE1280310780D7B040800A1
:1001D4000A128A15CE260A128A11D0300A128A15FA
:1001E40003270A128A1107300A128A1503270A12F2
:1001F4008A1100300A128A1503270A128A110A1278
:100204008A15D8260A128A110A128A15CE260A12CB
:100214008A11D0300A128A1503270A128A11003073
:100224000A128A1503270A128A1100300A128A1543
:1002340003270A128A110A128A15D8260A128A1169
:100244000800823083120313A500DD30A400A40B40
:100254002929A50B292933300A128A11DE210A1211
:100264008A1132300A128A11DE210A128A112830C8
:100274000A128A11DE210A128A110C300A128A111A
:10028400DE210A128A1106300A128A11DE210A12AC
:100294008A1101300A128A11DE210A128A111430DD
:1002A40083120313A5007930A400A40B5729A50BCE
:1002B4005729080083120313A2000A128A15CE26B6
:1002C4000A128A11D0300A128A1503270A128A11D7
:1002D40004300A128A1503270A128A11831203139F
:1002E40022080A128A11B9200A128A110A128A15DE
:1002F40003270A128A118312031320080A128A118F
:10030400B9200A128A110A128A1503270A128A11BD
:100314008312031321080A128A11B9200A128A11BE
:100324000A128A1503270A128A110A128A15D82674
:100334000A128A11080083120313A2000A128A15F2
:10034400CE260A128A11D0300A128A1503270A12FD
:100354008A1100300A128A1503270A128A1183129D
:10036400031321080A128A11B9200A128A110A12E7
:100374008A1503270A128A118312031320080A120A
:100384008A11B9200A128A110A128A1503270A123D
:100394008A118312031322080A128A11B9200A123D
:1003A4008A110A128A1503270A128A110A128A1557
:1003B400D8260A128A11080083120313A100210807
:1003C400A200F030A2052108A00003300310A00D04
:1003D400FF3E031DE8290310200DA300F030A30500
:1003E4000A128A15CE260A128A114E300A128A156A
:1003F40003270A128A118312031322080C380A12E3
:100404008A1503270A128A11831203132208083853
:100414000A128A1503270A128A1183120313230866
:100424000C380A128A1503270A128A11831203133D
:10043400230808380A128A1503270A128A110A1295
:100444008A15D8260A128A11080083120313A10000
:100454002108A200F030A2052108A00003300310F7
:10046400A00DFF3E031D312A0310200DA300F03020
:10047400A3050A128A15CE260A128A114E300A12D0
:100484008A1503270A128A118312031322080D38CE
:100494000A128A1503270A128A11831203132208E7
:1004A40009380A128A1503270A128A1183120313C0
:1004B40023080D380A128A1503270A128A11831297
:1004C4000313230809380A128A1503270A128A110A
:1004D4000A128A15D8260A128A11080083120313F5
:1004E4006E1C752A762A812A2A08A0002808A100F1
:1004F4002908A2000A128A118E200A128A11831274
:100504000313AC1F862A872A892AAB01AC01AD01EB
:10051400AE01A32A2030F0000030F100831203134F
:100524002808F2002908F3000A128A1198240A12F2
:100534008A11013083120313AD070318AE0A003089
:10054400AE072E08803AFD002C08803A7D02031D78
:10055400AD2A2B082D02031CB02AB12A8C2A83123F
:1005640003136E18B62AB72AC22A2A08A00028083C
:10057400A1002908A2000A128A118E200A128A11E7
:100584000800F901FA017608840083130008840046
:100594000A128A110D200A128A112A3A031DD32A3B
:1005A400D42A002B76088400013080077708840061
:1005B4000008FF00023080077F0884000008F9006B
:1005C400840A0008FA00112B7A08F1007908F00077
:1005D4000A30F2000030F3000A128A15B3270A1217
:1005E4008A1178087007F900003003180130710788
:1005F400FA007608840001308313800776088400AB
:10060400000884000A128A110D200A128A11D03EB1
:10061400F8000A307802031C102B112BE62A7A0802
:10062400F7007908F6000800F501F31F1A2B1B2BBD
:10063400222BF209F309F20A0319F30A0130F50037
:10064400F11F252B262B2B2BF009F109F00A031996
:10065400F10A700871040319302B312B5E2B013021
:10066400F4003D2B01300310F00DF10DFF3E031D8E
:10067400352B0130F407F11F402B412B342B71082B
:100684007302031D472B70087202031C4A2B4B2B69
:10069400512B7008F2027108031CF303F3020130BA
:1006A4000310F10CF00CFF3E031D522B0130F40239
:1006B400031D5D2B5E2B412B75080319622B632BE5
:1006C400682BF209F309F20A0319F30A7308F1001B
:1006D4007208F00008000A128A15CE260A128A113E
:1006E400D0300A128A1503270A128A1104300A121A
:1006F4008A1503270A128A110A128A15C4260A12B5
:100704008A11D1300A128A1503270A128A11831218
:100714000313200884000A128A15F8260A128A1183
:100724000A128A1533270A128A11831380000A12C7
:100734008A15E2260A128A118312031321088400FF
:100744000A128A15F8260A128A110A128A15332700
:100754000A128A11831380000A128A15E2260A12E9
:100764008A1183120313220884000A128A15F826B8
:100774000A128A110A128A1533270A128A1183135C
:1007840080000A128A15ED260A128A110A128A15A5
:10079400D8260A128A110800F501F11FD22BD32B97
:1007A400DA2BF009F109F00A0319F10A0130F50016
:1007B400F31FDD2BDE2BE52BF209F309F20A0319F3
:1007C400F30A0130F506F601F70170087104031904
:1007D400EC2BED2B222C0130F400F92B013003100B
:1007E400F00DF10DFF3E031DF12B0130F407F11F55
:1007F400FC2BFD2BF02B01300310F60DF70DFF3E03
:10080400031DFE2B71087302031D0A2C700872026B
:10081400031C0D2C0E2C152C7008F2027108031CFD
:10082400F303F302761401300310F10CF00CFF3ED5
:10083400031D162C0130F402031D212C222CFD2B48
:1008440075080319262C272C2C2CF609F709F60A0F
:100854000319F70A7708F1007608F00008000A1275
:100864008A15CE260A128A11D0300A128A15032755
:100874000A128A1100300A128A1503270A128A11F1
:100884000A128A15C4260A128A11D1300A128A154C
:1008940003270A128A110A128A15F8260A128A11E3
:1008A40083120313A3002208840023087F390A1249
:1008B4008A1533270A128A11831380000A128A15B3
:1008C400E2260A128A1183120313210884000A12F1
:1008D4008A15F8260A128A110A128A1533270A126F
:1008E4008A11831380000A128A15E2260A128A11D9
:1008F4000A128A15F8260A128A1183120313A30016
:100904002008840023083F390A128A1533270A1263
:100914008A11831380000A128A15ED260A128A119D
:100924000A128A15D8260A128A110800720873045A
:1009340003199D2C9E2CA42C72087304031DA32C54
:10094400A42CAB2C70080A128A1152200A128A11A4
:10095400312D7208093EF40073080318013E003E6D
:10096400F500740884008317751C83130008F600CF
:10097400840A0008F700760877040319C22CC32CF4
:10098400F52C7208093EF40073080318013E003E7A
:10099400F500740884008317751C83130008F6009F
:1009A400840A0008F7007208023EF800730803186E
:1009B400013E003EF900780884008317791C8313F4
:1009C4000008FA00840A0008FB007B08803AFC0057
:1009D4007708803A7C02031DF12C76087A0203180A
:1009E400F42CF52C312D720884008317731C8313A7
:1009F4000008F400840A0008F5007208023EF600BC
:100A040073080318013E003EF7007608840083173C
:100A1400771C831300087407F9007508F80003189D
:100A2400F80A801F162DF8037808FA007908840064
:100A340083177A1C8313700880007208023EF40046
:100A440073080318013E003EF50074088400831700
:100A5400751C831301308007840A0318800A080078
:100A6400831203133D0884008313000884000A12D0
:100A74008A110D200A128A11253A031D422D432D95
:100A8400CE2D3D08840001308007EC01ED010030DB
:100A9400EE00FF3083160313C800FF30C900831231
:100AA4000313C5016B2DEE143D088400013080074B
:100AB4006B2D0130C5006B2D3D08840000088400B7
:100AC4000A128A110D200A128A11303A0319552D7F
:100AD4005B2D450803196F2D702D5E2D3D08F60022
:100AE4003E08F7000A128A11C3220A128A117708F3
:100AF40083120313ED007608EC00ED1F822D832D85
:100B0400892D6E14EC09ED09EC0A0319ED0A3D0870
:100B1400840083130008C600460884000A128A1160
:100B24000D200A128A11643A0319992D9A2DA62DC3
:100B3400460884000A128A110D200A128A11693AA1
:100B4400031DA52DA62DC62D3E0884000008FF0018
:100B5400023080077F0884000008C100840A00086E
:100B6400C2003D0884004608013E80003B08AF00F7
:100B74003C08B0004208B2004108B1000A128A11D0
:100B8400E8250A128A11E72D831203133D08840015
:100B9400013083138007E72D3D088400000884009A
:100BA4000A128A110D200A128A11BF00C0013F08DF
:100BB400F0004008F1003B08F2003C08F3000A1280
:100BC4008A1198240A128A11C62D08000130831252
:100BD4000313B500B21BEF2DF12D0130F22D0030BF
:100BE400B8006D08B7006C08B60038080319FB2D6F
:100BF400FC2D122EFF30B6070318B70AFF30B707D3
:100C04003808031D062E072E0C2E2B30B30000309F
:100C1400B400102E2D30B3000030B4003308B800F7
:100C24001F30B9000030BA0083160313E901592EAE
:100C3400FF30B9070318BA0AFF30BA073908CA3EA9
:100C440084000A30F0000030F1003208F30031086B
:100C5400F2000A128A1116230A128A117108F70087
:100C64007008F6000A128A1522270A128A117608D9
:100C7400303E8313800083120313B501FF30B6079F
:100C84000318B70AFF30B7070A30F0000030F1004C
:100C94003208F3003108F2000A128A11CE230A1234
:100CA4008A11710883120313B2007008B100831211
:100CB4003A08803AFF0080307F02031D632E013022
:100CC4003902031C662E672E872E83120313310804
:100CD4003204031D6E2E6F2E1A2E3508031D732E3B
:100CE400742E1A2E3708803AFF0080307F02031DCD
:100CF4007D2E01303602031C802E812E872E831216
:100D04000313EE18862E872E1A2E83120313380827
:100D140003198D2E8E2E9A2EFF30B9070318BA0AA6
:100D2400FF30BA073908CA3E8400380883138000AC
:100D34002F08A8003008A9003908CA3EAA003708BD
:100D4400AC003608AB000A128A1170220A128A110A
:100D5400080083160317880189010D3083120313D9
:100D6400E300AF30E200B530E100E10BB72EE20B57
:100D7400B72EE30BB72EBE2E80300A128A154E27EB
:100D84000A128A11033083120313E3008A30E2004B
:100D94005530E100E10BCC2EE20BCC2EE30BCC2E34
:100DA4000A128A1123210A128A11033083120313AF
:100DB400E3008A30E2005530E100E10BDF2EE20B64
:100DC400DF2EE30BDF2E0A128A1511270A128A116D
:100DD40083120313A401A40A01300A128A15D82726
:100DE4000A128A112B3083120313A4008030A50049
:100DF4000A128A1166200A128A111A308312031306
:100E0400E3005E30E2006D30E100E10B072FE20BFE
:100E1400072FE30B072F0E2F0A128A11EA200A125A
:100E24008A11033083120313E3008A30E200553041
:100E3400E100E10B1B2FE20B1B2FE30B1B2F831293
:100E44000313A001A1010C300A128A119D210A1278
:100E54008A110A3083120313A0001830A1001D3038
:100E64000A128A115C210A128A110A128A151127A0
:100E74000A128A11C23083120313A000C330A100E6
:100E8400C430A2000A128A1131240A128A11C53010
:100E940083120313A000C630A100C730A2000A12B7
:100EA4008A116D230A128A1183120313A401A40A5E
:100EB40001300A128A15D8270A128A11A030831227
:100EC4000313CC001630CD0083160313420883129B
:100ED4000313E100E2016108CE006208CF0083162B
:100EE4000313430883120313E300E4016308D000EF
:100EF4006408D10083160313440883120313E50026
:100F0400E6016508D2006608D3000A128A15902704
:100F14000A128A11A03083120313A4000030A50022
:100F24000A128A1166200A128A1183120313A40179
:100F3400A40A02300A128A15D8270A128A11B1307B
:100F440083120313CC000130CD008316031345082C
:100F540083120313E100E2016108CE006208CF00AE
:100F640083160313460883120313E300E4016308A2
:100F7400D0006408D10083160313470883120313B7
:100F8400E500E6016508D2006608D3000A128A1556
:100F940090270A128A11B13083120313A40000307F
:100FA400A5000A128A1166200A128A111A308312C5
:100FB4000313E3005E30E2006D30E100E10BE02F4B
:100FC400E20BE02FE30BE02FE72F3C2F0A128A11EC
:100FD400002883136730840070300A128A15BC26F7
:100FE4000A128A11C8308400EA300A128A15BC2613
:0C0FF4000A128A1183010A128A11AB2E26
:101D780064008001840A0406031900340406BD2E99
:101D880083160313911483128C1DCB2ECC2EC72ED1
:101D98008C11080083160313111483128C1DD52E81
:101DA800D62ED12E8C110800831603131115831219
:101DB8008C1DDF2EE02EDB2E8C11080083160313FA
:101DC8009112111683128C1DEA2EEB2EE62E8C1121
:101DD8000800831603139116111683128C1DF52E15
:101DE800F62EF12E8C110800831603139115831219
:101DF8008C1DFF2E002FFB2E8C1113080800FD00F0
:101E08007D088312031393008C1D0B2F0C2F082FB2
:101E18008C11831603131108080001300A128A1165
:101E2800DE210A128A150D3083120313A500FB3038
:101E3800A400A40B1D2FA50B1D2F0800F71B252F91
:101E4800262F272F322F7609F8007709F900F80A8C
:101E58000319F90A7808F6007908F7000800F6006F
:101E68007608F30004300310F30CFF3E031D372FF0
:101E78007308F4000F30F4057608F5000F30F50507
:101E88000A30F00074080A128A1153200A128A15BF
:101E980075070800F00083160313871507167008E6
:101EA80094002830831203139400831603139101BE
:101EB80080307006031D612F622F652F313093002B
:101EC8006C2F7008031D692F6A2F6C2F0C3093003C
:101ED8000800831203134908CB007F2F4708BB0073
:101EE8004808BC004B30BD004A08BE000A128A11DF
:101EF80032250A128A15831203134B0884000A122A
:101F08008A110D200A128A15003A031D8C2F8D2F75
:101F1800722FC701C80108004E3083120313D50081
:101F28004C08D6000030D700D801D901DF01E00104
:101F38005630C7000030C8004D08C9005530CA00E7
:101F48000A128A156D270A128A1583120313580874
:101F58004C07D40054088400831380010800F4015E
:101F6800F501701CB82FB92FBF2F7208F40703189A
:101F7800F50A7308F50701300310F20DF30DFF3E63
:101F8800031DC02F01300310F10CF00CFF3E031DA0
:101F9800C72F70087104031DD22FD32FB52F7508D2
:101FA800F1007408F000080083120313A500E72F5E
:101FB800A601F52F4030A600F52F1430A600F52F06
:101FC8005430A600F52F2408013A0319DC2F033AF0
:101FD8000319DE2F013A0319E12F073A0319E42FF9
:101FE800DC2F2508FF3EA607260880380A128A112A
:081FF800DE210A128A1508001F
:04400E00E223FF3F6B
:00000001FF
