:100000000A128A11EA2F4E3083120313D5004C08CE
:10001000D6000030D700D801D901DF01E001563009
:10002000C7000030C8004D08C9005530CA000A1684
:100030008A11AD210A128A118312031358084C0742
:10004000D400540884008313800108008312031332
:100050003D0884008313000884000A128A150A20D0
:100060000A128A11253A031D36283728E8283D0848
:1000700084000130800783160313E001E1010030A2
:10008000E400FF30E200FF30E30083120313C501F8
:10009000632883160313E414831203133D088400BA
:1000A0000130800763280130C50063283D088400C3
:1000B000000884000A128A150A200A128A11303AAE
:1000C0000319492853284508031967286828562822
:1000D0003D08F6003E08F7000A168A1180240A122D
:1000E0008A11770883160313E1007608E000E11F08
:1000F0007A287B2881286414E009E109E00A0319C1
:10010000E10A831203133D08840083130008C6002C
:10011000460884000A128A150A200A128A11643AD3
:10012000031993289428A028460884000A128A15E7
:100130000A200A128A11693A031D9F28A028C028A4
:100140003E0884000008FF00023080077F0884001A
:100150000008C100840A0008C2003D088400460867
:10016000013E80003B08AF003C08B0004208B200EE
:100170004108B1000A128A15D0210A128A110129F8
:100180003D088400000884000A128A150A200A1219
:100190008A11253A031DCD28CE28E0283D08840089
:1001A000013080072530F0000030F1003B08F200FC
:1001B0003C08F3000A168A1166270A128A110129DF
:1001C000831203133D088400013083138007012943
:1001D0003D088400000884000A128A150A200A12C9
:1001E0008A11BF00C0013F08F0004008F1003B0841
:1001F000F2003C08F3000A168A1166270A128A11D7
:10020000E0280800831203135908E3008030E30557
:100210005908DE005E07E900D81F0F2910291129AF
:10022000691469080319152916292529690A031D66
:100230001A291B2923290030D9000030D8000030AA
:10024000D7000030D600D8172D290030D900003053
:10025000D8000030D7000030D6005D088039E306B2
:100260005D08DE005E07E800DC1F372938293929E0
:100270006814680803193D293E294D29680A031DA1
:10028000422943294B290030DD000030DC000030DA
:10029000DB000030DA00DC1755290030DD000030CB
:1002A000DC000030DB000030DA006808031959294F
:1002B0005A295F296908031D5E295F2968290030D2
:1002C000D9000030D8000030D7000030D600432CD1
:1002D0005608F0005C080A168A1119220A128A11BF
:1002E000710883120313EF007008EE006E08DE0041
:1002F000DF01E001E1016108E7006008E6005F0856
:10030000E5005E08E4006F08DE00DF01E001E101C6
:100310006108ED006008EC005F08EB005E08EA0091
:100320005708F0005B080A168A1119220A128A116E
:10033000710883120313EF007008EE006E08DE00F0
:10034000DF01E001E1015E08E4075F080311031823
:10035000013E0319AC29E507600803110318013EAB
:100360000319B329E607610803110318013E0319B5
:10037000BA29E7076F08DE00DF01E001E1015E084E
:10038000EA075F0803110318013E0319C829EB07A8
:10039000600803110318013E0319CF29EC07610817
:1003A00003110318013E0319D629ED075808F00080
:1003B0005A080A168A1119220A128A117108831220
:1003C0000313EF007008EE006E08DE00DF01E001AD
:1003D000E1015E08E4075F0803110318013E0319F9
:1003E000F229E507600803110318013E0319F929F2
:1003F000E607610803110318013E0319002AE70705
:100400006F08DE00DF01E001E1015E08EA075F0836
:1004100003110318013E03190E2AEB0760080311AC
:100420000318013E0319152AEC076108031103188C
:10043000013E03191C2AED070830DE000310E40D0D
:10044000E50DE60DE70DDE0B1E2A5708F0005A08F1
:100450000A168A1119220A128A11710883120313CB
:10046000EF007008EE006E08DE006F08DF00E001AC
:10047000E1015E08E4075F0803110318013E031958
:10048000422AE507600803110318013E0319492AAF
:10049000E607610803110318013E0319502AE70714
:1004A0005608F0005B080A168A1119220A128A11EE
:1004B000710883120313EF007008EE006E08DE006F
:1004C0006F08DF00E001E1015E08E4075F08031147
:1004D0000318013E03196D2AE5076008031103188C
:1004E000013E0319742AE607610803110318013E4F
:1004F00003197B2AE7070830DE000310E40DE50D41
:10050000E60DE70DDE0B7D2A5608F0005A080A16A4
:100510008A1119220A128A11710883120313EF003B
:100520007008EE006E08DE006F08DF00E001E101F8
:100530005E08E4075F0803110318013E0319A12AAE
:10054000E507600803110318013E0319A82AE6070E
:10055000610803110318013E0319AF2AE707570882
:10056000F0005C080A168A1119220A128A11710811
:1005700083120313EF007008EE006E08DE006F08B0
:10058000DF00E001E1015E08EA075F0803110318DC
:10059000013E0319CC2AEB07600803110318013E42
:1005A0000319D32AEC07610803110318013E03194C
:1005B000DA2AED075808F0005B080A168A1119229A
:1005C0000A128A11710883120313EF007008EE00FB
:1005D0006E08DE006F08DF00E001E1015E08EA0757
:1005E0005F0803110318013E0319F72AEB0760089F
:1005F00003110318013E0319FE2AEC0761080311D9
:100600000318013E0319052BED075808F0005C089C
:100610000A168A1119220A128A1171088312031309
:10062000EF007008EE006E08DE006F08DF00E001EA
:10063000E10108300310DE0DDF0DE00DE10DFF3E9E
:10064000031D1A2B5E08EA075F0803110318013E19
:1006500003192B2BEB07600803110318013E031944
:10066000322BEC07610803110318013E0319392BE3
:10067000ED076408DE006508DF006608E000670833
:10068000E10018300310E10CE00CDF0CDE0CFF3E43
:10069000031D422B5E08EA075F0803110318013EA1
:1006A0000319532BEB07600803110318013E0319CC
:1006B0005A2BEC07610803110318013E0319612B43
:1006C000ED070830DE000310E40DE50DE60DE70D43
:1006D000DE0B632B69086807DE00DF01DF0D5E08B3
:1006E000823EEE005F080318013EFF3EEF00952BAF
:1006F0000130DE000310EA0DEB0DEC0DED0DDE0B0D
:100700007A2BE71F842B852B862B6A140130DE00A1
:100710000310E40DE50DE60DE70DDE0B882BFF3031
:10072000EE070318EF0AFF30EF07EC1F982B992B09
:10073000782BE801E71F9D2B9E2BBA2BFF30640519
:10074000DE00FF306505DF00FF306605E0007F302A
:100750006705E100610860045F045E040319B12BC2
:10076000B22BB52B0130E800BA2B6A1CB82BB92B81
:10077000BA2BB22B68080319BE2BBF2BF02B01300C
:10078000EA07003003180130EB070030031801308E
:10079000EC07003003180130ED076D1CD02BD12B76
:1007A000F02B6A08DE006B08DF006C08E0006D08C3
:1007B000E1000130E200610DE10CE00CDF0CDE0C29
:1007C000E20BDB2B6108ED006008EC005F08EB003A
:1007D0005E08EA000130EE070318EF0A0030EF0769
:1007E0006F08803AFF0080307F02031DF92BFF3035
:1007F0006E02031CFC2BFD2B082C7F30831203138D
:10080000ED008030EC000030EB000030EA00392CC5
:10081000831203136F08803AFF0080307F02031DAC
:10082000132C01306E020318162C172C232C0030C9
:1008300083120313ED000030EC000030EB000030B9
:10084000EA00E301392C831203136E08E900FF303C
:10085000EA05FF30EB057F30EC050030ED05691C43
:10086000322C332C342CEC176908DE0003105E0C9C
:10087000ED006308ED046D08D9006C08D8006B0822
:10088000D7006A08D600080083160313CB01C50100
:10089000C60183160317880189010D3083160313DF
:1008A000AC00AF30AB00B530AA00AA0B552CAB0B97
:1008B000552CAC0B552C5C2C80300A168A118E21DD
:1008C0000A128A11033083160313AC008A30AB007E
:1008D0005530AA00AA0B6A2CAB0B6A2CAC0B6A2C05
:1008E0000A168A1113230A128A110330831603137E
:1008F000AC008A30AB005530AA00AA0B7D2CAB0BA4
:100900007D2CAC0B7D2C0A168A1131210A128A111A
:1009100083120313A501A50A01300A168A11672262
:100920000A128A11823083120313A5008030A600B8
:100930000A168A118F220A128A11023083120313B7
:10094000A50001300A168A1167220A128A11343072
:1009500083120313A5008030A6000A168A118F2285
:100960000A128A11333083160313AC00BB30AB007C
:10097000DF30AA00AA0BBA2CAB0BBA2CAC0BBA2CEA
:100980000A128A159C200A128A1103308316031357
:10099000AC008A30AB005530AA00AA0BCD2CAB0BB3
:1009A000CD2CAC0BCD2C0A168A1181250A128A1186
:1009B000033083160313AC008A30AB005530AA0015
:1009C000AA0BE02CAB0BE02CAC0BE02C0A168A1126
:1009D00031210A128A1183120313A501A50A0130DD
:1009E0000A168A1167220A128A11513083120313E0
:1009F000A5008030A6000A168A118F220A128A11D9
:100A0000023083120313A50001300A168A116722EF
:100A10000A128A116B3083120313A5008030A600DE
:100A20000A168A118F220A128A111E3083120313AA
:100A3000A100A20113300A168A112E240A128A116B
:100A40000A3083120313A1001930A2001D300A16C8
:100A50008A11DE230A128A11273083160313AC0091
:100A60000D30AB002530AA00AA0B342DAB0B342D72
:100A7000AC0B342D3B2DD73083120313CE00D33073
:100A8000CF000A128A159D220A128A1183160313B7
:100A9000CC000A168A1131210A128A11CD30831234
:100AA0000313A100CE30A200CF30A3000A168A1192
:100AB0003F260A128A11D03083120313A100D130CD
:100AC000A200D230A3000A168A11D2260A128A1175
:100AD0000330831603134602031C6F2D702D7F2DE8
:100AE000D73083120313CE00D330CF000A128A15F9
:100AF0009D220A128A1183160313CC00C60101300D
:100B0000C60705304502031C862D872D9F2D4B08F7
:100B100003198B2D8D2D01308E2D0030CB00C5019A
:100B20000A168A1131210A128A110D308316031315
:100B3000AB00FB30AA00AA0B9B2DAB0B9B2D8316A1
:100B400003134B08031DA52DA62D412E831203135D
:100B5000A501A50A01300A168A1167220A128A1114
:100B6000B03083120313CC001330CD00831603136F
:100B70004D08AA00AB012A0883120313CE00831686
:100B800003132B0883120313CF00831603134E089D
:100B9000AC00AD012C0883120313D000831603139D
:100BA0002D0883120313D100831603134F08AE00E0
:100BB000AF012E0883120313D200831603132F08EC
:100BC00083120313D3000A128A1103200A128A1116
:100BD000B03083120313A5000030A6000A168A1154
:100BE0008F220A128A11023083120313A5000130EA
:100BF0000A168A1167220A128A11B030831203136F
:100C0000CC000130CD00831603135008AA00AB01BD
:100C10002A0883120313CE00831603132B088312B2
:100C20000313CF00831603135108AC00AD012C0849
:100C300083120313D000831603132D0883120313AA
:100C4000D100831603135208AE00AF012E088312A1
:100C50000313D200831603132F0883120313D30048
:100C60000A128A1103200A128A11B0308312031368
:100C7000A5000030A6000A168A118F220A128A11D6
:100C8000D32F83120313A501A50A01300A168A1176
:100C900067220A128A11831603134C080319512E76
:100CA000522EF92E5608A3005508A2005408A100A0
:100CB0005308A0000A128A15A6200A128A11831668
:100CC00003132108C8002008C70056088312031325
:100CD000D50083160313550883120313D40083161B
:100CE0000313540883120313D3008316031353080A
:100CF00083120313D200831603134708F000480839
:100D0000F1000030F11BFF30F200F30001300A1255
:100D10008A151C210A128A11730883120313D10049
:100D20007208D0007108CF007008CE000A168A1130
:100D3000D0210A128A11831203135108DD005008D2
:100D4000DC004F08DB004E08DA004130D9002030CB
:100D5000D8000030D7000030D6000A128A110221D4
:100D60000A128A1183120313590883160313A3006E
:100D700083120313580883160313A200831203136C
:100D8000570883160313A100831203135608831612
:100D90000313A0000A128A15A6200A128A118316CC
:100DA00003132108C2002008C100B03083120313CE
:100DB000CC004330CD00831603134808831203137D
:100DC000CF0083160313470883120313CE00831644
:100DD0000313420883120313D1008316031341083F
:100DE00083120313D0000A128A1103200A128A11F7
:100DF000042FB03083120313CC007730CD000A12D9
:100E00008A1103200A128A11B03083120313A5003D
:100E10000030A6000A168A118F220A128A110230A7
:100E200083120313A50001300A168A1167220A12E1
:100E30008A11831603134C0803191F2F202FC72F65
:100E40005A08A3005908A2005808A1005708A0009A
:100E50000A128A15A6200A128A1183160313210882
:100E6000CA002008C9005A0883120313D50083164C
:100E70000313590883120313D4008316031358086D
:100E800083120313D300831603135708831203132B
:100E9000D200831603134908F0004A08F10000301D
:100EA000F11BFF30F200F30001300A128A151C21F9
:100EB0000A128A11730883120313D1007208D0003A
:100EC0007108CF007008CE000A168A11D0210A12CC
:100ED0008A11831203135108DD005008DC004F080B
:100EE000DB004E08DA004130D9002030D800003055
:100EF000D7000030D6000A128A1102210A128A1184
:100F000083120313590883160313A30083120313D8
:100F1000580883160313A20083120313570883167D
:100F20000313A10083120313560883160313A000B2
:100F30000A128A15A6200A128A11831603132108A1
:100F4000C4002008C300B03083120313CC00253046
:100F5000CD00831603134A0883120313CF008316B0
:100F60000313490883120313CE00831603134408A6
:100F700083120313D1008316031343088312031350
:100F8000D0000A128A1103200A128A11352EB030BD
:100F900083120313CC005F30CD000A128A110320A4
:100FA0000A128A11352E013083160313C5071A3031
:100FB00083160313AC005E30AB006D30AA00AA0BA1
:100FC000DF2FAB0BDF2FAC0BDF2FE62F4E2D0A12DE
:100FD0008A1100288313DB308400E6300A168A1158
:100FE000F4200A128A11831790308400B0300A1658
:100FF0008A11F4200A128A1183010A128A11442CE0
:10100000FF1B0A2883137F1883170008840A03191B
:10101000FF0A080008308A000408840A82070034A6
:10102000203425343034323464342F342534303491
:10103000323464342F343234303425343034323462
:1010400064340034203420342034253430343234B5
:1010500064343A3425343034323464343A34253408
:101060003034323464340034483475346D342034D0
:101070003A342034253464342E3425346434203416
:1010800025342534003420344D34653474346534CB
:101090006F3472346F346C346F3467346934633452
:1010A00061340034543465346D3470343A3420344F
:1010B000253464342E3425346434203443340034ED
:1010C000203443346F346E34663469346734753495
:1010D000723461346E3464346F340034483475349F
:1010E0006D3420343A3420342D342D3420342534DA
:1010F00025340034203473346934733474346534E3
:101100006D3461342E342E342E340034543465342E
:101110006D3470343A3420342D342D34203443343B
:1011200000342034203445347334743461346334EF
:1011300069346F346E34003483160313051481123E
:1011400081110108F8390138810008000310831665
:101150000313220D230DA9002908031DB028B1286F
:10116000BA280030A3000030A2000030A1000030F7
:10117000A0001B292008A4002108A5002208A60021
:101180002308A7001F300310A70CA60CA50CA40C65
:10119000FF3E031DC3282408A800A217FF30A005A6
:1011A000FF30A105FF30A2050030A3059630A9024B
:1011B000A91FDB28DC28F4282908803A973E031869
:1011C000E228E328E428B12801300310A30CA20C84
:1011D000A10CA00CFF3E031DE5280130A907031D4B
:1011E000F228F328E4280B2920302902031CF928CF
:1011F000FA280629B1280130A4000310A00DA10D82
:10120000A20DA30DA40BFD280130A9022908031D7E
:101210000A290B29FB28280803190F2910291B2943
:10122000A009A109A209A309A00A0319A10A031987
:10123000A20A0319A30A0800F80078080319212953
:1012400022293629F31F2529262936297009FA0073
:101250007109FB007209FC007309FD00FA0A031909
:10126000FB0A0319FC0A0319FD0A3E297308FD0055
:101270007208FC007108FB007008FA007308720421
:1012800071047004031D452946294F290030F300DD
:101290000030F2000030F1000030F000CF2996302D
:1012A000F9005D290130F90701300310FD0CFC0C39
:1012B000FB0CFA0CFF3E031D5529FE307D05031D76
:1012C0006229632952297D290130F9070130FA0783
:1012D000003003180130FB07003003180130FC0711
:1012E000003003180130FD0701300310FD0CFC0C29
:1012F000FB0CFA0CFF3E031D7529FF307D05031D15
:101300008229832964298F290130F9020130F400F0
:101310000310FA0DFB0DFC0DFD0DF40B8829FC1BD1
:101320009229932999290230790203189829992939
:10133000842979189C299D29A529FF30FA05FF30B9
:10134000FB057F30FC05FF30FD050310F90C790823
:10135000F400F501F601F70118300310F40DF50D56
:10136000F60DF70DFF3E031DAD297408FA0475084C
:10137000FB047608FC047708FD0478080319C129EA
:10138000C229C729F31FC529C629C729FD177D080A
:10139000F3007C08F2007B08F1007A08F0000800F6
:1013A000013083120313B500B21BD729D9290130AC
:1013B000DA290030B800831603136108831203137F
:1013C000B70083160313600883120313B6003808AE
:1013D0000319EB29EC29022AFF30B6070318B70AD4
:1013E000FF30B7073808031DF629F729FC292B30F1
:1013F000B3000030B400002A2D30B3000030B40038
:101400003308B8001F30B9000030BA008316031744
:10141000AF014A2AFF308312B9070318BA0AFF3016
:10142000BA073908903E84000A30F0000030F1001D
:101430003208F3003108F2000A168A11D3240A1286
:101440008A157108F7007008F6000A168A11422101
:101450000A128A157608303E831780008312031320
:10146000B501FF30B6070318B70AFF30B7070A30D7
:10147000F0000030F1003208F3003108F2000A16E3
:101480008A11DC250A128A15710883120313B2002F
:101490007008B100831203133A08803AFF008030CD
:1014A0007F02031D552A01303902031C582A592A8C
:1014B000792A8312031331083204031D602A612A3A
:1014C0000A2A3508031D652A662A0A2A3708803A3F
:1014D000FF0080307F02031D6F2A01303602031C9B
:1014E000722A732A792A83160313E418782A792A30
:1014F0000A2A83120313380803197F2A802A8C2AA8
:10150000FF30B9070318BA0AFF30BA073908903E0E
:1015100084003808831780002F08A8003008A9002D
:101520003908903EAA003708AC003608AB000A160E
:101530008A112A250A128A1508008312031305103E
:10154000831603130510823083120313D100DD309C
:10155000D000D00BA92AD10BA92A83160313051496
:10156000313083120313D000D00BB42A831203133B
:1015700081010518BC2ABD2AB92A8101051CC12A8E
:10158000C22ABE2A81010518C62AC72AC32AD90140
:101590000A168A1140220A128A15003A031DD12A1E
:1015A000D22AD42A0030E52B831203135908DB3EDC
:1015B00084008316031365088313800001308312AF
:1015C0000313D90705305902031CE72AE82AC82A61
:1015D000831603135D085C0783120313D000831680
:1015E00003135E08831203135007D10083160313FD
:1015F0005B08831203135107D800831603135F0897
:101600008312031358060319062B072B082BD22A23
:101610004130A3002030A2000030A1000030A00023
:10162000831603135C0883120313D000D101D20187
:10163000D3015308F3005208F2005108F10050089A
:10164000F00000300A128A151C210A128A1573084C
:1016500083120313A7007208A6007108A500700882
:10166000A4000A128A15E6230A128A1583120313AC
:101670002308BD002208BC002108BB002008BA00D6
:10168000831603135B0883120313D400D501D6011C
:10169000D7015708F3005608F2005508F100540826
:1016A000F00000300A128A151C210A128A157308EC
:1016B00083120313C1007208C0007108BF007008D4
:1016C000BE000A128A15B0250A128A158312031366
:1016D0004E0884003A0883138000840A3B08800087
:1016E000840A3C088000840A3D0880004130A30041
:1016F0002030A2000030A1000030A00083160313A8
:101700005E0883120313D000D101D201D301530824
:10171000F3005208F2005108F1005008F0000030C8
:101720000A128A151C210A128A15730883120313E0
:10173000A7007208A6007108A5007008A4000A128C
:101740008A15E6230A128A15831203132308BD00A3
:101750002208BC002108BB002008BA00831603132E
:101760005D0883120313D400D501D601D7015708B1
:10177000F3005608F2005508F1005408F00000305C
:101780000A128A151C210A128A1573088312031380
:10179000C1007208C0007108BF007008BE000A12C4
:1017A0008A15B0250A128A15831203134F08840084
:1017B0003A0883138000840A3B088000840A3C08AE
:1017C0008000840A3D088000013008008312031362
:1017D0002708B1008030B1052708A8002807B80005
:1017E000A61FF32BF42BF52B381438080319F92B0B
:1017F000FA2B0A2C380A031DFE2BFF2B072C003076
:10180000A7000030A6000030A5000030A400A617F5
:10181000A701122C0030A7000030A6000030A50060
:101820000030A40023088039B1062308A800280747
:10183000B900A21F1C2C1D2C1E2C391439080319A9
:10184000222C232C332C390A031D272C282C302C36
:101850000030A3000030A2000030A1000030A00042
:10186000A217A3013B2C0030A3000030A2000030DF
:10187000A1000030A0002308220421042004031D3D
:10188000422C432C5A2C0030A7000030A600003018
:10189000A5000030A4008030A6047F30A7043108E2
:1018A000A7042708A3002608A2002508A1002408F1
:1018B000A000AF2D3808031D5E2C5F2C682C003073
:1018C000A3000030A2000030A1000030A000AF2D26
:1018D0003808A800A9012908AB0039082802AA0085
:1018E000031CAB032A087F3EB2002B080318013EFD
:1018F000003EB3002708B0002608AF002508AE0060
:101900002408AD000030A7000030A6000030A5007C
:101910000030A4000030B7000030B6000030B50041
:101920000030B400B901DC2C39080319982C992C2B
:10193000B92C0130A8000310AD0DAE0DAF0DB00DE8
:10194000A80B9B2C0130A8000310A40DA50DA60D1B
:10195000A70DA80BA42CB71FAE2CAF2CB02C2414B1
:101960000130A8000310B40DB50DB60DB70DA80BCE
:10197000B22C23083002031DC72C22082F02031D9E
:10198000C72C21082E02031DC72C20082D02031C82
:10199000CA2CCB2CDA2C37172008AD022108031CE7
:1019A000210FAE022208031C220FAF022308031CE2
:1019B000230FB0020130B9071A303902031CE12CA1
:1019C000E22C942C30082F042E042D040319E92C4A
:1019D000EA2C092D3414092D0130A8000310A40DA0
:1019E000A50DA60DA70DA80BEE2CB71FF82CF92CF2
:1019F000FA2C24140130A8000310B40DB50DB60D57
:101A0000B70DA80BFC2CFF30B2070318B30AFF3048
:101A1000B307A61F0C2D0D2DEC2CB901B71F112DEE
:101A2000122D2E2DFF303405A800FF303505A900FA
:101A3000FF303605AA007F303705AB002B082A049B
:101A4000290428040319252D262D292D0130B9003C
:101A50002E2D241C2C2D2D2D2E2D262D390803192D
:101A6000322D332D642D0130A407003003180130CE
:101A7000A507003003180130A60700300318013015
:101A8000A707271C442D452D642D2408A8002508F0
:101A9000A9002608AA002708AB000130AC002B0DD6
:101AA000AB0CAA0CA90CA80CAC0B4F2D2B08A70053
:101AB0002A08A6002908A5002808A4000130B207BA
:101AC0000318B30A0030B3073308803AFF008030B0
:101AD0007F02031D6D2DFF303202031C702D712D0E
:101AE0007F2DFF3083120313B2000030B3000030AB
:101AF000A7000030A6000030A5000030A40083122B
:101B000003133308803AFF0080307F02031D8A2DC3
:101B10000130320203188D2D8E2D9B2D831203135D
:101B2000B201B3010030A7000030A6000030A500CC
:101B30000030A400B101831203133208B800381C2E
:101B4000A22DA32DA52DA617A72D7F30A6053808F9
:101B5000A8000310280CA7003108A704512C080086
:101B6000831203133D08CA008030CA053D08C20035
:101B70004207CC00BC1FBD2DBE2DBF2D4C144C0800
:101B80000319C32DC42DD42D4C0A031DC82DC92DF6
:101B9000D12D0030BD000030BC000030BB00003053
:101BA000BA00BC17BD01DC2D0030BD000030BC0008
:101BB0000030BB000030BA004108CB008030CB05BC
:101BC0004B084A060319E52DE62DE72D4A17410873
:101BD000C2004207CB00C01FEE2DEF2DF02D4B149D
:101BE0004B080319F42DF52D052E4B0A031DF92D75
:101BF000FA2D022E0030C1000030C0000030BF00BE
:101C00000030BE00C017C1010D2E0030C1000030F1
:101C1000C0000030BF000030BE004C084B0203186B
:101C2000122E132E372E4A1F162E172E192E8030E5
:101C3000CA064C08CD004B08CC004D08CB003A0832
:101C4000CD003E08BA004D08BE003B08CD003F085D
:101C5000BB004D08BF003C08CD004008BC004D084B
:101C6000C0003D08CD004108BD004D08C100CD01B8
:101C70004B08C200C3014308C5004C084202C4001F
:101C8000031CC5034508803AFF0080307F02031D16
:101C90004B2E1A304402031C4E2E4F2E842E8312DC
:101CA00003133D083C043B043A04031D582E5A2EEE
:101CB00001305B2E0030CD000030BD000030BC0094
:101CC0000030BB000030BA004B08CC008C2E4D1CFD
:101CD0006A2E6B2E722E4D08C2000310420C013882
:101CE000CD00742E0310CD0C3A1C772E782E792E51
:101CF000CD170130C2003D0DBD0CBC0CBB0CBA0CA5
:101D0000C20B7B2E0130CC07831203134B084C020D
:101D1000031C8B2E8C2E672E4A1B8F2E902ED72EB7
:101D20004C08031D942E952E9E2E0030BD000030D1
:101D3000BC000030BB000030BA00FF2F3E08BA07DD
:101D40003F0803110318013E0319A72EBB074008E3
:101D500003110318013E0319AE2EBC0741080311FD
:101D60000318013E0319B52EBD073D1CB82EB92E30
:101D70008B2F4D1CBC2EBD2EC42E4D08C20003104F
:101D8000420C0138CD00C62E0310CD0C3A1CC92ED2
:101D9000CA2ECB2ECD170130C2003D0DBD0CBC0CA0
:101DA000BB0CBA0CC20BCD2E0130CC078B2F3D08DB
:101DB000803AFF004108803A7F02031DE92E400867
:101DC0003C02031DE92E3F083B02031DE92E3E089D
:101DD0003A020318EC2EED2E442FFF30C200FF30E4
:101DE000C300FF30C400FF30C5003E08C6003F08F6
:101DF000C7004008C8004108C9003A08C6023B08AD
:101E0000031C3B0F042F052FC7023C08031C3C0F8B
:101E10000A2F0B2FC8023D08031C3D0F102F112F56
:101E2000C9024608C20747080318470F182F192F81
:101E3000C30748080318480F1E2F1F2FC40749085F
:101E40000318490AC5074508BD004408BC004308FB
:101E5000BB004208BA008030CA064D03FF3ACD00ED
:101E60004D08031D342F352F522F0130BA07003093
:101E700003180130BB07003003180130BC070030E5
:101E800003180130BD07522F3E08BA023F08031C59
:101E90003F0FBB024008031C400FBC024108031C5B
:101EA000410FBD023D083C043B043A04031D592F79
:101EB0005A2F872F4D08031D5E2F5F2F872F00306D
:101EC000BD000030BC000030BB000030BA00FF2F66
:101ED0000130C2000310BA0DBB0DBC0DBD0DC20B0D
:101EE0006A2FCD1F742F752F762F3A144D1C792F22
:101EF0007A2F7E2F03144D0DCD00802F0310CD0DB2
:101F00004C080319842F852F872F0130CC02BC1F6A
:101F10008A2F8B2F682FCB01CD1F8F2F902F9E2FB5
:101F20004D087F390319952F962F992F0130CB003B
:101F30009E2F3A1C9C2F9D2F9E2F962F4B080319E6
:101F4000A22FA32FD52F0130BA070030031801307C
:101F5000BB07003003180130BC0700300318013004
:101F6000BD073D1CB42FB52FD52F3A08C2003B0842
:101F7000C3003C08C4003D08C5000130C600450D43
:101F8000C50CC40CC30CC20CC60BBF2F4508BD004A
:101F90004408BC004308BB004208BA004C0A0319BD
:101FA000D22FD32FD52F0130CC074C0A0319D92FAC
:101FB000DA2FDF2F4C08031DDE2FDF2FED2F00302F
:101FC000BD000030BC000030BB000030BA004C083F
:101FD000031DEB2FEC2FED2FCA014C1CF02FF12F1E
:101FE000F32FBC17F52F7F30BC054C08C20003103F
:101FF000420CBD00CA1FFD2FFE2FFF2FBD1708008A
:1021E600080064008001840A04060319003404060A
:1021F600F52883160313111483128C1D0329042951
:10220600FF288C11080083160313111583128C1DE9
:102216000D290E2909298C11080083160313911222
:10222600111683128C1D1829192914298C110800DE
:10223600831603139116111683128C1D2329242944
:102246001F298C11080083160313911583128C1D08
:102256002D292E2929298C111308080001300A1668
:102266008A114C230A168A110D3083120313A60015
:10227600FB30A500A50B3D29A60B3D290800F71B41
:1022860045294629472952297609F8007709F90090
:10229600F80A0319F90A7808F6007908F700080021
:1022A60083120313A000200893008C1D5B295C2970
:1022B60058298C1183160313110EFD00FD0C7D0C9D
:1022C60001390800F200F101721C6A296B296D2997
:1022D6007008F1070310F00D0310F20C7208031DCD
:1022E60075297629672971080800F5000F307505EC
:1022F600F3000A30F0007508F40004300310F40C03
:10230600FF3E031D812974080A168A1165210A16E3
:102316008A1173070800F000831603138715071642
:102326007008940028308312031394008316031355
:10233600910180307006031DA129A229A5293130FB
:102346009300AC297008031DA929AA29AC290C30D1
:1023560093000800831203134908CB00BF294708DE
:10236600BB004808BC004B30BD004A08BE000A123C
:102376008A1126200A168A11831203134B08840039
:102386000A128A150A200A168A11003A031DCC2958
:10239600CD29B229C701C801080080308312031372
:1023A600D1065508BD005408BC005308BB005208AE
:1023B600BA005108C1005008C0004F08BF004E08BF
:1023C600BE000A128A15B0250A168A118312031353
:1023D6003D08D1003C08D0003B08CF003A08CE00AB
:1023E6000800F401F501701CF929FA29002A72087F
:1023F600F4070318F50A7308F50701300310F20D08
:10240600F30DFF3E031D012A01300310F10CF00C01
:10241600FF3E031D082A70087104031D132A142A9F
:10242600F6297508F1007408F0000800F800F401B8
:10243600F5017008F200F3017208F6007308F70060
:10244600781C262A272A2D2A7608F4070318F50A67
:102456007708F50701300310F60DF70DFF3E031D53
:102466002E2A0310F80C7808031D3A2A3B2A232A41
:102476007508F1007408F000080083160313E501DF
:10248600F101831203138101051C4A2A4B2A472AAC
:10249600810105184F2A502A4C2A0108F000031022
:1024A60083160313E50D33307002031C5B2A5C2A86
:1024B6005D2A65140130F10708307102031C642A95
:1024C600652A442A0130080083120313A600762ADF
:1024D600A701842A4030A700842A1430A700842A42
:1024E6005430A700842A2508013A03196B2A033AB7
:1024F60003196D2A013A0319702A073A0319732A38
:102506006B2A2608FF3EA707270880380A168A1175
:102516004C230A168A110800A62A2608FF00250859
:1025260084000A128A1500200A168A110A168A11D0
:1025360095230A168A11013083120313A50703187F
:10254600A60A0030A607831203132608FF002508F3
:1025560084000A128A1500200A168A11003A031D01
:10256600B52AB62A902A080083120313A601A701EA
:10257600D42A2508A300A4012308F0002408F100AA
:102586002108F2002208F3000A168A1166270A16A5
:102596008A11013083120313A6070318A70A003015
:1025A600A70726082007A30023088400831700082E
:1025B600A5002508031DE02AE12ABC2A0800FC0024
:1025C6000A30F0000030F1007C08F800F9017808C4
:1025D600F2007908F3000A168A11DC250A168A1118
:1025E6007008FA000A30F0000030F1007C08F800AC
:1025F600F9017808F2007908F3000A168A11D32443
:102606000A168A117008FB007A08F80003300310D6
:10261600F80DFF3E031D0A2B0310780D7B040800FE
:10262600823083120313A600DD30A500A50B192BFB
:10263600A60B192B33300A168A114C230A168A1157
:1026460032300A168A114C230A168A1128300A16C5
:102656008A114C230A168A110C300A168A114C2349
:102666000A168A1106300A168A114C230A168A118E
:1026760001300A168A114C230A168A111430831265
:102686000313A6007930A500A50B472BA60B472BF5
:10269600080083120313A2002208A300F030A3054A
:1026A6002208A10003300310A10DFF3E031D562B87
:1026B6000310210DA400F030A4050A168A11FC208F
:1026C6000A168A114E300A168A1153210A168A11E1
:1026D6008312031323080C380A168A1153210A168B
:1026E6008A1183120313230808380A168A11532104
:1026F6000A168A118312031324080C380A168A1143
:1027060053210A168A1183120313240808380A165D
:102716008A1153210A168A110A168A1106210A16E7
:102726008A11080083120313A2002208A300F030C6
:10273600A3052208A10003300310A10DFF3E031DCF
:102746009F2B0310210DA400F030A4050A168A1150
:10275600FC200A168A114E300A168A1153210A16CF
:102766008A118312031323080D380A168A1153217E
:102776000A168A1183120313230809380A168A11C6
:1027860053210A168A118312031324080D380A16D8
:102796008A1153210A168A11831203132408093851
:1027A6000A168A1153210A168A110A168A11062157
:1027B6000A168A11080083120313A5000A168A1145
:1027C600FC200A168A11D0300A168A1153210A16DD
:1027D6008A11003A031DF02BF12B1E2C04300A1629
:1027E6008A1153210A168A118312031325080A1621
:1027F6008A11E2220A168A110A168A1153210A162A
:102806008A118312031321080A168A11E2220A1674
:102816008A110A168A1153210A168A118312031382
:1028260022080A168A11E2220A168A110A168A1143
:1028360053210A168A110A168A1106210A168A11C6
:10284600823083120313A400DD30A300A30B292CCE
:10285600A40B292C080083120313A5000A168A115B
:10286600FC200A168A11D0300A168A1153210A163C
:102876008A11003A031D402C412C702C00300A1698
:102886008A1153210A168A118312031322080A1683
:102896008A11E2220A168A117F390A168A115321F1
:1028A6000A168A118312031321080A168A11E222D4
:1028B6000A168A110A168A1153210A168A118312D8
:1028C600031325080A168A11E2220A168A113F39CD
:1028D6000A168A1153210A168A110A168A11062126
:1028E6000A168A11823083120313A400DD30A30076
:1028F600A30B7B2CA40B7B2C0800F901FA017608AC
:1029060084008313000884000A128A150A200A1616
:102916008A112A3A031D902C912CBD2C760884002E
:1029260001308007770884000008FF000230800726
:102936007F0884000008F900840A0008FA00CE2CFB
:102946007A08F1007908F0000A30F2000030F3004E
:102956000A168A11F4210A168A1178087007F900F6
:102966000030031801307107FA0076088400013040
:102976008313800776088400000884000A128A15EB
:102986000A200A168A11D03EF8000A307802031C83
:10299600CD2CCE2CA32C7A08F7007908F600080077
:1029A600F501F31FD72CD82CDF2CF209F309F20A14
:1029B6000319F30A0130F500F11FE22CE32CE82C91
:1029C600F009F109F00A0319F10A700871040319F4
:1029D600ED2CEE2C1B2D0130F400FA2C01300310E7
:1029E600F00DF10DFF3E031DF22C0130F407F11F2F
:1029F600FD2CFE2CF12C71087302031D042D7008AA
:102A06007202031C072D082D0E2D7008F2027108A4
:102A1600031CF303F30201300310F10CF00CFF3E2C
:102A2600031D0F2D0130F402031D1A2D1B2DFE2C44
:102A3600750803191F2D202D252DF209F309F20A19
:102A46000319F30A7308F1007208F00008008316F0
:102A56000313641C2F2D302D3D2D831203132A08DA
:102A6600A0002808A1002908A2000A168A11B72288
:102A76000A168A1183120313AC1F422D432D452DCE
:102A8600AB01AC01AD01AE015F2D2030F00000308E
:102A9600F100831203132808F2002908F3000A162E
:102AA6008A1166270A168A11013083120313AD07AD
:102AB6000318AE0A0030AE072E08803AFD002C0837
:102AC600803A7D02031D692D2B082D02031C6C2DF7
:102AD6006D2D482D831603136418722D732D802DCA
:102AE600831203132A08A0002808A1002908A200BF
:102AF6000A168A11B7220A168A11080002308312B2
:102B06000313A3004530A200A930A100A10B892D13
:102B1600A20B892DA30B892D0A168A11FC200A16F1
:102B26008A11D0300A168A1153210A168A110030EA
:102B36000A168A1153210A168A1100300A168A11BA
:102B460053210A168A110A168A1106210A168A11B3
:102B5600823083120313A200DD30A100A10BB12D38
:102B6600A20BB12D0A168A11FC200A168A11D03042
:102B76000A168A1153210A168A1107300A168A1173
:102B860053210A168A1100300A168A1153210A1691
:102B96008A110A168A1106210A168A1182308312B0
:102BA6000313A200DD30A100A10BD72DA20BD72D58
:102BB6000800F501F11FE02DE12DE82DF009F109DE
:102BC600F00A0319F10A0130F500F31FEB2DEC2D85
:102BD600F32DF209F309F20A0319F30A0130F50697
:102BE600F601F701700871040319FA2DFB2D302E3A
:102BF6000130F400072E01300310F00DF10DFF3EF9
:102C0600031DFF2D0130F407F11F0A2E0B2EFE2D9A
:102C160001300310F60DF70DFF3E031D0C2E710853
:102C26007302031D182E70087202031C1B2E1C2E25
:102C3600232E7008F2027108031CF303F3027614C4
:102C460001300310F10CF00CFF3E031D242E013061
:102C5600F402031D2F2E302E0B2E75080319342E69
:102C6600352E3A2EF609F709F60A0319F70A7708F8
:102C7600F1007608F00008000A168A11FC200A16F0
:102C86008A11D0300A168A1153210A168A11003A7F
:102C9600031D4E2E4F2EC02E00300A168A115321C8
:102CA6000A168A110A168A1106210A168A11523044
:102CB60083120313A400A40B5E2E00000A168A11C9
:102CC600FC200A168A11D1300A168A1153210A16D7
:102CD6008A11003A031D702E712EC02E0A168A1113
:102CE60026210A168A1183120313A5000A168A11D1
:102CF60010210A168A11831203132308840025085B
:102D06007F390A168A1178210A168A1183138000E0
:102D16000A168A1126210A168A1183120313A500A0
:102D26000A168A1110210A168A1183120313220821
:102D3600840025087F390A168A1178210A168A1115
:102D4600831380000A168A1126210A168A11831215
:102D56000313A5000A168A111B210A168A1183126B
:102D660003132108840025083F390A168A117821A1
:102D76000A168A1183138000CC2E831203132308AC
:102D860084008313800122088400800121088400C6
:102D960080010A168A1106210A168A1108000A16E7
:102DA6008A11FC200A168A11D0300A168A1153217C
:102DB6000A168A11003A031DE12EE22E522F043024
:102DC6000A168A1153210A168A110A168A11062131
:102DD6000A168A11523083120313A400A40BF12E93
:102DE60000000A168A11FC200A168A11D1300A162A
:102DF6008A1153210A168A11003A031D032F042F44
:102E0600522F0A168A1126210A168A1183120313D3
:102E1600A5000A168A1110210A168A1183120313B5
:102E26002108840025083F390A168A1178210A16D6
:102E36008A11831380000A168A1126210A168A111E
:102E460083120313A5000A168A1110210A168A1185
:102E5600831203132208840025081F390A168A11D3
:102E660078210A168A11831380000A168A112621F0
:102E76000A168A1183120313A5000A168A111B214A
:102E86000A168A11831203132308840025080A16DA
:102E96008A1178210A168A1183138000602F831203
:102EA6000313210884000130831380002208840064
:102EB600013080002308840080010A168A11062149
:102EC6000A168A1108007208730403196B2F6C2FF7
:102ED600722F72087304031D712F722F792F7008D9
:102EE6000A168A11F3200A168A11FF2F7208093E64
:102EF600F40073080318013E003EF50074088400D0
:102F06008317751C83130008F600840A0008F7006F
:102F1600760877040319902F912FC32F7208093E64
:102F2600F40073080318013E003EF500740884009F
:102F36008317751C83130008F600840A0008F7003F
:102F46007208023EF80073080318013E003EF900BD
:102F5600780884008317791C83130008FA00840A12
:102F66000008FB007B08803AFC007708803A7C0268
:102F7600031DBF2F76087A020318C22FC32FFF2F17
:102F8600720884008317731C83130008F400840AF4
:102F96000008F5007208023EF60073080318013EA9
:102FA600003EF700760884008317771C8313000819
:102FB6007407F9007508F8000318F80A801FE42F53
:102FC600F8037808FA007908840083177A1C8313BB
:102FD600700880007208023EF40073080318013E70
:102FE600003EF500740884008317751C83130130B6
:0A2FF6008007840A0318800A08000F
:04400E00E223FF3F6B
:00000001FF
