:100000000A128A11E72F0800F71B07280828092879
:1000100014287609F8007709F900F80A0319F90A93
:100020007808F6007908F70008000310831203131C
:100030005E0D5F0DE5006508031D1F282028292897
:100040000030DF000030DE000030DD000030DC007A
:100050008A285C08E0005D08E1005E08E2005F08B5
:10006000E3001F300310E30CE20CE10CE00CFF3E58
:10007000031D32286008E400DE17FF30DC05FF3086
:10008000DD05FF30DE050030DF059630E502E51FB7
:100090004A284B2863286508803A973E0318512860
:1000A00052285328202801300310DF0CDE0CDD0C11
:1000B000DC0CFF3E031D54280130E507031D6128B9
:1000C000622853287A2820306502031C6828692892
:1000D000752820280130E0000310DC0DDD0DDE0D59
:1000E000DF0DE00B6C280130E5026508031D79285F
:1000F0007A286A28640803197E287F288A28DC0960
:10010000DD09DE09DF09DC0A0319DD0A0319DE0A4D
:100110000319DF0A0800831203132D08B70080308B
:10012000B7052D08AE002E07BE00AC1F98289928F1
:100130009A283E143E0803199E289F28AF283E0A9D
:10014000031DA328A428AC280030AD000030AC006B
:100150000030AB000030AA00AC17AD01B72800306A
:10016000AD000030AC000030AB000030AA00290820
:100170008039B7062908AE002E07BF00A81FC12886
:10018000C228C3283F143F080319C728C828D82805
:100190003F0A031DCC28CD28D5280030A900003007
:1001A000A8000030A7000030A600A817A901E02889
:1001B0000030A9000030A8000030A7000030A600E1
:1001C0002908280427042604031DE728E828FF2817
:1001D0000030AD000030AC000030AB000030AA00B1
:1001E0008030AC047F30AD043708AD042D08A90081
:1001F0002C08A8002B08A7002A08A600542A3E08AD
:10020000031D032904290D290030A9000030A8008E
:100210000030A7000030A600542A3E08AE00AF010F
:100220002F08B1003F082E02B000031CB1033008B4
:100230007F3EB80031080318013E003EB9002D088A
:10024000B6002C08B5002B08B4002A08B300003013
:10025000AD000030AC000030AB000030AA00003030
:10026000BD000030BC000030BB000030BA00BF0150
:1002700081293F0803193D293E295E290130AE003E
:100280000310B30DB40DB50DB60DAE0B4029013002
:10029000AE000310AA0DAB0DAC0DAD0DAE0B492990
:1002A000BD1F5329542955292A140130AE000310CB
:1002B000BA0DBB0DBC0DBD0DAE0B5729290836027A
:1002C000031D6C2928083502031D6C2927083402F8
:1002D000031D6C2926083302031C6F2970297F290E
:1002E0003D172608B3022708031C270FB40228086D
:1002F000031C280FB5022908031C290FB602013080
:10030000BF071A303F02031C86298729392936087E
:1003100035043404330403198E298F29AE293A1485
:10032000AE290130AE000310AA0DAB0DAC0DAD0D22
:10033000AE0B9329BD1F9D299E299F292A140130A8
:10034000AE000310BA0DBB0DBC0DBD0DAE0BA12947
:10035000FF30B8070318B90AFF30B907AC1FB1293D
:10036000B2299129BF01BD1FB629B729D329FF3072
:100370003A05AE00FF303B05AF00FF303C05B00052
:100380007F303D05B100310830042F042E040319DD
:10039000CA29CB29CE290130BF00D3292A1CD12953
:1003A000D229D329CB293F080319D729D829092ACB
:1003B0000130AA07003003180130AB0700300318E2
:1003C0000130AC07003003180130AD072D1CE929BE
:1003D000EA29092A2A08AE002B08AF002C08B00031
:1003E0002D08B1000130B200310DB10CB00CAF0CD2
:1003F000AE0CB20BF4293108AD003008AC002F0868
:10040000AB002E08AA000130B8070318B90A003063
:10041000B9073908803AFF0080307F02031D122A95
:10042000FF303802031C152A162A242AFF308312B3
:100430000313B8000030B9000030AD000030AC004C
:100440000030AB000030AA00831203133908803A51
:10045000FF0080307F02031D2F2A0130380203186D
:10046000322A332A402A83120313B801B90100301B
:10047000AD000030AC000030AB000030AA00B70186
:10048000831203133808BE003E1C472A482A4A2A12
:10049000AC174C2A7F30AC053E08AE0003102E0C82
:1004A000AD003708AD04F628080083120313430893
:1004B000D0008030D0054308C8004807D200C21FD2
:1004C000622A632A642A521452080319682A692A84
:1004D000792A520A031D6D2A6E2A762A0030C3003B
:1004E0000030C2000030C1000030C000C217C3019C
:1004F000812A0030C3000030C2000030C10000304B
:10050000C0004708D1008030D105510850060319BA
:100510008A2A8B2A8C2A50174708C8004807D1001E
:10052000C61F932A942A952A511451080319992A0F
:100530009A2AAA2A510A031D9E2A9F2AA72A003016
:10054000C7000030C6000030C5000030C400C61728
:10055000C701B22A0030C7000030C6000030C50015
:100560000030C400520851020318B72AB82ADC2A06
:10057000501FBB2ABC2ABE2A8030D0065208D300A6
:100580005108D2005308D1004008D3004408C000ED
:100590005308C4004108D3004508C1005308C500F2
:1005A0004208D3004608C2005308C6004308D300DF
:1005B0004708C3005308C700D3015108C800C90148
:1005C0004908CB0052084802CA00031CCB034B0861
:1005D000803AFF0080307F02031DF02A1A304A0261
:1005E000031CF32AF42A292B831203134308420421
:1005F00041044004031DFD2AFF2A0130002B003076
:10060000D3000030C3000030C2000030C100003011
:10061000C0005108D200312B531C0F2B102B172B6D
:100620005308C8000310480C0138D300192B0310DD
:10063000D30C401C1C2B1D2B1E2BD3170130C800C4
:10064000430DC30CC20CC10CC00CC80B202B0130D5
:10065000D2078312031351085202031C302B312B93
:100660000C2B501B342B352B7C2B5208031D392BA4
:100670003A2B432B0030C3000030C2000030C100D1
:100680000030C000A42C4408C0074508031103181B
:10069000013E03194C2BC107460803110318013E04
:1006A0000319532BC207470803110318013E03190E
:1006B0005A2BC307431C5D2B5E2B302C531C612B24
:1006C000622B692B5308C8000310480C0138D30073
:1006D0006B2B0310D30C401C6E2B6F2B702BD3177E
:1006E0000130C800430DC30CC20CC10CC00CC80BB8
:1006F000722B0130D207302C4308803AFF004708A4
:10070000803A7F02031D8E2B46084202031D8E2B6A
:1007100045084102031D8E2B440840020318912B0B
:10072000922BE92BFF30C800FF30C900FF30CA0010
:10073000FF30CB004408CC004508CD004608CE0071
:100740004708CF004008CC024108031C410FA92BE9
:10075000AA2BCD024208031C420FAF2BB02BCE02B6
:100760004308031C430FB52BB62BCF024C08C80718
:100770004D0803184D0FBD2BBE2BC9074E0803189B
:100780004E0FC32BC42BCA074F0803184F0ACB07C1
:100790004B08C3004A08C2004908C1004808C0000D
:1007A0008030D0065303FF3AD3005308031DD92BE2
:1007B000DA2BF72B0130C007003003180130C107D6
:1007C000003003180130C207003003180130C3079E
:1007D000F72B4408C0024508031C450FC102460818
:1007E000031C460FC2024708031C470FC3024308FD
:1007F000420441044004031DFE2BFF2B2C2C530804
:10080000031D032C042C2C2C0030C3000030C2002C
:100810000030C1000030C000A42C0130C80003101B
:10082000C00DC10DC20DC30DC80B0F2CD31F192C49
:100830001A2C1B2C4014531C1E2C1F2C232C03146D
:10084000530DD300252C0310D30D52080319292C66
:100850002A2C2C2C0130D202C21F2F2C302C0D2C14
:10086000D101D31F342C352C432C53087F39031965
:100870003A2C3B2C3E2C0130D100432C401C412C07
:10088000422C432C3B2C51080319472C482C7A2C22
:100890000130C007003003180130C10700300318D1
:1008A0000130C207003003180130C307431C592C24
:1008B0005A2C7A2C4008C8004108C9004208CA00D6
:1008C0004308CB000130CC004B0DCB0CCA0CC90C3B
:1008D000C80CCC0B642C4B08C3004A08C200490862
:1008E000C1004808C000520A0319772C782C7A2CD2
:1008F0000130D207520A03197E2C7F2C842C520817
:10090000031D832C842C922C0030C3000030C200C5
:100910000030C1000030C0005208031D902C912C03
:10092000922CD001521C952C962C982CC2179A2CE4
:100930007F30C2055208C8000310480CC300D01F06
:10094000A22CA32CA42CC317080083120313230882
:10095000A8008030A8052308F9007907AE00A21F7F
:10096000B22CB32CB42C2E142E080319B82CB92C8D
:10097000C82C2E0A031DBD2CBE2CC62C0030A30093
:100980000030A2000030A1000030A000A217D02C3F
:100990000030A3000030A2000030A1000030A00011
:1009A00027088039A8062708F9007907AD00A61F97
:1009B000DA2CDB2CDC2C2D142D080319E02CE12C77
:1009C000F02C2D0A031DE52CE62CEE2C0030A700A0
:1009D0000030A6000030A5000030A400A617F82CB7
:1009E0000030A7000030A6000030A5000030A400B1
:1009F0002D080319FC2CFD2C022D2E08031D012DA2
:100A0000022D0B2D0030A3000030A2000030A10009
:100A10000030A000E62F2008F00026080A128A15F0
:100A20006C200A128A11710883120313B400700833
:100A3000B3003308F900FA01FB01FC017C08AC00AB
:100A40007B08AB007A08AA007908A9003408F900ED
:100A5000FA01FB01FC017C08B2007B08B1007A08B6
:100A6000B0007908AF002108F00025080A128A15A5
:100A70006C200A128A11710883120313B4007008E3
:100A8000B3003308F900FA01FB01FC017908A9075A
:100A90007A0803110318013E03194F2DAA077B089A
:100AA00003110318013E0319562DAB077C080311EF
:100AB0000318013E03195D2DAC073408F900FA0153
:100AC000FB01FC017908AF077A0803110318013E06
:100AD00003196B2DB0077B0803110318013E03199E
:100AE000722DB1077C0803110318013E0319792DFB
:100AF000B2072208F00024080A128A156C200A1294
:100B00008A11710883120313B4007008B30033080C
:100B1000F900FA01FB01FC017908A9077A08031121
:100B20000318013E0319952DAA077B08031103182A
:100B3000013E03199C2DAB077C0803110318013EED
:100B40000319A32DAC073408F900FA01FB01FC01DD
:100B50007908AF077A0803110318013E0319B12D74
:100B6000B0077B0803110318013E0319B82DB10724
:100B70007C0803110318013E0319BF2DB20708308A
:100B8000F9000310A90DAA0DAB0DAC0DF90BC12D89
:100B90002108F00024080A128A156C200A128A1112
:100BA000710883120313B4007008B3003308F9000E
:100BB0003408FA00FB01FC017908A9077A0803113F
:100BC0000318013E0319E52DAA077B08031103183A
:100BD000013E0319EC2DAB077C0803110318013EFD
:100BE0000319F32DAC072008F00025080A128A1516
:100BF0006C200A128A11710883120313B400700862
:100C0000B3003308F9003408FA00FB01FC0179084D
:100C1000A9077A0803110318013E0319102EAA0729
:100C20007B0803110318013E0319172EAB077C083C
:100C300003110318013E03191E2EAC070830F900FA
:100C40000310A90DAA0DAB0DAC0DF90B202E200839
:100C5000F00024080A128A156C200A128A11710801
:100C600083120313B4007008B3003308F90034088A
:100C7000FA00FB01FC017908A9077A08031103189F
:100C8000013E0319442EAA077B0803110318013EF5
:100C900003194B2EAB077C0803110318013E0319FF
:100CA000522EAC072108F00026080A128A156C2083
:100CB0000A128A11710883120313B4007008B3007A
:100CC0003308F9003408FA00FB01FC017908AF078A
:100CD0007A0803110318013E03196F2EB0077B0831
:100CE00003110318013E0319762EB1077C08031186
:100CF0000318013E03197D2EB2072208F0002508D3
:100D00000A128A156C200A128A11710883120313C1
:100D1000B4007008B3003308F9003408FA00FB018E
:100D2000FC017908AF077A0803110318013E031983
:100D30009A2EB0077B0803110318013E0319A12E58
:100D4000B1077C0803110318013E0319A82EB2074E
:100D50002208F00026080A128A156C200A128A114D
:100D6000710883120313B4007008B3003308F9004C
:100D70003408FA00FB01FC0108300310F90DFA0DEC
:100D8000FB0DFC0DFF3E031DBD2E7908AF077A0851
:100D900003110318013E0319CE2EB0077B0803117F
:100DA0000318013E0319D52EB1077C08031103185F
:100DB000013E0319DC2EB2072908F9002A08FA00BF
:100DC0002B08FB002C08FC0018300310FC0CFB0C5B
:100DD000FA0CF90CFF3E031DE52E7908AF077A08DF
:100DE00003110318013E0319F62EB0077B08031107
:100DF0000318013E0319FD2EB1077C0803110318E7
:100E0000013E0319042FB2070830F9000310A90DA1
:100E1000AA0DAB0DAC0DF90B062F2E082D07F9000E
:100E2000FA01FA0D7908823EB3007A080318013EF0
:100E3000FF3EB400382F0130F9000310AF0DB00DA4
:100E4000B10DB20DF90B1D2FAC1F272F282F292F05
:100E50002F140130F9000310A90DAA0DAB0DAC0D34
:100E6000F90B2B2FFF30B3070318B40AFF30B40778
:100E7000B11F3B2F3C2F1B2FAD01AC1F402F412F2B
:100E80005D2FFF302905F900FF302A05FA00FF30F9
:100E90002B05FB007F302C05FC007C087B047A04CA
:100EA00079040319542F552F582F0130AD005D2FB1
:100EB0002F1C5B2F5C2F5D2F552F2D080319612FE1
:100EC000622F932F0130AF07003003180130B007B5
:100ED000003003180130B107003003180130B207A9
:100EE000321C732F742F932F2F08F9003008FA004B
:100EF0003108FB003208FC000130FD007C0DFC0CC9
:100F0000FB0CFA0CF90CFD0B7E2F7C08B2007B0861
:100F1000B1007A08B0007908AF000130B3070318B8
:100F2000B40A0030B4073408803AFF0080307F02F2
:100F3000031D9C2FFF303302031C9F2FA02FAB2FCC
:100F40007F3083120313B2008030B1000030B00054
:100F50000030AF00DC2F831203133408803AFF0007
:100F600080307F02031DB62F013033020318B92FE2
:100F7000BA2FC62F003083120313B2000030B10025
:100F80000030B0000030AF00A801DC2F8312031343
:100F90003308AE00FF30AF05FF30B0057F30B1053C
:100FA0000030B2052E1CD52FD62FD72FB1172E0803
:100FB000F9000310790CB2002808B2043208A3002B
:100FC0003108A2003008A1002F08A00008008312F9
:100FD0000313EF018313A0308400CA300A168A116C
:100FE00069260A128A11831790308400B0300A16DD
:100FF0008A1169260A128A1183010A128A15A62EFD
:10100000FF1B0A2883137F1883170008840A03191B
:10101000FF0A080008308A000408840A82070034A6
:1010200020345234653469346E34743465346E342B
:10103000743461346E3464346F342E342E3400349E
:10104000203443346834653463346B34203463347F
:101050006F346E346534783469346F346E340034F0
:1010600020344534723472346F3472342034443452
:1010700048345434313431340034203448346F34FB
:101080006C34643420346F346E342E342E342E3469
:101090000034483475346D3420343A34203400340C
:1010A000543465346D3470343A342034003425348B
:0A10B00064342E3425346434003417
:1010BC00F00070088312031393008C1D66286728B8
:1010CC0063288C118316031311080800F800F4012F
:1010DC00F5017008F200F3017208F6007308F700CE
:1010EC00781C79287A2880287608F4070318F50AE2
:1010FC007708F50701300310F60DF70DFF3E031DC1
:10110C0081280310F80C7808031D8D288E2876286A
:10111C007508F1007408F0000800F2007208F30082
:10112C00F030F3057208F10003300310F10DFF3EAF
:10113C00031D9B280310710DF400F030F4050A1602
:10114C008A1171260A128A154E300A128A155E20EF
:10115C000A128A1573080C380A128A155E200A12B4
:10116C008A15730808380A128A155E200A128A1525
:10117C0074080C380A128A155E200A128A15740833
:10118C0008380A128A155E200A128A150A168A1164
:10119C007B260A128A150800F2007208F300F03060
:1011AC00F3057208F10003300310F10DFF3E031D2F
:1011BC00DA280310710DF400F030F4050A168A11C8
:1011CC0071260A128A154E300A128A155E200A12EE
:1011DC008A1573080D380A128A155E200A128A15B0
:1011EC00730809380A128A155E200A128A157408C7
:1011FC000D380A128A155E200A128A1574080938ED
:10120C000A128A155E200A128A150A168A117B2682
:10121C000A128A150800F501F31F152916291D2934
:10122C00F209F309F20A0319F30A0130F500F11F70
:10123C00202921292629F009F109F00A0319F10ABC
:10124C007008710403192B292C2959290130F40039
:10125C00382901300310F00DF10DFF3E031D30292C
:10126C000130F407F11F3B293C292F297108730227
:10127C00031D422970087202031C452946294C297A
:10128C007008F2027108031CF303F302013003101F
:10129C00F10CF00CFF3E031D4D290130F402031D2F
:1012AC00582959293C29750803195D295E29632998
:1012BC00F209F309F20A0319F30A7308F100720830
:1012CC00F0000800F501F11F6C296D297429F00953
:1012DC00F109F00A0319F10A0130F500F31F77291F
:1012EC0078297F29F209F309F20A0319F30A01306C
:1012FC00F506F601F7017008710403198629872990
:10130C00BC290130F400932901300310F00DF10DCC
:10131C00FF3E031D8B290130F407F11F96299729F5
:10132C008A2901300310F60DF70DFF3E031D982995
:10133C0071087302031DA42970087202031CA729EB
:10134C00A829AF297008F2027108031CF303F302F9
:10135C00761401300310F10CF00CFF3E031DB02984
:10136C000130F402031DBB29BC2997297508031908
:10137C00C029C129C629F609F709F60A0319F70A83
:10138C007708F1007608F00008007208730403195E
:10139C00D029D129D72972087304031DD629D7293E
:1013AC00DE2970080A128A1103200A128A15642A8F
:1013BC007208093EF40073080318013E003EF50064
:1013CC00740884008317751C83130008F600840AC4
:1013DC000008F700760877040319F529F629282A5E
:1013EC007208093EF40073080318013E003EF50034
:1013FC00740884008317751C83130008F600840A94
:10140C000008F7007208023EF80073080318013E4A
:10141C00003EF900780884008317791C83130008B8
:10142C00FA00840A0008FB007B08803AFC0077086D
:10143C00803A7C02031D242A76087A020318272A94
:10144C00282A642A720884008317731C83130008EB
:10145C00F400840A0008F5007208023EF6007308D6
:10146C000318013E003EF700760884008317771CB2
:10147C00831300087407F9007508F8000318F80ABC
:10148C00801F492AF8037808FA007908840083172A
:10149C007A1C8313700880007208023EF4007308F3
:1014AC000318013E003EF500740884008317751C78
:1014BC00831301308007840A0318800A0800003067
:1014CC007005F80000307105F90080307205FA00E3
:1014DC007F307305FB007B087A0479047804031DC4
:1014EC00782A792A812A0030F3000030F20000308B
:1014FC00F1000030F00000307405F8000030750584
:10150C00F90080307605FA007F307705FB007B0808
:10151C007A0479047804031D942A952A9D2A0030B4
:10152C00F7000030F6000030F5000030F400F31F37
:10153C00A02AA12AC52A0030F8000030F90000309A
:10154C00FA008030FB007008F8027108031C710F60
:10155C00B02AB12AF9027208031C720FB62AB72AF4
:10156C00FA027308031C730FBC2ABD2AFB027B080A
:10157C00F3007A08F2007908F1007808F000F71F00
:10158C00C82AC92AED2A0030F8000030F9000030D2
:10159C00FA008030FB007408F8027508031C750F04
:1015AC00D82AD92AF9027608031C760FDE2ADF2AFC
:1015BC00FA027708031C770FE42AE52AFB027B0862
:1015CC00F7007A08F6007908F5007808F400803006
:1015DC00F3068030F70677087302031DFF2A76089E
:1015EC007202031DFF2A75087102031DFF2A74087D
:1015FC0070020318022B032B052B0310062B03146C
:10160C00080083120313A000200803190E2B0F2BC4
:10161C00232BF91F122B132B232B7609A2007709EE
:10162C00A3007809A4007909A500A20A0319A30A4A
:10163C000319A40A0319A50A2B2B7908A50078080D
:10164C00A4007708A3007608A20079087804770430
:10165C007604031D322B332B3C2B0030F900003069
:10166C00F8000030F7000030F600BC2B9630A100DB
:10167C004A2B0130A10701300310A50CA40CA30CBC
:10168C00A20CFF3E031D422BFE302505031D4F2BE4
:10169C00502B3F2B6A2B0130A1070130A2070030E1
:1016AC0003180130A307003003180130A4070030E1
:1016BC0003180130A50701300310A50CA40CA30CD2
:1016CC00A20CFF3E031D622BFF302505031D6F2B63
:1016DC00702B512B7C2B0130A1020130FA0003102E
:1016EC00A20DA30DA40DA50DFA0B752BA41B7F2B1E
:1016FC00802B862B023021020318852B862B712B15
:10170C002118892B8A2B922BFF30A205FF30A305C1
:10171C007F30A405FF30A5050310A10C2108FA00A9
:10172C00FB01FC01FD0118300310FA0DFB0DFC0D43
:10173C00FD0DFF3E031D9A2B7A08A2047B08A3041F
:10174C007C08A4047D08A50420080319AE2BAF2B3C
:10175C00B42BF91FB22BB32BB42BA5172508F9000A
:10176C002408F8002308F7002208F600080083126A
:10177C0003136908F3006808F2006708F1006608B3
:10178C00F0000030F7000030F6000030F5000030BB
:10179C00F4000A128A1565220A128A150318D72B2F
:1017AC00D82BF12B831203136908F3006808F2009D
:1017BC006708F1006608F0000A168A118F260A12D3
:1017CC008A15730883120313E9007208E800710884
:1017DC00E7007008E600831203136908DF0068084D
:1017EC00DE006708DD006608DC000A128A1115208D
:1017FC000A128A15831203135D08EE005C08ED00D3
:10180C006908A7006808A6006708A5006608A40078
:10181C004130A3002030A2000030A1000030A00015
:10182C000A128A11A5240A128A158312031323089B
:10183C00DB002208DA002108D9002008D8000A3081
:10184C00F2000030F3006E08F1006D08F0000A168B
:10185C008A1133270A128A157008F6007108F700EE
:10186C000030F71BFF30F800F90001300A128A151E
:10187C0007230A128A15790883120313D7007808F4
:10188C00D6007708D5007608D4000A168A110F27DF
:10189C000A128A15831203135708DF005608DE005C
:1018AC005508DD005408DC000A128A1115200A12B2
:1018BC008A15831203135D08EC005C08EB006A08C0
:1018CC00B1004830B2006E08B4006D08B3006C086B
:1018DC00B6006B08B5000A168A11EC260A128A1596
:1018EC0008008312031322088400000884000A12E3
:1018FC008A150A200A128A15253A031D862C872C74
:10190C00472D220884000130800783160313A5019C
:10191C00A6010030A900FF30A700FF30A8008312F9
:10192C000313220884000008A700270884000A1269
:10193C008A150A200A128A15643A0319A62CA72CB8
:10194C00B32C270884000A128A150A200A128A1559
:10195C00693A031DB22CB32C402D23088400831349
:10196C000008FF00023080077F0884000008A800F0
:10197C00840A0008A900220884002708013E800080
:10198C002030AC00A91BCB2CCD2C0130CE2C003040
:10199C00A6000130AC022C08903E84000A30F00006
:1019AC000030F1002908F3002808F2000A128A1509
:1019BC0011210A128A157108F7007008F6000A1234
:1019CC008A1104200A128A157608303E831780008B
:1019DC000A30F0000030F100831203132908F300E1
:1019EC002808F2000A128A1568210A128A15710851
:1019FC0083120313A9007008A800280829040319EE
:101A0C00082D092D0E2D2C08031D0D2D0E2DCF2C60
:101A1C002C080319122D132D392D26080319172DF7
:101A2C00182D392D0130AC022C08903E84002D303D
:101A3C0083178000392D2C08903E840083170008F2
:101A4C00A400A5012408F0002508F1002008F200EC
:101A5C002108F3000A128A15CB210A128A150130CB
:101A6C0083120313AC0720302C06031D3E2D3F2D93
:101A7C00212D602D8312031322088400013080076E
:101A8C00602D22088400000884000A128A150A209E
:101A9C000A128A15A400A5012408F0002508F100FB
:101AAC002008F2002108F3000A128A15CB210A1231
:101ABC008A15402D08008312031305108316031397
:101ACC000510823083120313D700DD30D600D60BFD
:101ADC006D2DD70B6D2D8316031305143130831226
:101AEC000313D600D60B782D83120313810105182E
:101AFC00802D812D7D2D8101051C852D862D822D1E
:101B0C00810105188A2D8B2D872DDF010A168A116C
:101B1C00C9260A128A15003A031D952D962D982D6B
:101B2C000030A52E831203135F08A03E84006F08BB
:101B3C00831380000130DF0705305F02031CA72DE3
:101B4C00A82D8C2D8316031322082107831203134F
:101B5C00D600831603132308831203135607D700EA
:101B6C00831603132008831203135707DE00831612
:101B7C0003132408831203135E060319C62DC72D05
:101B8C00C82D962D4130A9002030A8000030A700A8
:101B9C000030A60083160313210883120313D6000A
:101BAC00D701D801D9015908F9005808F80057088D
:101BBC00F7005608F60000300A128A1507230A129D
:101BCC008A15790883120313AD007808AC007708E6
:101BDC00AB007608AA000A128A118B200A128A1509
:101BEC00831203132908C3002808C2002708C10068
:101BFC002608C00083160313200883120313DA008F
:101C0C00DB01DC01DD015D08F9005C08F8005B0814
:101C1C00F7005A08F60000300A128A1507230A1238
:101C2C008A15790883120313C7007808C600770851
:101C3C00C5007608C4000A128A1155220A128A15A8
:101C4C008312031354088400400883138000840A11
:101C5C0041088000840A42088000840A43088000FE
:101C6C004130A9002030A8000030A7000030A600A9
:101C7C0083160313230883120313D600D701D8014C
:101C8C00D9015908F9005808F8005708F700560808
:101C9C00F60000300A128A1507230A128A157908F1
:101CAC0083120313AD007808AC007708AB007608FC
:101CBC00AA000A128A118B200A128A1583120313A6
:101CCC002908C3002808C2002708C1002608C00044
:101CDC0083160313220883120313DA00DB01DC01E1
:101CEC00DD015D08F9005C08F8005B08F7005A0894
:101CFC00F60000300A128A1507230A128A15790891
:101D0C0083120313C7007808C6007708C50076084D
:101D1C00C4000A128A1155220A128A15831203135F
:101D2C0055088400400883138000840A4108800011
:101D3C00840A42088000840A4308800001300800AD
:101D4C0083160313CD018316031788018901803094
:101D5C000A168A11AA260A128A150330831603134F
:101D6C00CC008A30CB005530CA00CA0BBB2ECB0B33
:101D7C00BB2ECC0BBB2E0A168A11C9270A128A1548
:101D8C00023083160313CC004530CB00A930CA00B7
:101D9C00CA0BCE2ECB0BCE2ECC0BCE2E0A168A1106
:101DAC0085260A128A15F501F50A02300A168A11DF
:101DBC007D270A128A152E30F5008030F6000A169F
:101DCC008A11A3270A128A15333083160313CC0009
:101DDC00BB30CB00DF30CA00CA0BF22ECB0BF22E7D
:101DEC00CC0BF22ED23083120313D400CE30D5009C
:101DFC000A128A1561250A128A15003A0319072F4F
:101E0C00082FB12F83160313CD015108831203132E
:101E1C00E90083160313500883120313E80083169A
:101E2C0003134F0883120313E700831603134E08A2
:101E3C0083120313E600BA30EA000A128A15BD2396
:101E4C000A128A1583160313550883120313E9002B
:101E5C0083160313540883120313E8008316031329
:101E6C00530883120313E7008316031352088312DB
:101E7C000313E600AA30EA000A128A15BD230A12DF
:101E8C008A150A168A119A260A128A150D3083169B
:101E9C000313CB00FB30CA00CA0B522FCB0B522FB3
:101EAC00F501F50A01300A168A117D270A128A15E6
:101EBC00523083160313CA00CA0B622F0000413044
:101ECC00F5008030F6000A168A11A3270A128A152B
:101EDC00BA30F5000030F6000A168A11A3270A1250
:101EEC008A1520300A128A15D2200A128A1543301C
:101EFC000A128A15D2200A128A150230F500013016
:101F0C000A168A117D270A128A155230831603137A
:101F1C00CA00CA0B8F2F00003A30F5008030F60053
:101F2C000A168A11A3270A128A15AA30F500003066
:101F3C00F6000A168A11A3270A128A1520300A12F3
:101F4C008A15D2200A128A1525300A128A15D22037
:101F5C000A128A15EE2F013083160313CD070A16C9
:101F6C008A119A260A128A15F501F50A01300A1609
:101F7C008A117D270A128A152130F5008030F6006F
:101F8C000A168A11A3270A128A15F501F50A0230DE
:101F9C000A168A117D270A128A1503308316031339
:101FAC004D020318DA2FDB2FE52F0130F5008030BE
:101FBC00F6000A168A11A3270A128A15EE2F113081
:101FCC00F5008030F6000A168A11A3270A128A152A
:101FDC00403083160313CC006A30CB009730CA0014
:101FEC00CA0BF62FCB0BF62FCC0BF62FF82E0A12B2
:041FFC008A1100281E
:102CD20064008001840A04060319003404066A2E83
:102CE20083160313111483128C1D782E792E742EE1
:102CF2008C11080083160313111583128C1D822E6A
:102D0200832E7E2E8C110800831603130514811264
:102D120081110108F8390138810008007308720432
:102D2200710470040319962E972E992E8030F306A3
:102D3200080001300A128A1593200A168A110D30F2
:102D4200F600FB30F500F50BA42EF60BA42EA92EEF
:102D52000800F00083160313871507167008940005
:102D620028308312031394008316031391018030D9
:102D72007006031DBD2EBE2EC12E31309300C82E0B
:102D82007008031DC52EC62EC82E0C3093000800F5
:102D920083120313EF01F1018101051CD12ED22E02
:102DA200CE2E81010518D62ED72ED32E0108F00083
:102DB2000310EF0D33307002031CE02EE12EE22EE1
:102DC2006F140130F10708307102031CE92EEA2E5C
:102DD200CD2E01300800333083120313B8003108BE
:102DE200B9000030BA00BB01BC01C201C3013930D5
:102DF200AD000030AE003208AF003830B0000A1625
:102E02008A1158270A168A11831203133B083107C5
:102E1200B7003708840083138001080080308312D2
:102E22000313D7065B08C3005A08C2005908C10041
:102E32005808C0005708C7005608C6005508C50004
:102E42005408C4000A128A1155220A168A118312E2
:102E520003134308D7004208D6004108D5004008B2
:102E6200D4000800F401F501701C382F392F3F2FD0
:102E72007208F4070318F50A7308F5070130031006
:102E8200F20DF30DFF3E031D402F01300310F10C34
:102E9200F00CFF3E031D472F70087104031D522FD3
:102EA200532F352F7508F1007408F00008008312C3
:102EB20003132F08FD006C2F831203132D08A000AB
:102EC2002E08A1007D30A2003008A3000A128A1544
:102ED20077240A168A117D0884000A128A150A20AC
:102EE2000A168A11003A031D772F782F5D2F83125D
:102EF2000313AD01AE010800F6008A2FF701982FE7
:102F02004030F700982F1430F700982F5430F70014
:102F1200982F7508013A03197F2F033A0319812F5D
:102F2200013A0319842F073A0319872F7F2F760856
:102F3200FF3EF707770880380A128A1593200A168F
:102F42008A110800B82F7608FF00750884000A125B
:102F52008A1500200A168A110A128A15D2200A1628
:102F62008A110130F5070318F60A0030F6077608D1
:102F720083120313FF00750884000A128A150020C9
:102F82000A168A11003A031DC72FC82FA42F080062
:102F92008230F600DD30F500F50BCD2FF60BCD2F8C
:102FA200D22F33300A128A1593200A168A11323030
:102FB2000A128A1593200A168A1128300A128A15D3
:102FC20093200A168A110C300A128A1593200A16C7
:102FD2008A1106300A128A1593200A168A110130C4
:102FE2000A128A1593200A168A111430F6007930D3
:0E2FF200F500F50BFA2FF60BFA2FFF2F080053
:02400E00E223AB
:00000001FF
