:060000000A128A11EA2F2A
:10000C000800F501F11F0B280C281328F009F10941
:10001C00F00A0319F10A0130F500F31F162817280E
:10002C001E28F209F309F20A0319F30A0130F50646
:10003C00F601F701700871040319252826285B289E
:10004C000130F400322801300310F00DF10DFF3EA9
:10005C00031D2A280130F407F11F352836282928DA
:10006C0001300310F60DF70DFF3E031D3728710804
:10007C007302031D432870087202031C462847288C
:10008C004E287008F2027108031CF303F302761475
:10009C0001300310F10CF00CFF3E031D4F28013012
:1000AC00F402031D5A285B283628750803195F28AB
:1000BC0060286528F609F709F60A0319F70A770884
:1000CC00F1007608F0000800831203133D08840049
:1000DC008313000884000A168A110A200A128A1156
:1000EC00253A031D7A287B282C293D0884000130F1
:1000FC00800783160313E001E1010030E400FF30B8
:10010C00E200FF30E30083120313C501A728831616
:10011C000313E414831203133D0884000130800799
:10012C00A7280130C500A7283D08840000088400DA
:10013C000A168A110A200A128A11303A03198D28DC
:10014C00972845080319AB28AC289A283D08F600D7
:10015C003E08F7000A168A117D250A128A117708C3
:10016C0083160313E1007608E000E11FBE28BF28C8
:10017C00C5286414E009E109E00A0319E10A8312B5
:10018C0003133D08840083130008C600460884004E
:10019C000A168A110A200A128A11643A0319D728FE
:1001AC00D828E428460884000A168A110A200A1264
:1001BC008A11693A031DE328E42804293E088400C7
:1001CC000008FF00023080077F0884000008C1008F
:1001DC00840A0008C2003D0884004608013E8000E5
:1001EC003B08AF003C08B0004208B2004108B10027
:1001FC000A128A15D0210A128A1145293D08840059
:10020C00000884000A168A110A200A128A11253A5B
:10021C00031D1129122924293D088400013080076F
:10022C002530F0000030F1003B08F2003C08F300F0
:10023C000A128A1582200A128A1145298312031385
:10024C003D08840001308313800745293D08840054
:10025C00000884000A168A110A200A128A11BF00AB
:10026C00C0013F08F0004008F1003B08F2003C08D8
:10027C00F3000A128A1582200A128A112429080016
:10028C00831203135908E3008030E3055908DE009C
:10029C005E07E900D81F53295429552969146908A8
:1002AC00031959295A296929690A031D5E295F29ED
:1002BC0067290030D9000030D8000030D70000305A
:1002CC00D600D81771290030D9000030D800003082
:1002DC00D7000030D6005D088039E3065D08DE00EB
:1002EC005E07E800DC1F7B297C297D2968146808DF
:1002FC000319812982299129680A031D86298729D6
:10030C008F290030DD000030DC000030DB000030D5
:10031C00DA00DC1799290030DD000030DC000030F9
:10032C00DB000030DA00680803199D299E29A329F7
:10033C006908031DA229A329AC290030D90000307B
:10034C00D8000030D7000030D600872C5608F000BB
:10035C005C080A168A1116230A128A117108831274
:10036C000313EF007008EE006E08DE00DF01E00101
:10037C00E1016108E7006008E6005F08E5005E083F
:10038C00E4006F08DE00DF01E001E1016108ED002F
:10039C006008EC005F08EB005E08EA005708F0000C
:1003AC005B080A168A1116230A128A117108831225
:1003BC000313EF007008EE006E08DE00DF01E001B1
:1003CC00E1015E08E4075F0803110318013E0319FD
:1003DC00F029E507600803110318013E0319F729FA
:1003EC00E607610803110318013E0319FE29E7070C
:1003FC006F08DE00DF01E001E1015E08EA075F083B
:10040C0003110318013E03190C2AEB0760080311B2
:10041C000318013E0319132AEC0761080311031892
:10042C00013E03191A2AED075808F0005A080A165B
:10043C008A1116230A128A11710883120313EF0012
:10044C007008EE006E08DE00DF01E001E1015E08DD
:10045C00E4075F0803110318013E0319362AE50768
:10046C00600803110318013E03193D2AE6076108D1
:10047C0003110318013E0319442AE7076F08DE0035
:10048C00DF01E001E1015E08EA075F0803110318D0
:10049C00013E0319522AEB07600803110318013EB1
:1004AC000319592AEC07610803110318013E0319BB
:1004BC00602AED070830DE000310E40DE50DE60DB3
:1004CC00E70DDE0B622A5708F0005A080A168A114B
:1004DC0016230A128A11710883120313EF00700895
:1004EC00EE006E08DE006F08DF00E001E1015E083F
:1004FC00E4075F0803110318013E0319862AE50778
:10050C00600803110318013E03198D2AE6076108E0
:10051C0003110318013E0319942AE7075608F0004B
:10052C005B080A168A1116230A128A1171088312A3
:10053C000313EF007008EE006E08DE006F08DF009A
:10054C00E001E1015E08E4075F0803110318013EB6
:10055C000319B12AE507600803110318013E0319BA
:10056C00B82AE607610803110318013E0319BF2AD4
:10057C00E7070830DE000310E40DE50DE60DE70D8E
:10058C00DE0BC12A5608F0005A080A168A111623E7
:10059C000A128A11710883120313EF007008EE001F
:1005AC006E08DE006F08DF00E001E1015E08E40781
:1005BC005F0803110318013E0319E52AE5076008DB
:1005CC0003110318013E0319EC2AE6076108031115
:1005DC000318013E0319F32AE7075708F0005C08DB
:1005EC000A168A1116230A128A1171088312031330
:1005FC00EF007008EE006E08DE006F08DF00E0010F
:10060C00E1015E08EA075F0803110318013E0319B4
:10061C00102BEB07600803110318013E0319172B6D
:10062C00EC07610803110318013E03191E2BED079B
:10063C005808F0005B080A168A1116230A128A1150
:10064C00710883120313EF007008EE006E08DE00D1
:10065C006F08DF00E001E1015E08EA075F080311A3
:10066C000318013E03193B2BEB0760080311031819
:10067C00013E0319422BEC07610803110318013EDC
:10068C000319492BED075808F0005C080A168A116B
:10069C0016230A128A11710883120313EF007008D3
:1006AC00EE006E08DE006F08DF00E001E1010830AB
:1006BC000310DE0DDF0DE00DE10DFF3E031D5E2B83
:1006CC005E08EA075F0803110318013E03196F2B3C
:1006DC00EB07600803110318013E0319762BEC0796
:1006EC00610803110318013E03197D2BED07640803
:1006FC00DE006508DF006608E0006708E1001830DE
:10070C000310E10CE00CDF0CDE0CFF3E031D862B0E
:10071C005E08EA075F0803110318013E0319972BC3
:10072C00EB07600803110318013E03199E2BEC071D
:10073C00610803110318013E0319A52BED070830BE
:10074C00DE000310E40DE50DE60DE70DDE0BA72B27
:10075C0069086807DE00DF01DF0D5E08823EEE00EF
:10076C005F080318013EFF3EEF00D92B0130DE007D
:10077C000310EA0DEB0DEC0DED0DDE0BBE2BE71FA0
:10078C00C82BC92BCA2B6A140130DE000310E40DF0
:10079C00E50DE60DE70DDE0BCC2BFF30EE07031855
:1007AC00EF0AFF30EF07EC1FDC2BDD2BBC2BE80135
:1007BC00E71FE12BE22BFE2BFF306405DE00FF3040
:1007CC006505DF00FF306605E0007F306705E1005E
:1007DC00610860045F045E040319F52BF62BF92BFA
:1007EC000130E800FE2B6A1CFC2BFD2BFE2BF62B9C
:1007FC0068080319022C032C342C0130EA07003052
:10080C0003180130EB07003003180130EC070030FF
:10081C0003180130ED076D1C142C152C342C6A08B0
:10082C00DE006B08DF006C08E0006D08E1000130B1
:10083C00E200610DE10CE00CDF0CDE0CE20B1F2C76
:10084C006108ED006008EC005F08EB005E08EA0050
:10085C000130EE070318EF0A0030EF076F08803AFB
:10086C00FF0080307F02031D3D2CFF306E02031C05
:10087C00402C412C4C2C7F3083120313ED00803024
:10088C00EC000030EB000030EA007D2C83120313E7
:10089C006F08803AFF0080307F02031D572C013017
:1008AC006E0203185A2C5B2C672C00308312031336
:1008BC00ED000030EC000030EB000030EA00E3010A
:1008CC007D2C831203136E08E900FF30EA05FF301C
:1008DC00EB057F30EC050030ED05691C762C772C90
:1008EC00782CEC176908DE0003105E0CED00630831
:1008FC00ED046D08D9006C08D8006B08D7006A08A5
:10090C00D600080083160313CB01C501C60183165C
:10091C000317880189010D3083160313AC00AF3027
:10092C00AB00B530AA00AA0B992CAB0B992CAC0BD5
:10093C00992CA02C80300A168A1168220A128A116E
:10094C00033083160313AC008A30AB005530AA0079
:10095C00AA0BAE2CAB0BAE2CAC0BAE2C0A168A1120
:10096C0010240A128A11033083160313AC008A3048
:10097C00AB005530AA00AA0BC12CAB0BC12CAC0B95
:10098C00C12C0A168A110B220A128A118312031324
:10099C00A501A50A01300A168A1164230A128A11CC
:1009AC00423083120313A5008030A6000A168A1168
:1009BC008C230A128A11333083160313AC00BB301C
:1009CC00AB00DF30AA00AA0BE92CAB0BE92CAC0B6B
:1009DC00E92C0A168A11EB210A128A1103308316AC
:1009EC000313AC008A30AB005530AA00AA0BFC2CC8
:1009FC00AB0BFC2CAC0BFC2C0A168A117E260A12B3
:100A0C008A11033083160313AC008A30AB005530C7
:100A1C00AA00AA0B0F2DAB0B0F2DAC0B0F2D1E30FC
:100A2C0083120313A100A20113300A168A112B257D
:100A3C000A128A110A3083120313A1001930A20082
:100A4C001D300A168A11DB240A128A1127308316EC
:100A5C000313AC000D30AB002530AA00AA0B342DCB
:100A6C00AB0B342DAC0B342D3B2DD7308312031331
:100A7C00CE00D330CF000A128A159D220A128A1199
:100A8C0083160313CC000A168A110B220A128A1140
:100A9C00CD3083120313A100CE30A200CF30A300BF
:100AAC000A168A11D9260A128A11D030831203131E
:100ABC00A100D130A200D230A3000A168A116C27F3
:100ACC000A128A110330831603134602031C6F2D7E
:100ADC00702D7F2DD73083120313CE00D330CF006F
:100AEC000A128A159D220A128A1183160313CC004E
:100AFC00C6010130C60705304502031C862D872D23
:100B0C009F2D4B0803198B2D8D2D01308E2D003010
:100B1C00CB00C5010A168A110B220A128A110D305C
:100B2C0083160313AB00FB30AA00AA0B9B2DAB0B57
:100B3C009B2D831603134B08031DA52DA62D412EAB
:100B4C0083120313A501A50A01300A168A11642326
:100B5C000A128A11B03083120313CC001330CD006B
:100B6C00831603134D08AA00AB012A088312031342
:100B7C00CE00831603132B0883120313CF008316A6
:100B8C0003134E08AC00AD012C0883120313D000E4
:100B9C00831603132D0883120313D100831603133A
:100BAC004F08AE00AF012E0883120313D200831638
:100BBC0003132F0883120313D3000A168A11AA22D7
:100BCC000A128A11B03083120313A5000030A6005C
:100BDC000A168A118C230A128A110230831203130B
:100BEC00A50001300A168A1164230A128A11B0304A
:100BFC0083120313CC000130CD008316031350086D
:100C0C00AA00AB012A0883120313CE008316031328
:100C1C002B0883120313CF00831603135108AC0067
:100C2C00AD012C0883120313D000831603132D0877
:100C3C0083120313D100831603135208AE00AF01C5
:100C4C002E0883120313D200831603132F0883126A
:100C5C000313D3000A168A11AA220A128A11B03081
:100C6C0083120313A5000030A6000A168A118C23E8
:100C7C000A128A11D32F83120313A501A50A01307E
:100C8C000A168A1164230A128A11831603134C085C
:100C9C000319512E522EF92E5608A3005508A20006
:100CAC005408A1005308A0000A128A150C200A123D
:100CBC008A11831603132108C8002008C7005608A0
:100CCC0083120313D50083160313550883120313E1
:100CDC00D40083160313540883120313D300831612
:100CEC000313530883120313D2008316031347080C
:100CFC00F0004808F1000030F11BFF30F200F30067
:100D0C0001300A128A151C210A128A1173088312E7
:100D1C000313D1007208D0007108CF007008CE0008
:100D2C000A168A11CD220A128A1183120313510852
:100D3C00DD005008DC004F08DB004E08DA004130C3
:100D4C00D9002030D8000030D7000030D6000A126D
:100D5C008A1146210A128A11831203135908831629
:100D6C000313A30083120313580883160313A20062
:100D7C0083120313570883160313A1008312031362
:100D8C00560883160313A0000A128A150C200A12A7
:100D9C008A11831603132108C2002008C100B03049
:100DAC0083120313CC003430CD0083160313480890
:100DBC0083120313CF008316031347088312031304
:100DCC00CE0083160313420883120313D10083163B
:100DDC000313410883120313D0000A168A11AA22A6
:100DEC000A128A11042FB03083120313CC005B302B
:100DFC00CD000A168A11AA220A128A11B030831267
:100E0C000313A5000030A6000A168A118C230A12BF
:100E1C008A11023083120313A50001300A168A11BD
:100E2C0064230A128A11831603134C0803191F2F0B
:100E3C00202FC72F5A08A3005908A2005808A10058
:100E4C005708A0000A128A150C200A128A11831660
:100E5C0003132108CA002008C9005A08831203137F
:100E6C00D50083160313590883120313D400831679
:100E7C000313580883120313D30083160313570864
:100E8C0083120313D200831603134908F0004A0897
:100E9C00F1000030F11BFF30F200F30001300A12B8
:100EAC008A151C210A128A11730883120313D100AC
:100EBC007208D0007108CF007008CE000A168A1193
:100ECC00CD220A128A11831203135108DD00500837
:100EDC00DC004F08DB004E08DA004130D90020302E
:100EEC00D8000030D7000030D6000A128A114621F3
:100EFC000A128A1183120313590883160313A300D1
:100F0C0083120313580883160313A20083120313CE
:100F1C00570883160313A100831203135608831674
:100F2C000313A0000A128A150C200A128A118316C8
:100F3C0003132108C4002008C300B030831203132C
:100F4C00CC002530CD00831603134A0883120313FB
:100F5C00CF0083160313490883120313CE008316A4
:100F6C000313440883120313D1008316031343089D
:100F7C0083120313D0000A168A11AA220A128A11AC
:100F8C00352EB03083120313CC004F30CD000A162F
:100F9C008A11AA220A128A11352E013083160313E4
:100FAC00C5071A3083160313AC005E30AB006D30EE
:100FBC00AA00AA0BDF2FAB0BDF2FAC0BDF2FE62F1A
:100FCC004E2D0A128A1100288313DB308400E63080
:100FDC000A168A11CF210A128A11831790308400C5
:100FEC00B0300A168A11CF210A128A1183010A1213
:040FFC008A11882CA2
:1010020083160313911583128C1D082809280428BE
:101012008C1113080800031083160313220D230DED
:10102200A9002908031D1628172820280030A3002C
:101032000030A2000030A1000030A000812820086A
:10104200A4002108A5002208A6002308A7001F303B
:101052000310A70CA60CA50CA40CFF3E031D292807
:101062002408A800A217FF30A005FF30A105FF3019
:10107200A2050030A3059630A902A91F41284228E3
:101082005A282908803A973E0318482849284A28AE
:10109200172801300310A30CA20CA10CA00CFF3ED8
:1010A200031D4B280130A907031D582859284A2837
:1010B200712820302902031C5F2860286C28172819
:1010C2000130A4000310A00DA10DA20DA30DA40BCD
:1010D20063280130A9022908031D7028712861289C
:1010E20028080319752876288128A009A109A209D0
:1010F200A309A00A0319A10A0319A20A0319A30A40
:101102000800720873040319872888288E28720839
:101112007304031D8D288E28952870080A128A11DF
:1011220006200A128A151B297208093EF400730868
:101132000318013E003EF500740884008317751CF5
:1011420083130008F600840A0008F7007608770483
:101152000319AC28AD28DF287208093EF400730891
:101162000318013E003EF500740884008317751CC5
:1011720083130008F600840A0008F7007208023E92
:10118200F80073080318013E003EF9007808840055
:101192008317791C83130008FA00840A0008FB00F5
:1011A2007B08803AFC007708803A7C02031DDB282A
:1011B20076087A020318DE28DF281B2972088400C9
:1011C2008317731C83130008F400840A0008F500D7
:1011D2007208023EF60073080318013E003EF70053
:1011E200760884008317771C831300087407F900BC
:1011F2007508F8000318F80A801F0029F803780818
:10120200FA007908840083177A1C8313700880001F
:101212007208023EF40073080318013E003EF50016
:10122200740884008317751C831301308007840AB5
:101232000318800A0800F8007808031921292229D6
:101242003629F31F2529262936297009FA00710942
:10125200FB007209FC007309FD00FA0A0319FB0A7C
:101262000319FC0A0319FD0A3E297308FD007208DE
:10127200FC007108FB007008FA0073087204710424
:101282007004031D452946294F290030F300003020
:10129200F2000030F1000030F000CF299630F90062
:1012A2005D290130F90701300310FD0CFC0CFB0C29
:1012B200FA0CFF3E031D5529FE307D05031D6229F0
:1012C200632952297D290130F9070130FA070030DC
:1012D20003180130FB07003003180130FC0700300F
:1012E20003180130FD0701300310FD0CFC0CFB0C50
:1012F200FA0CFF3E031D7529FF307D05031D82296F
:10130200832964298F290130F9020130F400031086
:10131200FA0DFB0DFC0DFD0DF40B8829FC1B922927
:101322009329992902307902031898299929842945
:1013320079189C299D29A529FF30FA05FF30FB0564
:101342007F30FC05FF30FD050310F90C7908F4002D
:10135200F501F601F70118300310F40DF50DF60D45
:10136200F70DFF3E031DAD297408FA047508FB044E
:101372007608FC047708FD0478080319C129C229FC
:10138200C729F31FC529C629C729FD177D08F30000
:101392007C08F2007B08F1007A08F00008000130B6
:1013A20083120313B500B21BD729D9290130DA29D8
:1013B2000030B80083160313610883120313B700C9
:1013C20083160313600883120313B6003808031947
:1013D200EB29EC29022AFF30B6070318B70AFF30BF
:1013E200B7073808031DF629F729FC292B30B3006B
:1013F2000030B400002A2D30B3000030B4003308AE
:10140200B8001F30B9000030BA0083160317AF01CD
:101412004A2AFF308312B9070318BA0AFF30BA0703
:101422003908903E84000A30F0000030F1003208A2
:10143200F3003108F2000A168A11D0250A128A1521
:101442007108F7007008F6000A168A111C220A12A7
:101452008A157608303E8317800083120313B50184
:10146200FF30B6070318B70AFF30B7070A30F0009B
:101472000030F1003208F3003108F2000A128A113A
:1014820007200A128A15710883120313B20070082A
:10149200B100831203133A08803AFF0080307F02C2
:1014A200031D552A01303902031C582A592A792A68
:1014B2008312031331083204031D602A612A0A2AA7
:1014C2003508031D652A662A0A2A3708803AFF0072
:1014D20080307F02031D6F2A01303602031C722AFC
:1014E200732A792A83160313E418782A792A0A2A96
:1014F20083120313380803197F2A802A8C2AFF30AB
:10150200B9070318BA0AFF30BA073908903E8400B7
:101512003808831780002F08A8003008A90039086E
:10152200903EAA003708AC003608AB000A168A11B2
:1015320027260A128A150800831203130510831640
:1015420003130510823083120313D100DD30D00063
:10155200D00BA92AD10BA92A831603130514313003
:1015620083120313D000D00BB42A83120313810118
:101572000518BC2ABD2AB92A8101051CC12AC22A22
:10158200BE2A81010518C62AC72AC32AD9010A160A
:101592008A113D230A128A15003A031DD12AD22A42
:1015A200D42A0030E52B831203135908DB3E840052
:1015B200831603136508831380000130831203131B
:1015C200D90705305902031CE72AE82AC82A8316DC
:1015D20003135D085C0783120313D0008316031301
:1015E2005E08831203135007D100831603135B08AE
:1015F200831203135107D800831603135F08831263
:10160200031358060319062B072B082BD22A413045
:10161200A3002030A2000030A1000030A0008316F9
:1016220003135C0883120313D000D101D201D3014A
:101632005308F3005208F2005108F1005008F0007C
:1016420000300A128A151C210A128A1573088312A5
:101652000313A7007208A6007108A5007008A40071
:101662000A128A15E6230A128A1583120313230823
:10167200BD002208BC002108BB002008BA00831666
:1016820003135B0883120313D400D501D601D701DB
:101692005708F3005608F2005508F1005408F0000C
:1016A20000300A128A151C210A128A157308831245
:1016B2000313C1007208C0007108BF007008BE00A9
:1016C2000A128A15B0250A128A15831203134E08CC
:1016D20084003A0883138000840A3B088000840A4D
:1016E2003C088000840A3D0880004130A30020307D
:1016F200A2000030A1000030A000831603135E0890
:1017020083120313D000D101D201D3015308F30095
:101712005208F2005108F1005008F00000300A129D
:101722008A151C210A128A15730883120313A70053
:101732007208A6007108A5007008A4000A128A1592
:10174200E6230A128A15831203132308BD00220816
:10175200BC002108BB002008BA00831603135D08F1
:1017620083120313D400D501D601D7015708F30021
:101772005608F2005508F1005408F00000300A1231
:101782008A151C210A128A15730883120313C100D9
:101792007208C0007108BF007008BE000A128A15E4
:1017A200B0250A128A15831203134F0884003A08DF
:1017B20083138000840A3B088000840A3C0880006E
:1017C200840A3D08800001300800831203132708B1
:1017D200B1008030B1052708A8002807B800A61F6D
:1017E200F32BF42BF52B381438080319F92BFA2BA9
:1017F2000A2C380A031DFE2BFF2B072C0030A700F2
:101802000030A6000030A5000030A400A617A701F2
:10181200122C0030A7000030A6000030A5000030D6
:10182200A40023088039B1062308A8002807B900BC
:10183200A21F1C2C1D2C1E2C391439080319222C12
:10184200232C332C390A031D272C282C302C003052
:10185200A3000030A2000030A1000030A000A217B7
:10186200A3013B2C0030A3000030A2000030A100F5
:101872000030A0002308220421042004031D422C6E
:10188200432C5A2C0030A7000030A6000030A500DF
:101892000030A4008030A6047F30A7043108A704DA
:1018A2002708A3002608A2002508A1002408A000FA
:1018B200AF2D3808031D5E2C5F2C682C0030A3006E
:1018C2000030A2000030A1000030A000AF2D380887
:1018D200A800A9012908AB0039082802AA00031CA4
:1018E200AB032A087F3EB2002B080318013E003EDC
:1018F200B3002708B0002608AF002508AE00240870
:10190200AD000030A7000030A6000030A500003076
:10191200A4000030B7000030B6000030B50000303F
:10192200B400B901DC2C39080319982C992CB92C74
:101932000130A8000310AD0DAE0DAF0DB00DA80B18
:101942009B2C0130A8000310A40DA50DA60DA70D18
:10195200A80BA42CB71FAE2CAF2CB02C2414013032
:10196200A8000310B40DB50DB60DB70DA80BB22C1F
:1019720023083002031DC72C22082F02031DC72C87
:1019820021082E02031DC72C20082D02031CCA2C7D
:10199200CB2CDA2C37172008AD022108031C210FAB
:1019A200AE022208031C220FAF022308031C230FDE
:1019B200B0020130B9071A303902031CE12CE22CC3
:1019C200942C30082F042E042D040319E92CEA2C40
:1019D200092D3414092D0130A8000310A40DA50D02
:1019E200A60DA70DA80BEE2CB71FF82CF92CFA2C7C
:1019F20024140130A8000310B40DB50DB60DB70DB7
:101A0200A80BFC2CFF30B2070318B30AFF30B30750
:101A1200A61F0C2D0D2DEC2CB901B71F112D122D67
:101A22002E2DFF303405A800FF303505A900FF3008
:101A32003605AA007F303705AB002B082A0429049B
:101A420028040319252D262D292D0130B9002E2D0C
:101A5200241C2C2D2D2D2E2D262D39080319322D27
:101A6200332D642D0130A407003003180130A5077F
:101A7200003003180130A607003003180130A70711
:101A8200271C442D452D642D2408A8002508A900F3
:101A92002608AA002708AB000130AC002B0DAB0CC6
:101AA200AA0CA90CA80CAC0B4F2D2B08A7002A08D6
:101AB200A6002908A5002808A4000130B2070318CF
:101AC200B30A0030B3073308803AFF0080307F0248
:101AD200031D6D2DFF303202031C702D712D7F2DE1
:101AE200FF3083120313B2000030B3000030A700AE
:101AF2000030A6000030A5000030A40083120313BA
:101B02003308803AFF0080307F02031D8A2D0130A6
:101B1200320203188D2D8E2D9B2D83120313B201D9
:101B2200B3010030A7000030A6000030A50000304D
:101B3200A400B101831203133208B800381CA22D8D
:101B4200A32DA52DA617A72D7F30A6053808A8001E
:101B52000310280CA7003108A704512C0800831297
:101B620003133D08CA008030CA053D08C20042077F
:101B7200CC00BC1FBD2DBE2DBF2D4C144C0803192B
:101B8200C32DC42DD42D4C0A031DC82DC92DD12D12
:101B92000030BD000030BC000030BB000030BA0095
:101BA200BC17BD01DC2D0030BD000030BC00003090
:101BB200BB000030BA004108CB008030CB054B0897
:101BC2004A060319E52DE62DE72D4A174108C20002
:101BD2004207CB00C01FEE2DEF2DF02D4B144B080A
:101BE2000319F42DF52D052E4B0A031DF92DFA2D9F
:101BF200022E0030C1000030C0000030BF000030B3
:101C0200BE00C017C1010D2E0030C1000030C0005F
:101C12000030BF000030BE004C084B020318122EE9
:101C2200132E372E4A1F162E172E192E8030CA0653
:101C32004C08CD004B08CC004D08CB003A08CD0033
:101C42003E08BA004D08BE003B08CD003F08BB006D
:101C52004D08BF003C08CD004008BC004D08C00044
:101C62003D08CD004108BD004D08C100CD014B0823
:101C7200C200C3014308C5004C084202C400031C51
:101C8200C5034508803AFF0080307F02031D4B2EBA
:101C92001A304402031C4E2E4F2E842E831203133D
:101CA2003D083C043B043A04031D582E5A2E0130D1
:101CB2005B2E0030CD000030BD000030BC00003093
:101CC200BB000030BA004B08CC008C2E4D1C6A2E93
:101CD2006B2E722E4D08C2000310420C0138CD004B
:101CE200742E0310CD0C3A1C772E782E792ECD1738
:101CF2000130C2003D0DBD0CBC0CBB0CBA0CC20BBA
:101D02007B2E0130CC07831203134B084C02031CB9
:101D12008B2E8C2E672E4A1B8F2E902ED72E4C0880
:101D2200031D942E952E9E2E0030BD000030BC0067
:101D32000030BB000030BA00FF2F3E08BA073F0850
:101D420003110318013E0319A72EBB074008031114
:101D52000318013E0319AE2EBC07410803110318F4
:101D6200013E0319B52EBD073D1CB82EB92E8B2F8F
:101D72004D1CBC2EBD2EC42E4D08C2000310420CB9
:101D82000138CD00C62E0310CD0C3A1CC92ECA2E26
:101D9200CB2ECD170130C2003D0DBD0CBC0CBB0CCF
:101DA200BA0CC20BCD2E0130CC078B2F3D08803AE6
:101DB200FF004108803A7F02031DE92E40083C02E1
:101DC200031DE92E3F083B02031DE92E3E083A029D
:101DD2000318EC2EED2E442FFF30C200FF30C3005B
:101DE200FF30C400FF30C5003E08C6003F08C700F0
:101DF2004008C8004108C9003A08C6023B08031C53
:101E02003B0F042F052FC7023C08031C3C0F0A2F6F
:101E12000B2FC8023D08031C3D0F102F112FC902C2
:101E22004608C20747080318470F182F192FC30780
:101E320048080318480F1E2F1F2FC407490803180C
:101E4200490AC5074508BD004408BC004308BB0059
:101E52004208BA008030CA064D03FF3ACD004D0851
:101E6200031D342F352F522F0130BA0700300318CB
:101E72000130BB07003003180130BC0700300318E3
:101E82000130BD07522F3E08BA023F08031C3F0F24
:101E9200BB024008031C400FBC024108031C410F57
:101EA200BD023D083C043B043A04031D592F5A2F3E
:101EB200872F4D08031D5E2F5F2F872F0030BD0037
:101EC2000030BC000030BB000030BA00FF2F0130F0
:101ED200C2000310BA0DBB0DBC0DBD0DC20B6A2FA3
:101EE200CD1F742F752F762F3A144D1C792F7A2F10
:101EF2007E2F03144D0DCD00802F0310CD0D4C0805
:101F02000319842F852F872F0130CC02BC1F8A2F03
:101F12008B2F682FCB01CD1F8F2F902F9E2F4D0817
:101F22007F390319952F962F992F0130CB009E2FC1
:101F32003A1C9C2F9D2F9E2F962F4B080319A22FE0
:101F4200A32FD52F0130BA07003003180130BB0789
:101F5200003003180130BC07003003180130BD0700
:101F62003D1CB42FB52FD52F3A08C2003B08C30041
:101F72003C08C4003D08C5000130C600450DC50C33
:101F8200C40CC30CC20CC60BBF2F4508BD004408CD
:101F9200BC004308BB004208BA004C0A0319D22F06
:101FA200D32FD52F0130CC074C0A0319D92FDA2FA2
:101FB200DF2F4C08031DDE2FDF2FED2F0030BD0079
:101FC2000030BC000030BB000030BA004C08031DDA
:101FD200EB2FEC2FED2FCA014C1CF02FF12FF32F1A
:101FE200BC17F52F7F30BC054C08C2000310420C11
:101FF200BD00CA1FFD2FFE2FFF2FBD170800FF1BBC
:102002000A2883137F1883170008840A0319FF0A1A
:10201200080010308A000408840A82070034203441
:1020220025343034323464342F342534303432346D
:1020320064342F343234303425343034323464341E
:1020420000342034203420342534303432346434A3
:102052003A3425343034323464343A34253430342A
:10206200323464340034483475346D3420343A34B4
:102072002034253464342E34253464342034253419
:1020820025340034543465346D3470343A34203499
:10209200253464342E3425346434203443340034FB
:1020A2002034203448346F346C34643420346F3438
:1020B2006E342E342E342E340034483475346D345C
:1020C20020343A3420342D342D3420342534253430
:1020D2000034543465346D3470343A3420342D3441
:0820E2002D3420344334003496
:10239E0064008001840A0406031900340406D0295F
:1023AE0083160313111483128C1DDE29DF29DA29FB
:1023BE008C11080083160313111583128C1DE82946
:1023CE00E929E4298C1108008316031305148112E0
:1023DE0081110108F83901388100080083160313B2
:1023EE009112111683128C1DFD29FE29F9298C11CB
:1023FE000800831603139116111683128C1D082ADA
:10240E00092A042A8C11080001300A168A1149245F
:10241E000A168A110D3083120313A600FB30A50095
:10242E00A50B172AA60B172A0800F71B1F2A202A0E
:10243E00212A2C2A7609F8007709F900F80A0319DF
:10244E00F90A7808F6007908F700080083120313DA
:10245E00A000200893008C1D352A362A322A8C11B2
:10246E0083160313110EFD00FD0C7D0C01390800BF
:10247E00F200F101721C442A452A472A7008F1071E
:10248E000310F00D0310F20C7208031D4F2A502A90
:10249E00412A71080800F5000F307505F3000A3067
:1024AE00F0007508F40004300310F40CFF3E031D19
:1024BE005B2A74080A168A113F220A168A117307BC
:1024CE000800F00083160313871507167008940092
:1024DE002830831203139400831603139101803066
:1024EE007006031D7B2A7C2A7F2A31309300862AB0
:1024FE007008031D832A842A862A0C309300080054
:10250E00831203134908CB00992A4708BB004808D9
:10251E00BC004B30BD004A08BE000A128A116A2068
:10252E000A168A11831203134B0884000A168A11A5
:10253E000A200A168A11003A031DA62AA72A8C2AF7
:10254E00C701C80108004E3083120313D5004C0892
:10255E00D6000030D700D801D901DF01E001563096
:10256E00C7000030C8004D08C9005530CA000A1611
:10257E008A1187220A168A118312031358084C07F0
:10258E00D400540884008313800108008030831225
:10259E000313D1065508BD005408BC005308BB00F8
:1025AE005208BA005108C1005008C0004F08BF00C1
:1025BE004E08BE000A128A15B0250A168A11831219
:1025CE0003133D08D1003C08D0003B08CF003A0869
:1025DE00CE000800F401F501701CF62AF72AFD2A38
:1025EE007208F4070318F50A7308F5070130031093
:1025FE00F20DF30DFF3E031DFE2A01300310F10C08
:10260E00F00CFF3E031D052B70087104031D102BEB
:10261E00112BF32A7508F1007408F0000800F80079
:10262E00F401F5017008F200F3017208F600730868
:10263E00F700781C232B242B2A2B7608F40703187B
:10264E00F50A7708F50701300310F60DF70DFF3E7A
:10265E00031D2B2B0310F80C7808031D372B382B7A
:10266E00202B7508F1007408F00008008316031380
:10267E00E501F101831203138101051C472B482B41
:10268E00442B810105184C2B4D2B492B0108F000D2
:10269E00031083160313E50D33307002031C582B01
:1026AE00592B5A2B65140130F10708307102031CA7
:1026BE00612B622B412B0130080083120313A600FD
:1026CE00732BA701812B4030A700812B1430A7005C
:1026DE00812B5430A700812B2508013A0319682B52
:1026EE00033A03196A2B013A03196D2B073A0319A2
:1026FE00702B682B2608FF3EA707270880380A167E
:10270E008A1149240A168A110800A32B2608FF00F5
:10271E00250884000A168A1100200A168A110A1644
:10272E008A1192240A168A11013083120313A50707
:10273E000318A60A0030A607831203132608FF000B
:10274E00250884000A168A1100200A168A11003AFA
:10275E00031DB22BB32B8D2B080083120313A6017E
:10276E00A701D12B2508A300A4012308F0002408FB
:10277E00F1002108F2002208F3000A128A158220C5
:10278E000A168A11013083120313A6070318A70A2B
:10279E000030A70726082007A3002308840083170C
:1027AE000008A5002508031DDD2BDE2BB92B080024
:1027BE00FC000A30F0000030F1007C08F800F9014E
:1027CE007808F2007908F3000A128A1107200A1617
:1027DE008A117008FA000A30F0000030F1007C080F
:1027EE00F800F9017808F2007908F3000A168A1148
:1027FE00D0250A168A117008FB007A08F8000330FB
:10280E000310F80DFF3E031D072C0310780D7B04FB
:10281E000800823083120313A600DD30A500A50B3D
:10282E00162CA60B162C33300A168A1149240A16BA
:10283E008A1132300A168A1149240A168A11283052
:10284E000A168A1149240A168A110C300A168A11A0
:10285E0049240A168A1106300A168A1149240A16C4
:10286E008A1101300A168A1149240A168A11143067
:10287E0083120313A6007930A500A50B442CA60BDA
:10288E00442C080083120313A2002208A300F03088
:10289E00A3052208A10003300310A10DFF3E031D66
:1028AE00532C0310210DA400F030A4050A168A1132
:1028BE00D7210A168A114E300A168A112D220A16AF
:1028CE008A118312031323080C380A168A112D223B
:1028DE000A168A1183120313230808380A168A115E
:1028EE002D220A168A118312031324080C380A1695
:1028FE008A112D220A168A1183120313240808380E
:10290E000A168A112D220A168A110A168A11E12137
:10291E000A168A11080083120313A2002208A300CC
:10292E00F030A3052208A10003300310A10DFF3ED5
:10293E00031D9C2C0310210DA400F030A4050A16D3
:10294E008A11D7210A168A114E300A168A112D22A3
:10295E000A168A118312031323080D380A168A11D8
:10296E002D220A168A1183120313230809380A1618
:10297E008A112D220A168A118312031324080D3888
:10298E000A168A112D220A168A118312031324089D
:10299E0009380A168A112D220A168A110A168A1168
:1029AE00E1210A168A11080083120313A5000A16E4
:1029BE008A11D7210A168A11D0300A168A112D22B1
:1029CE000A168A11003A031DED2CEE2C1B2D043035
:1029DE000A168A112D220A168A118312031325084C
:1029EE000A168A11DF230A168A110A168A112D2257
:1029FE000A168A118312031321080A168A11DF237D
:102A0E000A168A110A168A112D220A168A118312A3
:102A1E00031322080A168A11DF230A168A110A16D0
:102A2E008A112D220A168A110A168A11E1210A1616
:102A3E008A11823083120313A400DD30A300A30B8E
:102A4E00262DA40B262D080083120313A5000A16AB
:102A5E008A11D7210A168A11D0300A168A112D2210
:102A6E000A168A11003A031D3D2D3E2D6D2D0030A4
:102A7E000A168A112D220A168A11831203132208AE
:102A8E000A168A11DF230A168A117F390A168A114D
:102A9E002D220A168A118312031321080A168A118F
:102AAE00DF230A168A110A168A112D220A168A1196
:102ABE008312031325080A168A11DF230A168A11B8
:102ACE003F390A168A112D220A168A110A168A1100
:102ADE00E1210A168A11823083120313A400DD301D
:102AEE00A300A30B782DA40B782D0800F901FA0191
:102AFE00760884008313000884000A168A110A20BF
:102B0E000A168A112A3A031D8D2D8E2DBA2D76089E
:102B1E00840001308007770884000008FF0002302F
:102B2E0080077F0884000008F900840A0008FA0074
:102B3E00CB2D7A08F1007908F0000A30F20000304F
:102B4E00F3000A168A11F1220A168A117808700704
:102B5E00F9000030031801307107FA00760884007E
:102B6E0001308313800776088400000884000A165B
:102B7E008A110A200A168A11D03EF8000A3078020D
:102B8E00031CCA2DCB2DA02D7A08F7007908F6006C
:102B9E000800F501F31FD42DD52DDC2DF209F30914
:102BAE00F20A0319F30A0130F500F11FDF2DE02DB3
:102BBE00E52DF009F109F00A0319F10A7008710404
:102BCE000319EA2DEB2D182E0130F400F72D0130EC
:102BDE000310F00DF10DFF3E031DEF2D0130F40734
:102BEE00F11FFA2DFB2DEE2D71087302031D012E20
:102BFE0070087202031C042E052E0B2E7008F202B2
:102C0E007108031CF303F30201300310F10CF00CF6
:102C1E00FF3E031D0C2E0130F402031D172E182E3D
:102C2E00FB2D750803191C2E1D2E222EF209F309F9
:102C3E00F20A0319F30A7308F1007208F000080093
:102C4E0083160313641C2C2E2D2E3A2E831203137F
:102C5E002A08A0002808A1002908A2000A168A1135
:102C6E00B4230A168A1183120313AC1F3F2E402E73
:102C7E00422EAB01AC01AD01AE015C2E2030F00056
:102C8E000030F100831203132808F2002908F30024
:102C9E000A128A1582200A168A1101308312031332
:102CAE00AD070318AE0A0030AE072E08803AFD00BD
:102CBE002C08803A7D02031D662E2B082D02031C64
:102CCE00692E6A2E452E8316031364186F2E702EEE
:102CDE007D2E831203132A08A0002808A1002908BC
:102CEE00A2000A168A11B4230A168A1108000230AD
:102CFE0083120313A3004530A200A930A100A10B3B
:102D0E00862EA20B862EA30B862E0A168A11D7218B
:102D1E000A168A11D0300A168A112D220A168A1125
:102D2E0000300A168A112D220A168A1100300A1650
:102D3E008A112D220A168A110A168A11E1210A1603
:102D4E008A11823083120313A200DD30A100A10B81
:102D5E00AE2EA20BAE2E0A168A11D7210A168A1192
:102D6E00D0300A168A112D220A168A1107300A1639
:102D7E008A112D220A168A1100300A168A112D2266
:102D8E000A168A110A168A11E1210A168A11823050
:102D9E0083120313A200DD30A100A10BD42EA20BCF
:102DAE00D42E08000A168A11D7210A168A11D0309D
:102DBE000A168A112D220A168A11003A031DE82ED0
:102DCE00E92E5A2F00300A168A112D220A168A1160
:102DDE000A168A11E1210A168A1152308312031340
:102DEE00A400A40BF82E00000A168A11D7210A1689
:102DFE008A11D1300A168A112D220A168A11003A2A
:102E0E00031D0A2F0B2F5A2F0A128A1501200A169C
:102E1E008A1183120313A5000A168A11F5210A16C8
:102E2E008A11831203132308840025087F390A169A
:102E3E008A1152220A168A11831380000A128A15E9
:102E4E0001200A168A1183120313A5000A168A118D
:102E5E00F5210A168A11831203132208840025080D
:102E6E007F390A168A1152220A168A11831380009C
:102E7E000A128A1501200A168A1183120313A5005D
:102E8E000A168A1100220A168A11831203132108C8
:102E9E00840025083F390A168A1152220A168A1111
:102EAE0083138000662F8312031323088400831379
:102EBE0080012208840080012108840080010A1606
:102ECE008A11E1210A168A1108000A168A11D721E1
:102EDE000A168A11D0300A168A112D220A168A1164
:102EEE00003A031D7B2F7C2FEC2F04300A168A111B
:102EFE002D220A168A110A168A11E1210A168A1142
:102F0E00523083120313A400A40B8B2F00000A1659
:102F1E008A11D7210A168A11D1300A168A112D224A
:102F2E000A168A11003A031D9D2F9E2FEC2F0A12AE
:102F3E008A1501200A168A1183120313A5000A1698
:102F4E008A11F5210A168A118312031321088400AF
:102F5E0025083F390A168A1152220A168A1183133E
:102F6E0080000A128A1501200A168A118312031391
:102F7E00A5000A168A11F5210A168A118312031367
:102F8E002208840025081F390A168A1152220A16B1
:102F9E008A11831380000A128A1501200A168A11DB
:102FAE0083120313A5000A168A1100220A168A112B
:102FBE00831203132308840025080A168A1152224D
:102FCE000A168A1183138000FA2F83120313210825
:102FDE0084000130831380002208840001308000B9
:102FEE002308840080010A168A11E1210A168A112B
:022FFE000800C9
:04400E00E223FF3F6B
:00000001FF
